{
	"tests/bankOwnerTest.sol": {
		"bigBank": {
			"abi": [
				{
					"inputs": [
						{
							"internalType": "address",
							"name": "",
							"type": "address"
						}
					],
					"name": "balances",
					"outputs": [
						{
							"internalType": "uint256",
							"name": "",
							"type": "uint256"
						}
					],
					"stateMutability": "view",
					"type": "function"
				},
				{
					"inputs": [
						{
							"internalType": "uint256",
							"name": "amount",
							"type": "uint256"
						}
					],
					"name": "deposit",
					"outputs": [],
					"stateMutability": "payable",
					"type": "function"
				},
				{
					"inputs": [],
					"name": "getBalances",
					"outputs": [
						{
							"internalType": "uint256",
							"name": "",
							"type": "uint256"
						}
					],
					"stateMutability": "view",
					"type": "function"
				},
				{
					"inputs": [],
					"name": "getOwner",
					"outputs": [
						{
							"internalType": "address",
							"name": "",
							"type": "address"
						}
					],
					"stateMutability": "view",
					"type": "function"
				},
				{
					"inputs": [],
					"name": "getTopDepositors",
					"outputs": [
						{
							"components": [
								{
									"internalType": "address",
									"name": "addr",
									"type": "address"
								},
								{
									"internalType": "uint256",
									"name": "amount",
									"type": "uint256"
								}
							],
							"internalType": "struct Bank.TopDepositor[]",
							"name": "",
							"type": "tuple[]"
						}
					],
					"stateMutability": "view",
					"type": "function"
				},
				{
					"inputs": [],
					"name": "owner",
					"outputs": [
						{
							"internalType": "address",
							"name": "",
							"type": "address"
						}
					],
					"stateMutability": "view",
					"type": "function"
				},
				{
					"inputs": [
						{
							"internalType": "uint256",
							"name": "",
							"type": "uint256"
						}
					],
					"name": "tops",
					"outputs": [
						{
							"internalType": "address",
							"name": "addr",
							"type": "address"
						},
						{
							"internalType": "uint256",
							"name": "amount",
							"type": "uint256"
						}
					],
					"stateMutability": "view",
					"type": "function"
				},
				{
					"inputs": [
						{
							"internalType": "uint256",
							"name": "money",
							"type": "uint256"
						}
					],
					"name": "withdraw",
					"outputs": [],
					"stateMutability": "nonpayable",
					"type": "function"
				},
				{
					"stateMutability": "payable",
					"type": "receive"
				}
			],
			"devdoc": {
				"kind": "dev",
				"methods": {},
				"version": 1
			},
			"evm": {
				"assembly": "    /* \"tests/bankOwnerTest.sol\":2447:2731  contract bigBank is Bank{... */\n  mstore(0x40, 0x80)\n  callvalue\n  dup1\n  iszero\n  tag_1\n  jumpi\n  revert(0x00, 0x00)\ntag_1:\n  pop\n    /* \"tests/bankOwnerTest.sol\":543:553  msg.sender */\n  caller\n    /* \"tests/bankOwnerTest.sol\":535:540  owner */\n  0x00\n  0x00\n    /* \"tests/bankOwnerTest.sol\":535:553  owner = msg.sender */\n  0x0100\n  exp\n  dup2\n  sload\n  dup2\n  0xffffffffffffffffffffffffffffffffffffffff\n  mul\n  not\n  and\n  swap1\n  dup4\n  0xffffffffffffffffffffffffffffffffffffffff\n  and\n  mul\n  or\n  swap1\n  sstore\n  pop\n    /* \"tests/bankOwnerTest.sol\":598:607  uint256 i */\n  0x00\n    /* \"tests/bankOwnerTest.sol\":610:611  0 */\n  0x00\n    /* \"tests/bankOwnerTest.sol\":598:611  uint256 i = 0 */\n  swap1\n  pop\n    /* \"tests/bankOwnerTest.sol\":593:688  for (uint256 i = 0; i < 3; i++) {... */\ntag_4:\n    /* \"tests/bankOwnerTest.sol\":617:618  3 */\n  0x03\n    /* \"tests/bankOwnerTest.sol\":613:614  i */\n  dup2\n    /* \"tests/bankOwnerTest.sol\":613:618  i < 3 */\n  lt\n    /* \"tests/bankOwnerTest.sol\":593:688  for (uint256 i = 0; i < 3; i++) {... */\n  iszero\n  tag_5\n  jumpi\n    /* \"tests/bankOwnerTest.sol\":639:643  tops */\n  0x02\n    /* \"tests/bankOwnerTest.sol\":649:676  TopDepositor(address(0), 0) */\n  mload(0x40)\n  dup1\n  0x40\n  add\n  0x40\n  mstore\n  dup1\n    /* \"tests/bankOwnerTest.sol\":670:671  0 */\n  0x00\n    /* \"tests/bankOwnerTest.sol\":649:676  TopDepositor(address(0), 0) */\n  0xffffffffffffffffffffffffffffffffffffffff\n  and\n  dup2\n  mstore\n  0x20\n  add\n    /* \"tests/bankOwnerTest.sol\":674:675  0 */\n  0x00\n    /* \"tests/bankOwnerTest.sol\":649:676  TopDepositor(address(0), 0) */\n  dup2\n  mstore\n  pop\n    /* \"tests/bankOwnerTest.sol\":639:677  tops.push(TopDepositor(address(0), 0)) */\n  swap1\n  dup1\n  0x01\n  dup2\n  sload\n  add\n  dup1\n  dup3\n  sstore\n  dup1\n  swap2\n  pop\n  pop\n  0x01\n  swap1\n  sub\n  swap1\n  0x00\n  mstore\n  keccak256(0x00, 0x20)\n  swap1\n  0x02\n  mul\n  add\n  0x00\n  swap1\n  swap2\n  swap1\n  swap2\n  swap1\n  swap2\n  pop\n  0x00\n  dup3\n  add\n  mload\n  dup2\n  0x00\n  add\n  exp(0x0100, 0x00)\n  dup2\n  sload\n  dup2\n  0xffffffffffffffffffffffffffffffffffffffff\n  mul\n  not\n  and\n  swap1\n  dup4\n  0xffffffffffffffffffffffffffffffffffffffff\n  and\n  mul\n  or\n  swap1\n  sstore\n  pop\n  0x20\n  dup3\n  add\n  mload\n  dup2\n  0x01\n  add\n  sstore\n  pop\n  pop\n    /* \"tests/bankOwnerTest.sol\":620:623  i++ */\n  dup1\n  dup1\n  0x01\n  add\n  swap2\n  pop\n  pop\n    /* \"tests/bankOwnerTest.sol\":593:688  for (uint256 i = 0; i < 3; i++) {... */\n  jump(tag_4)\ntag_5:\n  pop\n    /* \"tests/bankOwnerTest.sol\":2447:2731  contract bigBank is Bank{... */\n  dataSize(sub_0)\n  dup1\n  dataOffset(sub_0)\n  0x00\n  codecopy\n  0x00\n  return\nstop\n\nsub_0: assembly {\n        /* \"tests/bankOwnerTest.sol\":2447:2731  contract bigBank is Bank{... */\n      mstore(0x40, 0x80)\n      jumpi(tag_1, lt(calldatasize, 0x04))\n      shr(0xe0, calldataload(0x00))\n      dup1\n      0x893d20e8\n      gt\n      tag_11\n      jumpi\n      dup1\n      0x893d20e8\n      eq\n      tag_7\n      jumpi\n      dup1\n      0x8da5cb5b\n      eq\n      tag_8\n      jumpi\n      dup1\n      0xa7211664\n      eq\n      tag_9\n      jumpi\n      dup1\n      0xb6b55f25\n      eq\n      tag_10\n      jumpi\n      jump(tag_2)\n    tag_11:\n      dup1\n      0x113e08\n      eq\n      tag_3\n      jumpi\n      dup1\n      0x27e235e3\n      eq\n      tag_4\n      jumpi\n      dup1\n      0x2e1a7d4d\n      eq\n      tag_5\n      jumpi\n      dup1\n      0x81454f71\n      eq\n      tag_6\n      jumpi\n      jump(tag_2)\n    tag_1:\n      jumpi(tag_2, calldatasize)\n        /* \"tests/bankOwnerTest.sol\":2368:2377  msg.value */\n      callvalue\n        /* \"tests/bankOwnerTest.sol\":2344:2352  balances */\n      0x01\n        /* \"tests/bankOwnerTest.sol\":2344:2364  balances[msg.sender] */\n      0x00\n        /* \"tests/bankOwnerTest.sol\":2353:2363  msg.sender */\n      caller\n        /* \"tests/bankOwnerTest.sol\":2344:2364  balances[msg.sender] */\n      0xffffffffffffffffffffffffffffffffffffffff\n      and\n      0xffffffffffffffffffffffffffffffffffffffff\n      and\n      dup2\n      mstore\n      0x20\n      add\n      swap1\n      dup2\n      mstore\n      0x20\n      add\n      0x00\n      keccak256\n      0x00\n        /* \"tests/bankOwnerTest.sol\":2344:2377  balances[msg.sender] += msg.value */\n      dup3\n      dup3\n      sload\n      tag_14\n      swap2\n      swap1\n      tag_15\n      jump\t// in\n    tag_14:\n      swap3\n      pop\n      pop\n      dup2\n      swap1\n      sstore\n      pop\n        /* \"tests/bankOwnerTest.sol\":2413:2436  _updateTops(msg.sender) */\n      tag_16\n        /* \"tests/bankOwnerTest.sol\":2425:2435  msg.sender */\n      caller\n        /* \"tests/bankOwnerTest.sol\":2413:2424  _updateTops */\n      tag_17\n        /* \"tests/bankOwnerTest.sol\":2413:2436  _updateTops(msg.sender) */\n      jump\t// in\n    tag_16:\n        /* \"tests/bankOwnerTest.sol\":2447:2731  contract bigBank is Bank{... */\n      stop\n    tag_2:\n      revert(0x00, 0x00)\n        /* \"tests/bankOwnerTest.sol\":1030:1127  function getBalances() public view returns (uint256) {... */\n    tag_3:\n      callvalue\n      dup1\n      iszero\n      tag_18\n      jumpi\n      revert(0x00, 0x00)\n    tag_18:\n      pop\n      tag_19\n      tag_20\n      jump\t// in\n    tag_19:\n      mload(0x40)\n      tag_21\n      swap2\n      swap1\n      tag_22\n      jump\t// in\n    tag_21:\n      mload(0x40)\n      dup1\n      swap2\n      sub\n      swap1\n      return\n        /* \"tests/bankOwnerTest.sol\":312:355  mapping(address => uint256) public balances */\n    tag_4:\n      callvalue\n      dup1\n      iszero\n      tag_23\n      jumpi\n      revert(0x00, 0x00)\n    tag_23:\n      pop\n      tag_24\n      0x04\n      dup1\n      calldatasize\n      sub\n      dup2\n      add\n      swap1\n      tag_25\n      swap2\n      swap1\n      tag_26\n      jump\t// in\n    tag_25:\n      tag_27\n      jump\t// in\n    tag_24:\n      mload(0x40)\n      tag_28\n      swap2\n      swap1\n      tag_22\n      jump\t// in\n    tag_28:\n      mload(0x40)\n      dup1\n      swap2\n      sub\n      swap1\n      return\n        /* \"tests/bankOwnerTest.sol\":1133:1234  function withdraw(uint256 money) public onlyOwner{... */\n    tag_5:\n      callvalue\n      dup1\n      iszero\n      tag_29\n      jumpi\n      revert(0x00, 0x00)\n    tag_29:\n      pop\n      tag_30\n      0x04\n      dup1\n      calldatasize\n      sub\n      dup2\n      add\n      swap1\n      tag_31\n      swap2\n      swap1\n      tag_32\n      jump\t// in\n    tag_31:\n      tag_33\n      jump\t// in\n    tag_30:\n      stop\n        /* \"tests/bankOwnerTest.sol\":1829:1929  function getTopDepositors() public view returns (TopDepositor[] memory) {... */\n    tag_6:\n      callvalue\n      dup1\n      iszero\n      tag_34\n      jumpi\n      revert(0x00, 0x00)\n    tag_34:\n      pop\n      tag_35\n      tag_36\n      jump\t// in\n    tag_35:\n      mload(0x40)\n      tag_37\n      swap2\n      swap1\n      tag_38\n      jump\t// in\n    tag_37:\n      mload(0x40)\n      dup1\n      swap2\n      sub\n      swap1\n      return\n        /* \"tests/bankOwnerTest.sol\":700:779  function getOwner() public view returns (address) {... */\n    tag_7:\n      callvalue\n      dup1\n      iszero\n      tag_39\n      jumpi\n      revert(0x00, 0x00)\n    tag_39:\n      pop\n      tag_40\n      tag_41\n      jump\t// in\n    tag_40:\n      mload(0x40)\n      tag_42\n      swap2\n      swap1\n      tag_43\n      jump\t// in\n    tag_42:\n      mload(0x40)\n      dup1\n      swap2\n      sub\n      swap1\n      return\n        /* \"tests/bankOwnerTest.sol\":188:208  address public owner */\n    tag_8:\n      callvalue\n      dup1\n      iszero\n      tag_44\n      jumpi\n      revert(0x00, 0x00)\n    tag_44:\n      pop\n      tag_45\n      tag_46\n      jump\t// in\n    tag_45:\n      mload(0x40)\n      tag_47\n      swap2\n      swap1\n      tag_43\n      jump\t// in\n    tag_47:\n      mload(0x40)\n      dup1\n      swap2\n      sub\n      swap1\n      return\n        /* \"tests/bankOwnerTest.sol\":478:504  TopDepositor[] public tops */\n    tag_9:\n      callvalue\n      dup1\n      iszero\n      tag_48\n      jumpi\n      revert(0x00, 0x00)\n    tag_48:\n      pop\n      tag_49\n      0x04\n      dup1\n      calldatasize\n      sub\n      dup2\n      add\n      swap1\n      tag_50\n      swap2\n      swap1\n      tag_32\n      jump\t// in\n    tag_50:\n      tag_51\n      jump\t// in\n    tag_49:\n      mload(0x40)\n      tag_52\n      swap3\n      swap2\n      swap1\n      tag_53\n      jump\t// in\n    tag_52:\n      mload(0x40)\n      dup1\n      swap2\n      sub\n      swap1\n      return\n        /* \"tests/bankOwnerTest.sol\":2607:2728  function deposit(uint256 amount) public override  isAllowdDeposit payable {... */\n    tag_10:\n      tag_54\n      0x04\n      dup1\n      calldatasize\n      sub\n      dup2\n      add\n      swap1\n      tag_55\n      swap2\n      swap1\n      tag_32\n      jump\t// in\n    tag_55:\n      tag_56\n      jump\t// in\n    tag_54:\n      stop\n        /* \"tests/bankOwnerTest.sol\":1277:1823  function _updateTops(address depositor) internal {... */\n    tag_17:\n        /* \"tests/bankOwnerTest.sol\":1336:1350  uint256 amount */\n      0x00\n        /* \"tests/bankOwnerTest.sol\":1353:1361  balances */\n      0x01\n        /* \"tests/bankOwnerTest.sol\":1353:1372  balances[depositor] */\n      0x00\n        /* \"tests/bankOwnerTest.sol\":1362:1371  depositor */\n      dup4\n        /* \"tests/bankOwnerTest.sol\":1353:1372  balances[depositor] */\n      0xffffffffffffffffffffffffffffffffffffffff\n      and\n      0xffffffffffffffffffffffffffffffffffffffff\n      and\n      dup2\n      mstore\n      0x20\n      add\n      swap1\n      dup2\n      mstore\n      0x20\n      add\n      0x00\n      keccak256\n      sload\n        /* \"tests/bankOwnerTest.sol\":1336:1372  uint256 amount = balances[depositor] */\n      swap1\n      pop\n        /* \"tests/bankOwnerTest.sol\":1387:1396  uint256 i */\n      0x00\n        /* \"tests/bankOwnerTest.sol\":1399:1400  0 */\n      0x00\n        /* \"tests/bankOwnerTest.sol\":1387:1400  uint256 i = 0 */\n      swap1\n      pop\n        /* \"tests/bankOwnerTest.sol\":1382:1587  for (uint256 i = 0; i < 3; i++) {... */\n    tag_58:\n        /* \"tests/bankOwnerTest.sol\":1406:1407  3 */\n      0x03\n        /* \"tests/bankOwnerTest.sol\":1402:1403  i */\n      dup2\n        /* \"tests/bankOwnerTest.sol\":1402:1407  i < 3 */\n      lt\n        /* \"tests/bankOwnerTest.sol\":1382:1587  for (uint256 i = 0; i < 3; i++) {... */\n      iszero\n      tag_59\n      jumpi\n        /* \"tests/bankOwnerTest.sol\":1448:1457  depositor */\n      dup3\n        /* \"tests/bankOwnerTest.sol\":1432:1457  tops[i].addr == depositor */\n      0xffffffffffffffffffffffffffffffffffffffff\n      and\n        /* \"tests/bankOwnerTest.sol\":1432:1436  tops */\n      0x02\n        /* \"tests/bankOwnerTest.sol\":1437:1438  i */\n      dup3\n        /* \"tests/bankOwnerTest.sol\":1432:1439  tops[i] */\n      dup2\n      sload\n      dup2\n      lt\n      tag_61\n      jumpi\n      tag_62\n      tag_63\n      jump\t// in\n    tag_62:\n    tag_61:\n      swap1\n      0x00\n      mstore\n      keccak256(0x00, 0x20)\n      swap1\n      0x02\n      mul\n      add\n        /* \"tests/bankOwnerTest.sol\":1432:1444  tops[i].addr */\n      0x00\n      add\n      0x00\n      swap1\n      sload\n      swap1\n      0x0100\n      exp\n      swap1\n      div\n      0xffffffffffffffffffffffffffffffffffffffff\n      and\n        /* \"tests/bankOwnerTest.sol\":1432:1457  tops[i].addr == depositor */\n      0xffffffffffffffffffffffffffffffffffffffff\n      and\n      sub\n        /* \"tests/bankOwnerTest.sol\":1428:1577  if (tops[i].addr == depositor) {... */\n      tag_65\n      jumpi\n        /* \"tests/bankOwnerTest.sol\":1494:1500  amount */\n      dup2\n        /* \"tests/bankOwnerTest.sol\":1477:1481  tops */\n      0x02\n        /* \"tests/bankOwnerTest.sol\":1482:1483  i */\n      dup3\n        /* \"tests/bankOwnerTest.sol\":1477:1484  tops[i] */\n      dup2\n      sload\n      dup2\n      lt\n      tag_66\n      jumpi\n      tag_67\n      tag_63\n      jump\t// in\n    tag_67:\n    tag_66:\n      swap1\n      0x00\n      mstore\n      keccak256(0x00, 0x20)\n      swap1\n      0x02\n      mul\n      add\n        /* \"tests/bankOwnerTest.sol\":1477:1491  tops[i].amount */\n      0x01\n      add\n        /* \"tests/bankOwnerTest.sol\":1477:1500  tops[i].amount = amount */\n      dup2\n      swap1\n      sstore\n      pop\n        /* \"tests/bankOwnerTest.sol\":1518:1538  _sortTopDepositors() */\n      tag_69\n        /* \"tests/bankOwnerTest.sol\":1518:1536  _sortTopDepositors */\n      tag_70\n        /* \"tests/bankOwnerTest.sol\":1518:1538  _sortTopDepositors() */\n      jump\t// in\n    tag_69:\n        /* \"tests/bankOwnerTest.sol\":1556:1563  return; */\n      pop\n      pop\n      jump(tag_57)\n        /* \"tests/bankOwnerTest.sol\":1428:1577  if (tops[i].addr == depositor) {... */\n    tag_65:\n        /* \"tests/bankOwnerTest.sol\":1409:1412  i++ */\n      dup1\n      dup1\n      0x01\n      add\n      swap2\n      pop\n      pop\n        /* \"tests/bankOwnerTest.sol\":1382:1587  for (uint256 i = 0; i < 3; i++) {... */\n      jump(tag_58)\n    tag_59:\n      pop\n        /* \"tests/bankOwnerTest.sol\":1601:1610  uint256 i */\n      0x00\n        /* \"tests/bankOwnerTest.sol\":1613:1614  0 */\n      0x00\n        /* \"tests/bankOwnerTest.sol\":1601:1614  uint256 i = 0 */\n      swap1\n      pop\n        /* \"tests/bankOwnerTest.sol\":1596:1817  for (uint256 i = 0; i < 3; i++) {... */\n    tag_71:\n        /* \"tests/bankOwnerTest.sol\":1620:1621  3 */\n      0x03\n        /* \"tests/bankOwnerTest.sol\":1616:1617  i */\n      dup2\n        /* \"tests/bankOwnerTest.sol\":1616:1621  i < 3 */\n      lt\n        /* \"tests/bankOwnerTest.sol\":1596:1817  for (uint256 i = 0; i < 3; i++) {... */\n      iszero\n      tag_72\n      jumpi\n        /* \"tests/bankOwnerTest.sol\":1655:1659  tops */\n      0x02\n        /* \"tests/bankOwnerTest.sol\":1660:1661  i */\n      dup2\n        /* \"tests/bankOwnerTest.sol\":1655:1662  tops[i] */\n      dup2\n      sload\n      dup2\n      lt\n      tag_74\n      jumpi\n      tag_75\n      tag_63\n      jump\t// in\n    tag_75:\n    tag_74:\n      swap1\n      0x00\n      mstore\n      keccak256(0x00, 0x20)\n      swap1\n      0x02\n      mul\n      add\n        /* \"tests/bankOwnerTest.sol\":1655:1669  tops[i].amount */\n      0x01\n      add\n      sload\n        /* \"tests/bankOwnerTest.sol\":1646:1652  amount */\n      dup3\n        /* \"tests/bankOwnerTest.sol\":1646:1669  amount > tops[i].amount */\n      gt\n        /* \"tests/bankOwnerTest.sol\":1642:1807  if (amount > tops[i].amount) {... */\n      iszero\n      tag_77\n      jumpi\n        /* \"tests/bankOwnerTest.sol\":1699:1730  TopDepositor(depositor, amount) */\n      mload(0x40)\n      dup1\n      0x40\n      add\n      0x40\n      mstore\n      dup1\n        /* \"tests/bankOwnerTest.sol\":1712:1721  depositor */\n      dup5\n        /* \"tests/bankOwnerTest.sol\":1699:1730  TopDepositor(depositor, amount) */\n      0xffffffffffffffffffffffffffffffffffffffff\n      and\n      dup2\n      mstore\n      0x20\n      add\n        /* \"tests/bankOwnerTest.sol\":1723:1729  amount */\n      dup4\n        /* \"tests/bankOwnerTest.sol\":1699:1730  TopDepositor(depositor, amount) */\n      dup2\n      mstore\n      pop\n        /* \"tests/bankOwnerTest.sol\":1689:1693  tops */\n      0x02\n        /* \"tests/bankOwnerTest.sol\":1694:1695  i */\n      dup3\n        /* \"tests/bankOwnerTest.sol\":1689:1696  tops[i] */\n      dup2\n      sload\n      dup2\n      lt\n      tag_78\n      jumpi\n      tag_79\n      tag_63\n      jump\t// in\n    tag_79:\n    tag_78:\n      swap1\n      0x00\n      mstore\n      keccak256(0x00, 0x20)\n      swap1\n      0x02\n      mul\n      add\n        /* \"tests/bankOwnerTest.sol\":1689:1730  tops[i] = TopDepositor(depositor, amount) */\n      0x00\n      dup3\n      add\n      mload\n      dup2\n      0x00\n      add\n      exp(0x0100, 0x00)\n      dup2\n      sload\n      dup2\n      0xffffffffffffffffffffffffffffffffffffffff\n      mul\n      not\n      and\n      swap1\n      dup4\n      0xffffffffffffffffffffffffffffffffffffffff\n      and\n      mul\n      or\n      swap1\n      sstore\n      pop\n      0x20\n      dup3\n      add\n      mload\n      dup2\n      0x01\n      add\n      sstore\n      swap1\n      pop\n      pop\n        /* \"tests/bankOwnerTest.sol\":1748:1768  _sortTopDepositors() */\n      tag_81\n        /* \"tests/bankOwnerTest.sol\":1748:1766  _sortTopDepositors */\n      tag_70\n        /* \"tests/bankOwnerTest.sol\":1748:1768  _sortTopDepositors() */\n      jump\t// in\n    tag_81:\n        /* \"tests/bankOwnerTest.sol\":1786:1793  return; */\n      pop\n      pop\n      jump(tag_57)\n        /* \"tests/bankOwnerTest.sol\":1642:1807  if (amount > tops[i].amount) {... */\n    tag_77:\n        /* \"tests/bankOwnerTest.sol\":1623:1626  i++ */\n      dup1\n      dup1\n      0x01\n      add\n      swap2\n      pop\n      pop\n        /* \"tests/bankOwnerTest.sol\":1596:1817  for (uint256 i = 0; i < 3; i++) {... */\n      jump(tag_71)\n    tag_72:\n      pop\n        /* \"tests/bankOwnerTest.sol\":1326:1823  {... */\n      pop\n        /* \"tests/bankOwnerTest.sol\":1277:1823  function _updateTops(address depositor) internal {... */\n    tag_57:\n      pop\n      jump\t// out\n        /* \"tests/bankOwnerTest.sol\":1030:1127  function getBalances() public view returns (uint256) {... */\n    tag_20:\n        /* \"tests/bankOwnerTest.sol\":1074:1081  uint256 */\n      0x00\n        /* \"tests/bankOwnerTest.sol\":1100:1108  balances */\n      0x01\n        /* \"tests/bankOwnerTest.sol\":1100:1120  balances[msg.sender] */\n      0x00\n        /* \"tests/bankOwnerTest.sol\":1109:1119  msg.sender */\n      caller\n        /* \"tests/bankOwnerTest.sol\":1100:1120  balances[msg.sender] */\n      0xffffffffffffffffffffffffffffffffffffffff\n      and\n      0xffffffffffffffffffffffffffffffffffffffff\n      and\n      dup2\n      mstore\n      0x20\n      add\n      swap1\n      dup2\n      mstore\n      0x20\n      add\n      0x00\n      keccak256\n      sload\n        /* \"tests/bankOwnerTest.sol\":1093:1120  return balances[msg.sender] */\n      swap1\n      pop\n        /* \"tests/bankOwnerTest.sol\":1030:1127  function getBalances() public view returns (uint256) {... */\n      swap1\n      jump\t// out\n        /* \"tests/bankOwnerTest.sol\":312:355  mapping(address => uint256) public balances */\n    tag_27:\n      mstore(0x20, 0x01)\n      dup1\n      0x00\n      mstore\n      keccak256(0x00, 0x40)\n      0x00\n      swap2\n      pop\n      swap1\n      pop\n      sload\n      dup2\n      jump\t// out\n        /* \"tests/bankOwnerTest.sol\":1133:1234  function withdraw(uint256 money) public onlyOwner{... */\n    tag_33:\n        /* \"tests/bankOwnerTest.sol\":268:273  owner */\n      0x00\n      0x00\n      swap1\n      sload\n      swap1\n      0x0100\n      exp\n      swap1\n      div\n      0xffffffffffffffffffffffffffffffffffffffff\n      and\n        /* \"tests/bankOwnerTest.sol\":254:273  msg.sender == owner */\n      0xffffffffffffffffffffffffffffffffffffffff\n      and\n        /* \"tests/bankOwnerTest.sol\":254:264  msg.sender */\n      caller\n        /* \"tests/bankOwnerTest.sol\":254:273  msg.sender == owner */\n      0xffffffffffffffffffffffffffffffffffffffff\n      and\n      eq\n        /* \"tests/bankOwnerTest.sol\":246:288  require(msg.sender == owner, \"Noet owner\") */\n      tag_84\n      jumpi\n      mload(0x40)\n      0x08c379a000000000000000000000000000000000000000000000000000000000\n      dup2\n      mstore\n      0x04\n      add\n      tag_85\n      swap1\n      tag_86\n      jump\t// in\n    tag_85:\n      mload(0x40)\n      dup1\n      swap2\n      sub\n      swap1\n      revert\n    tag_84:\n        /* \"tests/bankOwnerTest.sol\":1200:1210  msg.sender */\n      caller\n        /* \"tests/bankOwnerTest.sol\":1192:1220  payable(msg.sender).transfer */\n      0xffffffffffffffffffffffffffffffffffffffff\n      and\n        /* \"tests/bankOwnerTest.sol\":1192:1227  payable(msg.sender).transfer(money) */\n      0x08fc\n        /* \"tests/bankOwnerTest.sol\":1221:1226  money */\n      dup3\n        /* \"tests/bankOwnerTest.sol\":1192:1227  payable(msg.sender).transfer(money) */\n      swap1\n      dup2\n      iszero\n      mul\n      swap1\n      mload(0x40)\n      0x00\n      mload(0x40)\n      dup1\n      dup4\n      sub\n      dup2\n      dup6\n      dup9\n      dup9\n      call\n      swap4\n      pop\n      pop\n      pop\n      pop\n      iszero\n      dup1\n      iszero\n      tag_89\n      jumpi\n      returndatacopy(0x00, 0x00, returndatasize)\n      revert(0x00, returndatasize)\n    tag_89:\n      pop\n        /* \"tests/bankOwnerTest.sol\":1133:1234  function withdraw(uint256 money) public onlyOwner{... */\n      pop\n      jump\t// out\n        /* \"tests/bankOwnerTest.sol\":1829:1929  function getTopDepositors() public view returns (TopDepositor[] memory) {... */\n    tag_36:\n        /* \"tests/bankOwnerTest.sol\":1878:1899  TopDepositor[] memory */\n      0x60\n        /* \"tests/bankOwnerTest.sol\":1918:1922  tops */\n      0x02\n        /* \"tests/bankOwnerTest.sol\":1911:1922  return tops */\n      dup1\n      sload\n      dup1\n      0x20\n      mul\n      0x20\n      add\n      mload(0x40)\n      swap1\n      dup2\n      add\n      0x40\n      mstore\n      dup1\n      swap3\n      swap2\n      swap1\n      dup2\n      dup2\n      mstore\n      0x20\n      add\n      0x00\n      swap1\n    tag_91:\n      dup3\n      dup3\n      lt\n      iszero\n      tag_92\n      jumpi\n      dup4\n      dup3\n      swap1\n      0x00\n      mstore\n      keccak256(0x00, 0x20)\n      swap1\n      0x02\n      mul\n      add\n      mload(0x40)\n      dup1\n      0x40\n      add\n      0x40\n      mstore\n      swap1\n      dup2\n      0x00\n      dup3\n      add\n      0x00\n      swap1\n      sload\n      swap1\n      0x0100\n      exp\n      swap1\n      div\n      0xffffffffffffffffffffffffffffffffffffffff\n      and\n      0xffffffffffffffffffffffffffffffffffffffff\n      and\n      0xffffffffffffffffffffffffffffffffffffffff\n      and\n      dup2\n      mstore\n      0x20\n      add\n      0x01\n      dup3\n      add\n      sload\n      dup2\n      mstore\n      pop\n      pop\n      dup2\n      mstore\n      0x20\n      add\n      swap1\n      0x01\n      add\n      swap1\n      jump(tag_91)\n    tag_92:\n      pop\n      pop\n      pop\n      pop\n      swap1\n      pop\n        /* \"tests/bankOwnerTest.sol\":1829:1929  function getTopDepositors() public view returns (TopDepositor[] memory) {... */\n      swap1\n      jump\t// out\n        /* \"tests/bankOwnerTest.sol\":700:779  function getOwner() public view returns (address) {... */\n    tag_41:\n        /* \"tests/bankOwnerTest.sol\":741:748  address */\n      0x00\n        /* \"tests/bankOwnerTest.sol\":767:772  owner */\n      0x00\n      0x00\n      swap1\n      sload\n      swap1\n      0x0100\n      exp\n      swap1\n      div\n      0xffffffffffffffffffffffffffffffffffffffff\n      and\n        /* \"tests/bankOwnerTest.sol\":760:772  return owner */\n      swap1\n      pop\n        /* \"tests/bankOwnerTest.sol\":700:779  function getOwner() public view returns (address) {... */\n      swap1\n      jump\t// out\n        /* \"tests/bankOwnerTest.sol\":188:208  address public owner */\n    tag_46:\n      0x00\n      0x00\n      swap1\n      sload\n      swap1\n      0x0100\n      exp\n      swap1\n      div\n      0xffffffffffffffffffffffffffffffffffffffff\n      and\n      dup2\n      jump\t// out\n        /* \"tests/bankOwnerTest.sol\":478:504  TopDepositor[] public tops */\n    tag_51:\n      0x02\n      dup2\n      dup2\n      sload\n      dup2\n      lt\n      tag_95\n      jumpi\n      0x00\n      dup1\n      revert\n    tag_95:\n      swap1\n      0x00\n      mstore\n      keccak256(0x00, 0x20)\n      swap1\n      0x02\n      mul\n      add\n      0x00\n      swap2\n      pop\n      swap1\n      pop\n      dup1\n      0x00\n      add\n      0x00\n      swap1\n      sload\n      swap1\n      0x0100\n      exp\n      swap1\n      div\n      0xffffffffffffffffffffffffffffffffffffffff\n      and\n      swap1\n      dup1\n      0x01\n      add\n      sload\n      swap1\n      pop\n      dup3\n      jump\t// out\n        /* \"tests/bankOwnerTest.sol\":2607:2728  function deposit(uint256 amount) public override  isAllowdDeposit payable {... */\n    tag_56:\n        /* \"tests/bankOwnerTest.sol\":2534:2552  100000000000000000 */\n      0x016345785d8a0000\n        /* \"tests/bankOwnerTest.sol\":2521:2530  msg.value */\n      callvalue\n        /* \"tests/bankOwnerTest.sol\":2521:2552  msg.value >= 100000000000000000 */\n      lt\n      iszero\n        /* \"tests/bankOwnerTest.sol\":2513:2582  require(msg.value >= 100000000000000000 ,\"bigger then 0.1 is allowd\") */\n      tag_98\n      jumpi\n      mload(0x40)\n      0x08c379a000000000000000000000000000000000000000000000000000000000\n      dup2\n      mstore\n      0x04\n      add\n      tag_99\n      swap1\n      tag_100\n      jump\t// in\n    tag_99:\n      mload(0x40)\n      dup1\n      swap2\n      sub\n      swap1\n      revert\n    tag_98:\n        /* \"tests/bankOwnerTest.sol\":2691:2712  super.deposit(amount) */\n      tag_102\n        /* \"tests/bankOwnerTest.sol\":2705:2711  amount */\n      dup2\n        /* \"tests/bankOwnerTest.sol\":2691:2704  super.deposit */\n      tag_103\n        /* \"tests/bankOwnerTest.sol\":2691:2712  super.deposit(amount) */\n      jump\t// in\n    tag_102:\n        /* \"tests/bankOwnerTest.sol\":2607:2728  function deposit(uint256 amount) public override  isAllowdDeposit payable {... */\n      pop\n      jump\t// out\n        /* \"tests/bankOwnerTest.sol\":1935:2301  function _sortTopDepositors() internal {... */\n    tag_70:\n        /* \"tests/bankOwnerTest.sol\":1989:1998  uint256 i */\n      0x00\n        /* \"tests/bankOwnerTest.sol\":2001:2002  0 */\n      0x00\n        /* \"tests/bankOwnerTest.sol\":1989:2002  uint256 i = 0 */\n      swap1\n      pop\n        /* \"tests/bankOwnerTest.sol\":1984:2295  for (uint256 i = 0; i < 2; i++) {... */\n    tag_105:\n        /* \"tests/bankOwnerTest.sol\":2008:2009  2 */\n      0x02\n        /* \"tests/bankOwnerTest.sol\":2004:2005  i */\n      dup2\n        /* \"tests/bankOwnerTest.sol\":2004:2009  i < 2 */\n      lt\n        /* \"tests/bankOwnerTest.sol\":1984:2295  for (uint256 i = 0; i < 2; i++) {... */\n      iszero\n      tag_106\n      jumpi\n        /* \"tests/bankOwnerTest.sol\":2035:2044  uint256 j */\n      0x00\n        /* \"tests/bankOwnerTest.sol\":2051:2052  1 */\n      0x01\n        /* \"tests/bankOwnerTest.sol\":2047:2048  i */\n      dup3\n        /* \"tests/bankOwnerTest.sol\":2047:2052  i + 1 */\n      tag_111\n      swap2\n      swap1\n      tag_15\n      jump\t// in\n    tag_111:\n        /* \"tests/bankOwnerTest.sol\":2035:2052  uint256 j = i + 1 */\n      swap1\n      pop\n        /* \"tests/bankOwnerTest.sol\":2030:2285  for (uint256 j = i + 1; j < 3; j++) {... */\n    tag_108:\n        /* \"tests/bankOwnerTest.sol\":2058:2059  3 */\n      0x03\n        /* \"tests/bankOwnerTest.sol\":2054:2055  j */\n      dup2\n        /* \"tests/bankOwnerTest.sol\":2054:2059  j < 3 */\n      lt\n        /* \"tests/bankOwnerTest.sol\":2030:2285  for (uint256 j = i + 1; j < 3; j++) {... */\n      iszero\n      tag_109\n      jumpi\n        /* \"tests/bankOwnerTest.sol\":2105:2109  tops */\n      0x02\n        /* \"tests/bankOwnerTest.sol\":2110:2111  i */\n      dup3\n        /* \"tests/bankOwnerTest.sol\":2105:2112  tops[i] */\n      dup2\n      sload\n      dup2\n      lt\n      tag_112\n      jumpi\n      tag_113\n      tag_63\n      jump\t// in\n    tag_113:\n    tag_112:\n      swap1\n      0x00\n      mstore\n      keccak256(0x00, 0x20)\n      swap1\n      0x02\n      mul\n      add\n        /* \"tests/bankOwnerTest.sol\":2105:2119  tops[i].amount */\n      0x01\n      add\n      sload\n        /* \"tests/bankOwnerTest.sol\":2088:2092  tops */\n      0x02\n        /* \"tests/bankOwnerTest.sol\":2093:2094  j */\n      dup3\n        /* \"tests/bankOwnerTest.sol\":2088:2095  tops[j] */\n      dup2\n      sload\n      dup2\n      lt\n      tag_115\n      jumpi\n      tag_116\n      tag_63\n      jump\t// in\n    tag_116:\n    tag_115:\n      swap1\n      0x00\n      mstore\n      keccak256(0x00, 0x20)\n      swap1\n      0x02\n      mul\n      add\n        /* \"tests/bankOwnerTest.sol\":2088:2102  tops[j].amount */\n      0x01\n      add\n      sload\n        /* \"tests/bankOwnerTest.sol\":2088:2119  tops[j].amount > tops[i].amount */\n      gt\n        /* \"tests/bankOwnerTest.sol\":2084:2271  if (tops[j].amount > tops[i].amount) {... */\n      iszero\n      tag_118\n      jumpi\n        /* \"tests/bankOwnerTest.sol\":2143:2167  TopDepositor memory temp */\n      0x00\n        /* \"tests/bankOwnerTest.sol\":2170:2174  tops */\n      0x02\n        /* \"tests/bankOwnerTest.sol\":2175:2176  i */\n      dup4\n        /* \"tests/bankOwnerTest.sol\":2170:2177  tops[i] */\n      dup2\n      sload\n      dup2\n      lt\n      tag_119\n      jumpi\n      tag_120\n      tag_63\n      jump\t// in\n    tag_120:\n    tag_119:\n      swap1\n      0x00\n      mstore\n      keccak256(0x00, 0x20)\n      swap1\n      0x02\n      mul\n      add\n        /* \"tests/bankOwnerTest.sol\":2143:2177  TopDepositor memory temp = tops[i] */\n      mload(0x40)\n      dup1\n      0x40\n      add\n      0x40\n      mstore\n      swap1\n      dup2\n      0x00\n      dup3\n      add\n      0x00\n      swap1\n      sload\n      swap1\n      0x0100\n      exp\n      swap1\n      div\n      0xffffffffffffffffffffffffffffffffffffffff\n      and\n      0xffffffffffffffffffffffffffffffffffffffff\n      and\n      0xffffffffffffffffffffffffffffffffffffffff\n      and\n      dup2\n      mstore\n      0x20\n      add\n      0x01\n      dup3\n      add\n      sload\n      dup2\n      mstore\n      pop\n      pop\n      swap1\n      pop\n        /* \"tests/bankOwnerTest.sol\":2209:2213  tops */\n      0x02\n        /* \"tests/bankOwnerTest.sol\":2214:2215  j */\n      dup3\n        /* \"tests/bankOwnerTest.sol\":2209:2216  tops[j] */\n      dup2\n      sload\n      dup2\n      lt\n      tag_122\n      jumpi\n      tag_123\n      tag_63\n      jump\t// in\n    tag_123:\n    tag_122:\n      swap1\n      0x00\n      mstore\n      keccak256(0x00, 0x20)\n      swap1\n      0x02\n      mul\n      add\n        /* \"tests/bankOwnerTest.sol\":2199:2203  tops */\n      0x02\n        /* \"tests/bankOwnerTest.sol\":2204:2205  i */\n      dup5\n        /* \"tests/bankOwnerTest.sol\":2199:2206  tops[i] */\n      dup2\n      sload\n      dup2\n      lt\n      tag_125\n      jumpi\n      tag_126\n      tag_63\n      jump\t// in\n    tag_126:\n    tag_125:\n      swap1\n      0x00\n      mstore\n      keccak256(0x00, 0x20)\n      swap1\n      0x02\n      mul\n      add\n        /* \"tests/bankOwnerTest.sol\":2199:2216  tops[i] = tops[j] */\n      0x00\n      dup3\n      add\n      0x00\n      swap1\n      sload\n      swap1\n      0x0100\n      exp\n      swap1\n      div\n      0xffffffffffffffffffffffffffffffffffffffff\n      and\n      dup2\n      0x00\n      add\n      exp(0x0100, 0x00)\n      dup2\n      sload\n      dup2\n      0xffffffffffffffffffffffffffffffffffffffff\n      mul\n      not\n      and\n      swap1\n      dup4\n      0xffffffffffffffffffffffffffffffffffffffff\n      and\n      mul\n      or\n      swap1\n      sstore\n      pop\n      0x01\n      dup3\n      add\n      sload\n      dup2\n      0x01\n      add\n      sstore\n      swap1\n      pop\n      pop\n        /* \"tests/bankOwnerTest.sol\":2248:2252  temp */\n      dup1\n        /* \"tests/bankOwnerTest.sol\":2238:2242  tops */\n      0x02\n        /* \"tests/bankOwnerTest.sol\":2243:2244  j */\n      dup4\n        /* \"tests/bankOwnerTest.sol\":2238:2245  tops[j] */\n      dup2\n      sload\n      dup2\n      lt\n      tag_128\n      jumpi\n      tag_129\n      tag_63\n      jump\t// in\n    tag_129:\n    tag_128:\n      swap1\n      0x00\n      mstore\n      keccak256(0x00, 0x20)\n      swap1\n      0x02\n      mul\n      add\n        /* \"tests/bankOwnerTest.sol\":2238:2252  tops[j] = temp */\n      0x00\n      dup3\n      add\n      mload\n      dup2\n      0x00\n      add\n      exp(0x0100, 0x00)\n      dup2\n      sload\n      dup2\n      0xffffffffffffffffffffffffffffffffffffffff\n      mul\n      not\n      and\n      swap1\n      dup4\n      0xffffffffffffffffffffffffffffffffffffffff\n      and\n      mul\n      or\n      swap1\n      sstore\n      pop\n      0x20\n      dup3\n      add\n      mload\n      dup2\n      0x01\n      add\n      sstore\n      swap1\n      pop\n      pop\n        /* \"tests/bankOwnerTest.sol\":2121:2271  {... */\n      pop\n        /* \"tests/bankOwnerTest.sol\":2084:2271  if (tops[j].amount > tops[i].amount) {... */\n    tag_118:\n        /* \"tests/bankOwnerTest.sol\":2061:2064  j++ */\n      dup1\n      dup1\n      0x01\n      add\n      swap2\n      pop\n      pop\n        /* \"tests/bankOwnerTest.sol\":2030:2285  for (uint256 j = i + 1; j < 3; j++) {... */\n      jump(tag_108)\n    tag_109:\n      pop\n        /* \"tests/bankOwnerTest.sol\":2011:2014  i++ */\n      dup1\n      dup1\n      0x01\n      add\n      swap2\n      pop\n      pop\n        /* \"tests/bankOwnerTest.sol\":1984:2295  for (uint256 i = 0; i < 2; i++) {... */\n      jump(tag_105)\n    tag_106:\n      pop\n        /* \"tests/bankOwnerTest.sol\":1935:2301  function _sortTopDepositors() internal {... */\n      jump\t// out\n        /* \"tests/bankOwnerTest.sol\":785:1024  function deposit(uint256 amount) public virtual  payable {... */\n    tag_103:\n        /* \"tests/bankOwnerTest.sol\":873:879  amount */\n      dup1\n        /* \"tests/bankOwnerTest.sol\":860:869  msg.value */\n      callvalue\n        /* \"tests/bankOwnerTest.sol\":860:879  msg.value == amount */\n      eq\n        /* \"tests/bankOwnerTest.sol\":852:915  require(msg.value == amount, \"Amount mismatch with value sent\") */\n      tag_132\n      jumpi\n      mload(0x40)\n      0x08c379a000000000000000000000000000000000000000000000000000000000\n      dup2\n      mstore\n      0x04\n      add\n      tag_133\n      swap1\n      tag_134\n      jump\t// in\n    tag_133:\n      mload(0x40)\n      dup1\n      swap2\n      sub\n      swap1\n      revert\n    tag_132:\n        /* \"tests/bankOwnerTest.sol\":949:958  msg.value */\n      callvalue\n        /* \"tests/bankOwnerTest.sol\":925:933  balances */\n      0x01\n        /* \"tests/bankOwnerTest.sol\":925:945  balances[msg.sender] */\n      0x00\n        /* \"tests/bankOwnerTest.sol\":934:944  msg.sender */\n      caller\n        /* \"tests/bankOwnerTest.sol\":925:945  balances[msg.sender] */\n      0xffffffffffffffffffffffffffffffffffffffff\n      and\n      0xffffffffffffffffffffffffffffffffffffffff\n      and\n      dup2\n      mstore\n      0x20\n      add\n      swap1\n      dup2\n      mstore\n      0x20\n      add\n      0x00\n      keccak256\n      0x00\n        /* \"tests/bankOwnerTest.sol\":925:958  balances[msg.sender] += msg.value */\n      dup3\n      dup3\n      sload\n      tag_135\n      swap2\n      swap1\n      tag_15\n      jump\t// in\n    tag_135:\n      swap3\n      pop\n      pop\n      dup2\n      swap1\n      sstore\n      pop\n        /* \"tests/bankOwnerTest.sol\":994:1017  _updateTops(msg.sender) */\n      tag_136\n        /* \"tests/bankOwnerTest.sol\":1006:1016  msg.sender */\n      caller\n        /* \"tests/bankOwnerTest.sol\":994:1005  _updateTops */\n      tag_17\n        /* \"tests/bankOwnerTest.sol\":994:1017  _updateTops(msg.sender) */\n      jump\t// in\n    tag_136:\n        /* \"tests/bankOwnerTest.sol\":785:1024  function deposit(uint256 amount) public virtual  payable {... */\n      pop\n      jump\t// out\n        /* \"#utility.yul\":7:84   */\n    tag_137:\n        /* \"#utility.yul\":44:51   */\n      0x00\n        /* \"#utility.yul\":73:78   */\n      dup2\n        /* \"#utility.yul\":62:78   */\n      swap1\n      pop\n        /* \"#utility.yul\":7:84   */\n      swap2\n      swap1\n      pop\n      jump\t// out\n        /* \"#utility.yul\":90:270   */\n    tag_138:\n        /* \"#utility.yul\":138:215   */\n      0x4e487b7100000000000000000000000000000000000000000000000000000000\n        /* \"#utility.yul\":135:136   */\n      0x00\n        /* \"#utility.yul\":128:216   */\n      mstore\n        /* \"#utility.yul\":235:239   */\n      0x11\n        /* \"#utility.yul\":232:233   */\n      0x04\n        /* \"#utility.yul\":225:240   */\n      mstore\n        /* \"#utility.yul\":259:263   */\n      0x24\n        /* \"#utility.yul\":256:257   */\n      0x00\n        /* \"#utility.yul\":249:264   */\n      revert\n        /* \"#utility.yul\":276:467   */\n    tag_15:\n        /* \"#utility.yul\":316:319   */\n      0x00\n        /* \"#utility.yul\":335:355   */\n      tag_170\n        /* \"#utility.yul\":353:354   */\n      dup3\n        /* \"#utility.yul\":335:355   */\n      tag_137\n      jump\t// in\n    tag_170:\n        /* \"#utility.yul\":330:355   */\n      swap2\n      pop\n        /* \"#utility.yul\":369:389   */\n      tag_171\n        /* \"#utility.yul\":387:388   */\n      dup4\n        /* \"#utility.yul\":369:389   */\n      tag_137\n      jump\t// in\n    tag_171:\n        /* \"#utility.yul\":364:389   */\n      swap3\n      pop\n        /* \"#utility.yul\":412:413   */\n      dup3\n        /* \"#utility.yul\":409:410   */\n      dup3\n        /* \"#utility.yul\":405:414   */\n      add\n        /* \"#utility.yul\":398:414   */\n      swap1\n      pop\n        /* \"#utility.yul\":433:436   */\n      dup1\n        /* \"#utility.yul\":430:431   */\n      dup3\n        /* \"#utility.yul\":427:437   */\n      gt\n        /* \"#utility.yul\":424:460   */\n      iszero\n      tag_172\n      jumpi\n        /* \"#utility.yul\":440:458   */\n      tag_173\n      tag_138\n      jump\t// in\n    tag_173:\n        /* \"#utility.yul\":424:460   */\n    tag_172:\n        /* \"#utility.yul\":276:467   */\n      swap3\n      swap2\n      pop\n      pop\n      jump\t// out\n        /* \"#utility.yul\":473:591   */\n    tag_139:\n        /* \"#utility.yul\":560:584   */\n      tag_175\n        /* \"#utility.yul\":578:583   */\n      dup2\n        /* \"#utility.yul\":560:584   */\n      tag_137\n      jump\t// in\n    tag_175:\n        /* \"#utility.yul\":555:558   */\n      dup3\n        /* \"#utility.yul\":548:585   */\n      mstore\n        /* \"#utility.yul\":473:591   */\n      pop\n      pop\n      jump\t// out\n        /* \"#utility.yul\":597:819   */\n    tag_22:\n        /* \"#utility.yul\":690:694   */\n      0x00\n        /* \"#utility.yul\":728:730   */\n      0x20\n        /* \"#utility.yul\":717:726   */\n      dup3\n        /* \"#utility.yul\":713:731   */\n      add\n        /* \"#utility.yul\":705:731   */\n      swap1\n      pop\n        /* \"#utility.yul\":741:812   */\n      tag_177\n        /* \"#utility.yul\":809:810   */\n      0x00\n        /* \"#utility.yul\":798:807   */\n      dup4\n        /* \"#utility.yul\":794:811   */\n      add\n        /* \"#utility.yul\":785:791   */\n      dup5\n        /* \"#utility.yul\":741:812   */\n      tag_139\n      jump\t// in\n    tag_177:\n        /* \"#utility.yul\":597:819   */\n      swap3\n      swap2\n      pop\n      pop\n      jump\t// out\n        /* \"#utility.yul\":906:1023   */\n    tag_141:\n        /* \"#utility.yul\":1015:1016   */\n      0x00\n        /* \"#utility.yul\":1012:1013   */\n      0x00\n        /* \"#utility.yul\":1005:1017   */\n      revert\n        /* \"#utility.yul\":1152:1278   */\n    tag_143:\n        /* \"#utility.yul\":1189:1196   */\n      0x00\n        /* \"#utility.yul\":1229:1271   */\n      0xffffffffffffffffffffffffffffffffffffffff\n        /* \"#utility.yul\":1222:1227   */\n      dup3\n        /* \"#utility.yul\":1218:1272   */\n      and\n        /* \"#utility.yul\":1207:1272   */\n      swap1\n      pop\n        /* \"#utility.yul\":1152:1278   */\n      swap2\n      swap1\n      pop\n      jump\t// out\n        /* \"#utility.yul\":1284:1380   */\n    tag_144:\n        /* \"#utility.yul\":1321:1328   */\n      0x00\n        /* \"#utility.yul\":1350:1374   */\n      tag_183\n        /* \"#utility.yul\":1368:1373   */\n      dup3\n        /* \"#utility.yul\":1350:1374   */\n      tag_143\n      jump\t// in\n    tag_183:\n        /* \"#utility.yul\":1339:1374   */\n      swap1\n      pop\n        /* \"#utility.yul\":1284:1380   */\n      swap2\n      swap1\n      pop\n      jump\t// out\n        /* \"#utility.yul\":1386:1508   */\n    tag_145:\n        /* \"#utility.yul\":1459:1483   */\n      tag_185\n        /* \"#utility.yul\":1477:1482   */\n      dup2\n        /* \"#utility.yul\":1459:1483   */\n      tag_144\n      jump\t// in\n    tag_185:\n        /* \"#utility.yul\":1452:1457   */\n      dup2\n        /* \"#utility.yul\":1449:1484   */\n      eq\n        /* \"#utility.yul\":1439:1502   */\n      tag_186\n      jumpi\n        /* \"#utility.yul\":1498:1499   */\n      0x00\n        /* \"#utility.yul\":1495:1496   */\n      0x00\n        /* \"#utility.yul\":1488:1500   */\n      revert\n        /* \"#utility.yul\":1439:1502   */\n    tag_186:\n        /* \"#utility.yul\":1386:1508   */\n      pop\n      jump\t// out\n        /* \"#utility.yul\":1514:1653   */\n    tag_146:\n        /* \"#utility.yul\":1560:1565   */\n      0x00\n        /* \"#utility.yul\":1598:1604   */\n      dup2\n        /* \"#utility.yul\":1585:1605   */\n      calldataload\n        /* \"#utility.yul\":1576:1605   */\n      swap1\n      pop\n        /* \"#utility.yul\":1614:1647   */\n      tag_188\n        /* \"#utility.yul\":1641:1646   */\n      dup2\n        /* \"#utility.yul\":1614:1647   */\n      tag_145\n      jump\t// in\n    tag_188:\n        /* \"#utility.yul\":1514:1653   */\n      swap3\n      swap2\n      pop\n      pop\n      jump\t// out\n        /* \"#utility.yul\":1659:1988   */\n    tag_26:\n        /* \"#utility.yul\":1718:1724   */\n      0x00\n        /* \"#utility.yul\":1767:1769   */\n      0x20\n        /* \"#utility.yul\":1755:1764   */\n      dup3\n        /* \"#utility.yul\":1746:1753   */\n      dup5\n        /* \"#utility.yul\":1742:1765   */\n      sub\n        /* \"#utility.yul\":1738:1770   */\n      slt\n        /* \"#utility.yul\":1735:1854   */\n      iszero\n      tag_190\n      jumpi\n        /* \"#utility.yul\":1773:1852   */\n      tag_191\n      tag_141\n      jump\t// in\n    tag_191:\n        /* \"#utility.yul\":1735:1854   */\n    tag_190:\n        /* \"#utility.yul\":1893:1894   */\n      0x00\n        /* \"#utility.yul\":1918:1971   */\n      tag_192\n        /* \"#utility.yul\":1963:1970   */\n      dup5\n        /* \"#utility.yul\":1954:1960   */\n      dup3\n        /* \"#utility.yul\":1943:1952   */\n      dup6\n        /* \"#utility.yul\":1939:1961   */\n      add\n        /* \"#utility.yul\":1918:1971   */\n      tag_146\n      jump\t// in\n    tag_192:\n        /* \"#utility.yul\":1908:1971   */\n      swap2\n      pop\n        /* \"#utility.yul\":1864:1981   */\n      pop\n        /* \"#utility.yul\":1659:1988   */\n      swap3\n      swap2\n      pop\n      pop\n      jump\t// out\n        /* \"#utility.yul\":1994:2116   */\n    tag_147:\n        /* \"#utility.yul\":2067:2091   */\n      tag_194\n        /* \"#utility.yul\":2085:2090   */\n      dup2\n        /* \"#utility.yul\":2067:2091   */\n      tag_137\n      jump\t// in\n    tag_194:\n        /* \"#utility.yul\":2060:2065   */\n      dup2\n        /* \"#utility.yul\":2057:2092   */\n      eq\n        /* \"#utility.yul\":2047:2110   */\n      tag_195\n      jumpi\n        /* \"#utility.yul\":2106:2107   */\n      0x00\n        /* \"#utility.yul\":2103:2104   */\n      0x00\n        /* \"#utility.yul\":2096:2108   */\n      revert\n        /* \"#utility.yul\":2047:2110   */\n    tag_195:\n        /* \"#utility.yul\":1994:2116   */\n      pop\n      jump\t// out\n        /* \"#utility.yul\":2122:2261   */\n    tag_148:\n        /* \"#utility.yul\":2168:2173   */\n      0x00\n        /* \"#utility.yul\":2206:2212   */\n      dup2\n        /* \"#utility.yul\":2193:2213   */\n      calldataload\n        /* \"#utility.yul\":2184:2213   */\n      swap1\n      pop\n        /* \"#utility.yul\":2222:2255   */\n      tag_197\n        /* \"#utility.yul\":2249:2254   */\n      dup2\n        /* \"#utility.yul\":2222:2255   */\n      tag_147\n      jump\t// in\n    tag_197:\n        /* \"#utility.yul\":2122:2261   */\n      swap3\n      swap2\n      pop\n      pop\n      jump\t// out\n        /* \"#utility.yul\":2267:2596   */\n    tag_32:\n        /* \"#utility.yul\":2326:2332   */\n      0x00\n        /* \"#utility.yul\":2375:2377   */\n      0x20\n        /* \"#utility.yul\":2363:2372   */\n      dup3\n        /* \"#utility.yul\":2354:2361   */\n      dup5\n        /* \"#utility.yul\":2350:2373   */\n      sub\n        /* \"#utility.yul\":2346:2378   */\n      slt\n        /* \"#utility.yul\":2343:2462   */\n      iszero\n      tag_199\n      jumpi\n        /* \"#utility.yul\":2381:2460   */\n      tag_200\n      tag_141\n      jump\t// in\n    tag_200:\n        /* \"#utility.yul\":2343:2462   */\n    tag_199:\n        /* \"#utility.yul\":2501:2502   */\n      0x00\n        /* \"#utility.yul\":2526:2579   */\n      tag_201\n        /* \"#utility.yul\":2571:2578   */\n      dup5\n        /* \"#utility.yul\":2562:2568   */\n      dup3\n        /* \"#utility.yul\":2551:2560   */\n      dup6\n        /* \"#utility.yul\":2547:2569   */\n      add\n        /* \"#utility.yul\":2526:2579   */\n      tag_148\n      jump\t// in\n    tag_201:\n        /* \"#utility.yul\":2516:2579   */\n      swap2\n      pop\n        /* \"#utility.yul\":2472:2589   */\n      pop\n        /* \"#utility.yul\":2267:2596   */\n      swap3\n      swap2\n      pop\n      pop\n      jump\t// out\n        /* \"#utility.yul\":2602:2744   */\n    tag_149:\n        /* \"#utility.yul\":2697:2703   */\n      0x00\n        /* \"#utility.yul\":2731:2736   */\n      dup2\n        /* \"#utility.yul\":2725:2737   */\n      mload\n        /* \"#utility.yul\":2715:2737   */\n      swap1\n      pop\n        /* \"#utility.yul\":2602:2744   */\n      swap2\n      swap1\n      pop\n      jump\t// out\n        /* \"#utility.yul\":2750:2962   */\n    tag_150:\n        /* \"#utility.yul\":2877:2888   */\n      0x00\n        /* \"#utility.yul\":2911:2917   */\n      dup3\n        /* \"#utility.yul\":2906:2909   */\n      dup3\n        /* \"#utility.yul\":2899:2918   */\n      mstore\n        /* \"#utility.yul\":2951:2955   */\n      0x20\n        /* \"#utility.yul\":2946:2949   */\n      dup3\n        /* \"#utility.yul\":2942:2956   */\n      add\n        /* \"#utility.yul\":2927:2956   */\n      swap1\n      pop\n        /* \"#utility.yul\":2750:2962   */\n      swap3\n      swap2\n      pop\n      pop\n      jump\t// out\n        /* \"#utility.yul\":2968:3128   */\n    tag_151:\n        /* \"#utility.yul\":3063:3067   */\n      0x00\n        /* \"#utility.yul\":3086:3089   */\n      dup2\n        /* \"#utility.yul\":3078:3089   */\n      swap1\n      pop\n        /* \"#utility.yul\":3116:3120   */\n      0x20\n        /* \"#utility.yul\":3111:3114   */\n      dup3\n        /* \"#utility.yul\":3107:3121   */\n      add\n        /* \"#utility.yul\":3099:3121   */\n      swap1\n      pop\n        /* \"#utility.yul\":2968:3128   */\n      swap2\n      swap1\n      pop\n      jump\t// out\n        /* \"#utility.yul\":3134:3242   */\n    tag_152:\n        /* \"#utility.yul\":3211:3235   */\n      tag_206\n        /* \"#utility.yul\":3229:3234   */\n      dup2\n        /* \"#utility.yul\":3211:3235   */\n      tag_144\n      jump\t// in\n    tag_206:\n        /* \"#utility.yul\":3206:3209   */\n      dup3\n        /* \"#utility.yul\":3199:3236   */\n      mstore\n        /* \"#utility.yul\":3134:3242   */\n      pop\n      pop\n      jump\t// out\n        /* \"#utility.yul\":3248:3356   */\n    tag_153:\n        /* \"#utility.yul\":3325:3349   */\n      tag_208\n        /* \"#utility.yul\":3343:3348   */\n      dup2\n        /* \"#utility.yul\":3325:3349   */\n      tag_137\n      jump\t// in\n    tag_208:\n        /* \"#utility.yul\":3320:3323   */\n      dup3\n        /* \"#utility.yul\":3313:3350   */\n      mstore\n        /* \"#utility.yul\":3248:3356   */\n      pop\n      pop\n      jump\t// out\n        /* \"#utility.yul\":3422:3927   */\n    tag_154:\n        /* \"#utility.yul\":3565:3569   */\n      0x40\n        /* \"#utility.yul\":3560:3563   */\n      dup3\n        /* \"#utility.yul\":3556:3570   */\n      add\n        /* \"#utility.yul\":3652:3656   */\n      0x00\n        /* \"#utility.yul\":3645:3650   */\n      dup3\n        /* \"#utility.yul\":3641:3657   */\n      add\n        /* \"#utility.yul\":3635:3658   */\n      mload\n        /* \"#utility.yul\":3671:3734   */\n      tag_210\n        /* \"#utility.yul\":3728:3732   */\n      0x00\n        /* \"#utility.yul\":3723:3726   */\n      dup6\n        /* \"#utility.yul\":3719:3733   */\n      add\n        /* \"#utility.yul\":3705:3717   */\n      dup3\n        /* \"#utility.yul\":3671:3734   */\n      tag_152\n      jump\t// in\n    tag_210:\n        /* \"#utility.yul\":3580:3744   */\n      pop\n        /* \"#utility.yul\":3828:3832   */\n      0x20\n        /* \"#utility.yul\":3821:3826   */\n      dup3\n        /* \"#utility.yul\":3817:3833   */\n      add\n        /* \"#utility.yul\":3811:3834   */\n      mload\n        /* \"#utility.yul\":3847:3910   */\n      tag_211\n        /* \"#utility.yul\":3904:3908   */\n      0x20\n        /* \"#utility.yul\":3899:3902   */\n      dup6\n        /* \"#utility.yul\":3895:3909   */\n      add\n        /* \"#utility.yul\":3881:3893   */\n      dup3\n        /* \"#utility.yul\":3847:3910   */\n      tag_153\n      jump\t// in\n    tag_211:\n        /* \"#utility.yul\":3754:3920   */\n      pop\n        /* \"#utility.yul\":3534:3927   */\n      pop\n        /* \"#utility.yul\":3422:3927   */\n      pop\n      pop\n      jump\t// out\n        /* \"#utility.yul\":3933:4224   */\n    tag_155:\n        /* \"#utility.yul\":4058:4068   */\n      0x00\n        /* \"#utility.yul\":4079:4181   */\n      tag_213\n        /* \"#utility.yul\":4177:4180   */\n      dup4\n        /* \"#utility.yul\":4169:4175   */\n      dup4\n        /* \"#utility.yul\":4079:4181   */\n      tag_154\n      jump\t// in\n    tag_213:\n        /* \"#utility.yul\":4213:4217   */\n      0x40\n        /* \"#utility.yul\":4208:4211   */\n      dup4\n        /* \"#utility.yul\":4204:4218   */\n      add\n        /* \"#utility.yul\":4190:4218   */\n      swap1\n      pop\n        /* \"#utility.yul\":3933:4224   */\n      swap3\n      swap2\n      pop\n      pop\n      jump\t// out\n        /* \"#utility.yul\":4230:4371   */\n    tag_156:\n        /* \"#utility.yul\":4328:4332   */\n      0x00\n        /* \"#utility.yul\":4360:4364   */\n      0x20\n        /* \"#utility.yul\":4355:4358   */\n      dup3\n        /* \"#utility.yul\":4351:4365   */\n      add\n        /* \"#utility.yul\":4343:4365   */\n      swap1\n      pop\n        /* \"#utility.yul\":4230:4371   */\n      swap2\n      swap1\n      pop\n      jump\t// out\n        /* \"#utility.yul\":4441:5397   */\n    tag_157:\n        /* \"#utility.yul\":4616:4619   */\n      0x00\n        /* \"#utility.yul\":4645:4727   */\n      tag_216\n        /* \"#utility.yul\":4721:4726   */\n      dup3\n        /* \"#utility.yul\":4645:4727   */\n      tag_149\n      jump\t// in\n    tag_216:\n        /* \"#utility.yul\":4743:4857   */\n      tag_217\n        /* \"#utility.yul\":4850:4856   */\n      dup2\n        /* \"#utility.yul\":4845:4848   */\n      dup6\n        /* \"#utility.yul\":4743:4857   */\n      tag_150\n      jump\t// in\n    tag_217:\n        /* \"#utility.yul\":4736:4857   */\n      swap4\n      pop\n        /* \"#utility.yul\":4881:4965   */\n      tag_218\n        /* \"#utility.yul\":4959:4964   */\n      dup4\n        /* \"#utility.yul\":4881:4965   */\n      tag_151\n      jump\t// in\n    tag_218:\n        /* \"#utility.yul\":4988:4995   */\n      dup1\n        /* \"#utility.yul\":5019:5020   */\n      0x00\n        /* \"#utility.yul\":5004:5372   */\n    tag_219:\n        /* \"#utility.yul\":5029:5035   */\n      dup4\n        /* \"#utility.yul\":5026:5027   */\n      dup2\n        /* \"#utility.yul\":5023:5036   */\n      lt\n        /* \"#utility.yul\":5004:5372   */\n      iszero\n      tag_221\n      jumpi\n        /* \"#utility.yul\":5105:5111   */\n      dup2\n        /* \"#utility.yul\":5099:5112   */\n      mload\n        /* \"#utility.yul\":5132:5251   */\n      tag_222\n        /* \"#utility.yul\":5247:5250   */\n      dup9\n        /* \"#utility.yul\":5232:5245   */\n      dup3\n        /* \"#utility.yul\":5132:5251   */\n      tag_155\n      jump\t// in\n    tag_222:\n        /* \"#utility.yul\":5125:5251   */\n      swap8\n      pop\n        /* \"#utility.yul\":5274:5362   */\n      tag_223\n        /* \"#utility.yul\":5355:5361   */\n      dup4\n        /* \"#utility.yul\":5274:5362   */\n      tag_156\n      jump\t// in\n    tag_223:\n        /* \"#utility.yul\":5264:5362   */\n      swap3\n      pop\n        /* \"#utility.yul\":5064:5372   */\n      pop\n        /* \"#utility.yul\":5051:5052   */\n      0x01\n        /* \"#utility.yul\":5048:5049   */\n      dup2\n        /* \"#utility.yul\":5044:5053   */\n      add\n        /* \"#utility.yul\":5039:5053   */\n      swap1\n      pop\n        /* \"#utility.yul\":5004:5372   */\n      jump(tag_219)\n    tag_221:\n        /* \"#utility.yul\":5008:5022   */\n      pop\n        /* \"#utility.yul\":5388:5391   */\n      dup6\n        /* \"#utility.yul\":5381:5391   */\n      swap4\n      pop\n        /* \"#utility.yul\":4621:5397   */\n      pop\n      pop\n      pop\n        /* \"#utility.yul\":4441:5397   */\n      swap3\n      swap2\n      pop\n      pop\n      jump\t// out\n        /* \"#utility.yul\":5403:5888   */\n    tag_38:\n        /* \"#utility.yul\":5602:5606   */\n      0x00\n        /* \"#utility.yul\":5640:5642   */\n      0x20\n        /* \"#utility.yul\":5629:5638   */\n      dup3\n        /* \"#utility.yul\":5625:5643   */\n      add\n        /* \"#utility.yul\":5617:5643   */\n      swap1\n      pop\n        /* \"#utility.yul\":5689:5698   */\n      dup2\n        /* \"#utility.yul\":5683:5687   */\n      dup2\n        /* \"#utility.yul\":5679:5699   */\n      sub\n        /* \"#utility.yul\":5675:5676   */\n      0x00\n        /* \"#utility.yul\":5664:5673   */\n      dup4\n        /* \"#utility.yul\":5660:5677   */\n      add\n        /* \"#utility.yul\":5653:5700   */\n      mstore\n        /* \"#utility.yul\":5717:5881   */\n      tag_225\n        /* \"#utility.yul\":5876:5880   */\n      dup2\n        /* \"#utility.yul\":5867:5873   */\n      dup5\n        /* \"#utility.yul\":5717:5881   */\n      tag_157\n      jump\t// in\n    tag_225:\n        /* \"#utility.yul\":5709:5881   */\n      swap1\n      pop\n        /* \"#utility.yul\":5403:5888   */\n      swap3\n      swap2\n      pop\n      pop\n      jump\t// out\n        /* \"#utility.yul\":5894:6012   */\n    tag_158:\n        /* \"#utility.yul\":5981:6005   */\n      tag_227\n        /* \"#utility.yul\":5999:6004   */\n      dup2\n        /* \"#utility.yul\":5981:6005   */\n      tag_144\n      jump\t// in\n    tag_227:\n        /* \"#utility.yul\":5976:5979   */\n      dup3\n        /* \"#utility.yul\":5969:6006   */\n      mstore\n        /* \"#utility.yul\":5894:6012   */\n      pop\n      pop\n      jump\t// out\n        /* \"#utility.yul\":6018:6240   */\n    tag_43:\n        /* \"#utility.yul\":6111:6115   */\n      0x00\n        /* \"#utility.yul\":6149:6151   */\n      0x20\n        /* \"#utility.yul\":6138:6147   */\n      dup3\n        /* \"#utility.yul\":6134:6152   */\n      add\n        /* \"#utility.yul\":6126:6152   */\n      swap1\n      pop\n        /* \"#utility.yul\":6162:6233   */\n      tag_229\n        /* \"#utility.yul\":6230:6231   */\n      0x00\n        /* \"#utility.yul\":6219:6228   */\n      dup4\n        /* \"#utility.yul\":6215:6232   */\n      add\n        /* \"#utility.yul\":6206:6212   */\n      dup5\n        /* \"#utility.yul\":6162:6233   */\n      tag_158\n      jump\t// in\n    tag_229:\n        /* \"#utility.yul\":6018:6240   */\n      swap3\n      swap2\n      pop\n      pop\n      jump\t// out\n        /* \"#utility.yul\":6246:6578   */\n    tag_53:\n        /* \"#utility.yul\":6367:6371   */\n      0x00\n        /* \"#utility.yul\":6405:6407   */\n      0x40\n        /* \"#utility.yul\":6394:6403   */\n      dup3\n        /* \"#utility.yul\":6390:6408   */\n      add\n        /* \"#utility.yul\":6382:6408   */\n      swap1\n      pop\n        /* \"#utility.yul\":6418:6489   */\n      tag_231\n        /* \"#utility.yul\":6486:6487   */\n      0x00\n        /* \"#utility.yul\":6475:6484   */\n      dup4\n        /* \"#utility.yul\":6471:6488   */\n      add\n        /* \"#utility.yul\":6462:6468   */\n      dup6\n        /* \"#utility.yul\":6418:6489   */\n      tag_158\n      jump\t// in\n    tag_231:\n        /* \"#utility.yul\":6499:6571   */\n      tag_232\n        /* \"#utility.yul\":6567:6569   */\n      0x20\n        /* \"#utility.yul\":6556:6565   */\n      dup4\n        /* \"#utility.yul\":6552:6570   */\n      add\n        /* \"#utility.yul\":6543:6549   */\n      dup5\n        /* \"#utility.yul\":6499:6571   */\n      tag_139\n      jump\t// in\n    tag_232:\n        /* \"#utility.yul\":6246:6578   */\n      swap4\n      swap3\n      pop\n      pop\n      pop\n      jump\t// out\n        /* \"#utility.yul\":6584:6764   */\n    tag_63:\n        /* \"#utility.yul\":6632:6709   */\n      0x4e487b7100000000000000000000000000000000000000000000000000000000\n        /* \"#utility.yul\":6629:6630   */\n      0x00\n        /* \"#utility.yul\":6622:6710   */\n      mstore\n        /* \"#utility.yul\":6729:6733   */\n      0x32\n        /* \"#utility.yul\":6726:6727   */\n      0x04\n        /* \"#utility.yul\":6719:6734   */\n      mstore\n        /* \"#utility.yul\":6753:6757   */\n      0x24\n        /* \"#utility.yul\":6750:6751   */\n      0x00\n        /* \"#utility.yul\":6743:6758   */\n      revert\n        /* \"#utility.yul\":6770:6939   */\n    tag_159:\n        /* \"#utility.yul\":6854:6865   */\n      0x00\n        /* \"#utility.yul\":6888:6894   */\n      dup3\n        /* \"#utility.yul\":6883:6886   */\n      dup3\n        /* \"#utility.yul\":6876:6895   */\n      mstore\n        /* \"#utility.yul\":6928:6932   */\n      0x20\n        /* \"#utility.yul\":6923:6926   */\n      dup3\n        /* \"#utility.yul\":6919:6933   */\n      add\n        /* \"#utility.yul\":6904:6933   */\n      swap1\n      pop\n        /* \"#utility.yul\":6770:6939   */\n      swap3\n      swap2\n      pop\n      pop\n      jump\t// out\n        /* \"#utility.yul\":6945:7105   */\n    tag_160:\n        /* \"#utility.yul\":7085:7097   */\n      0x4e6f6574206f776e657200000000000000000000000000000000000000000000\n        /* \"#utility.yul\":7081:7082   */\n      0x00\n        /* \"#utility.yul\":7073:7079   */\n      dup3\n        /* \"#utility.yul\":7069:7083   */\n      add\n        /* \"#utility.yul\":7062:7098   */\n      mstore\n        /* \"#utility.yul\":6945:7105   */\n      pop\n      jump\t// out\n        /* \"#utility.yul\":7111:7477   */\n    tag_161:\n        /* \"#utility.yul\":7253:7256   */\n      0x00\n        /* \"#utility.yul\":7274:7341   */\n      tag_237\n        /* \"#utility.yul\":7338:7340   */\n      0x0a\n        /* \"#utility.yul\":7333:7336   */\n      dup4\n        /* \"#utility.yul\":7274:7341   */\n      tag_159\n      jump\t// in\n    tag_237:\n        /* \"#utility.yul\":7267:7341   */\n      swap2\n      pop\n        /* \"#utility.yul\":7350:7443   */\n      tag_238\n        /* \"#utility.yul\":7439:7442   */\n      dup3\n        /* \"#utility.yul\":7350:7443   */\n      tag_160\n      jump\t// in\n    tag_238:\n        /* \"#utility.yul\":7468:7470   */\n      0x20\n        /* \"#utility.yul\":7463:7466   */\n      dup3\n        /* \"#utility.yul\":7459:7471   */\n      add\n        /* \"#utility.yul\":7452:7471   */\n      swap1\n      pop\n        /* \"#utility.yul\":7111:7477   */\n      swap2\n      swap1\n      pop\n      jump\t// out\n        /* \"#utility.yul\":7483:7902   */\n    tag_86:\n        /* \"#utility.yul\":7649:7653   */\n      0x00\n        /* \"#utility.yul\":7687:7689   */\n      0x20\n        /* \"#utility.yul\":7676:7685   */\n      dup3\n        /* \"#utility.yul\":7672:7690   */\n      add\n        /* \"#utility.yul\":7664:7690   */\n      swap1\n      pop\n        /* \"#utility.yul\":7736:7745   */\n      dup2\n        /* \"#utility.yul\":7730:7734   */\n      dup2\n        /* \"#utility.yul\":7726:7746   */\n      sub\n        /* \"#utility.yul\":7722:7723   */\n      0x00\n        /* \"#utility.yul\":7711:7720   */\n      dup4\n        /* \"#utility.yul\":7707:7724   */\n      add\n        /* \"#utility.yul\":7700:7747   */\n      mstore\n        /* \"#utility.yul\":7764:7895   */\n      tag_240\n        /* \"#utility.yul\":7890:7894   */\n      dup2\n        /* \"#utility.yul\":7764:7895   */\n      tag_161\n      jump\t// in\n    tag_240:\n        /* \"#utility.yul\":7756:7895   */\n      swap1\n      pop\n        /* \"#utility.yul\":7483:7902   */\n      swap2\n      swap1\n      pop\n      jump\t// out\n        /* \"#utility.yul\":7908:8083   */\n    tag_162:\n        /* \"#utility.yul\":8048:8075   */\n      0x626967676572207468656e20302e3120697320616c6c6f776400000000000000\n        /* \"#utility.yul\":8044:8045   */\n      0x00\n        /* \"#utility.yul\":8036:8042   */\n      dup3\n        /* \"#utility.yul\":8032:8046   */\n      add\n        /* \"#utility.yul\":8025:8076   */\n      mstore\n        /* \"#utility.yul\":7908:8083   */\n      pop\n      jump\t// out\n        /* \"#utility.yul\":8089:8455   */\n    tag_163:\n        /* \"#utility.yul\":8231:8234   */\n      0x00\n        /* \"#utility.yul\":8252:8319   */\n      tag_243\n        /* \"#utility.yul\":8316:8318   */\n      0x19\n        /* \"#utility.yul\":8311:8314   */\n      dup4\n        /* \"#utility.yul\":8252:8319   */\n      tag_159\n      jump\t// in\n    tag_243:\n        /* \"#utility.yul\":8245:8319   */\n      swap2\n      pop\n        /* \"#utility.yul\":8328:8421   */\n      tag_244\n        /* \"#utility.yul\":8417:8420   */\n      dup3\n        /* \"#utility.yul\":8328:8421   */\n      tag_162\n      jump\t// in\n    tag_244:\n        /* \"#utility.yul\":8446:8448   */\n      0x20\n        /* \"#utility.yul\":8441:8444   */\n      dup3\n        /* \"#utility.yul\":8437:8449   */\n      add\n        /* \"#utility.yul\":8430:8449   */\n      swap1\n      pop\n        /* \"#utility.yul\":8089:8455   */\n      swap2\n      swap1\n      pop\n      jump\t// out\n        /* \"#utility.yul\":8461:8880   */\n    tag_100:\n        /* \"#utility.yul\":8627:8631   */\n      0x00\n        /* \"#utility.yul\":8665:8667   */\n      0x20\n        /* \"#utility.yul\":8654:8663   */\n      dup3\n        /* \"#utility.yul\":8650:8668   */\n      add\n        /* \"#utility.yul\":8642:8668   */\n      swap1\n      pop\n        /* \"#utility.yul\":8714:8723   */\n      dup2\n        /* \"#utility.yul\":8708:8712   */\n      dup2\n        /* \"#utility.yul\":8704:8724   */\n      sub\n        /* \"#utility.yul\":8700:8701   */\n      0x00\n        /* \"#utility.yul\":8689:8698   */\n      dup4\n        /* \"#utility.yul\":8685:8702   */\n      add\n        /* \"#utility.yul\":8678:8725   */\n      mstore\n        /* \"#utility.yul\":8742:8873   */\n      tag_246\n        /* \"#utility.yul\":8868:8872   */\n      dup2\n        /* \"#utility.yul\":8742:8873   */\n      tag_163\n      jump\t// in\n    tag_246:\n        /* \"#utility.yul\":8734:8873   */\n      swap1\n      pop\n        /* \"#utility.yul\":8461:8880   */\n      swap2\n      swap1\n      pop\n      jump\t// out\n        /* \"#utility.yul\":8886:9067   */\n    tag_164:\n        /* \"#utility.yul\":9026:9059   */\n      0x416d6f756e74206d69736d6174636820776974682076616c75652073656e7400\n        /* \"#utility.yul\":9022:9023   */\n      0x00\n        /* \"#utility.yul\":9014:9020   */\n      dup3\n        /* \"#utility.yul\":9010:9024   */\n      add\n        /* \"#utility.yul\":9003:9060   */\n      mstore\n        /* \"#utility.yul\":8886:9067   */\n      pop\n      jump\t// out\n        /* \"#utility.yul\":9073:9439   */\n    tag_165:\n        /* \"#utility.yul\":9215:9218   */\n      0x00\n        /* \"#utility.yul\":9236:9303   */\n      tag_249\n        /* \"#utility.yul\":9300:9302   */\n      0x1f\n        /* \"#utility.yul\":9295:9298   */\n      dup4\n        /* \"#utility.yul\":9236:9303   */\n      tag_159\n      jump\t// in\n    tag_249:\n        /* \"#utility.yul\":9229:9303   */\n      swap2\n      pop\n        /* \"#utility.yul\":9312:9405   */\n      tag_250\n        /* \"#utility.yul\":9401:9404   */\n      dup3\n        /* \"#utility.yul\":9312:9405   */\n      tag_164\n      jump\t// in\n    tag_250:\n        /* \"#utility.yul\":9430:9432   */\n      0x20\n        /* \"#utility.yul\":9425:9428   */\n      dup3\n        /* \"#utility.yul\":9421:9433   */\n      add\n        /* \"#utility.yul\":9414:9433   */\n      swap1\n      pop\n        /* \"#utility.yul\":9073:9439   */\n      swap2\n      swap1\n      pop\n      jump\t// out\n        /* \"#utility.yul\":9445:9864   */\n    tag_134:\n        /* \"#utility.yul\":9611:9615   */\n      0x00\n        /* \"#utility.yul\":9649:9651   */\n      0x20\n        /* \"#utility.yul\":9638:9647   */\n      dup3\n        /* \"#utility.yul\":9634:9652   */\n      add\n        /* \"#utility.yul\":9626:9652   */\n      swap1\n      pop\n        /* \"#utility.yul\":9698:9707   */\n      dup2\n        /* \"#utility.yul\":9692:9696   */\n      dup2\n        /* \"#utility.yul\":9688:9708   */\n      sub\n        /* \"#utility.yul\":9684:9685   */\n      0x00\n        /* \"#utility.yul\":9673:9682   */\n      dup4\n        /* \"#utility.yul\":9669:9686   */\n      add\n        /* \"#utility.yul\":9662:9709   */\n      mstore\n        /* \"#utility.yul\":9726:9857   */\n      tag_252\n        /* \"#utility.yul\":9852:9856   */\n      dup2\n        /* \"#utility.yul\":9726:9857   */\n      tag_165\n      jump\t// in\n    tag_252:\n        /* \"#utility.yul\":9718:9857   */\n      swap1\n      pop\n        /* \"#utility.yul\":9445:9864   */\n      swap2\n      swap1\n      pop\n      jump\t// out\n\n    auxdata: 0xa26469706673582212209c6f338881cd396b235a9359dd12aae22b7b2e5fa0284efe393efaa61879a2a764736f6c634300081e0033\n}\n",
				"bytecode": {
					"linkReferences": {},
					"object": "608060405234801561000f575f5ffd5b50335f5f6101000a81548173ffffffffffffffffffffffffffffffffffffffff021916908373ffffffffffffffffffffffffffffffffffffffff1602179055505f5f90505b600381101561010d57600260405180604001604052805f73ffffffffffffffffffffffffffffffffffffffff1681526020015f815250908060018154018082558091505060019003905f5260205f2090600202015f909190919091505f820151815f015f6101000a81548173ffffffffffffffffffffffffffffffffffffffff021916908373ffffffffffffffffffffffffffffffffffffffff1602179055506020820151816001015550508080600101915050610054565b50610e818061011b5f395ff3fe60806040526004361061007d575f3560e01c8063893d20e81161004d578063893d20e81461019c5780638da5cb5b146101c6578063a7211664146101f0578063b6b55f251461022d576100e0565b8062113e08146100e457806327e235e31461010e5780632e1a7d4d1461014a57806381454f7114610172576100e0565b366100e0573460015f3373ffffffffffffffffffffffffffffffffffffffff1673ffffffffffffffffffffffffffffffffffffffff1681526020019081526020015f205f8282546100ce9190610a3b565b925050819055506100de33610249565b005b5f5ffd5b3480156100ef575f5ffd5b506100f8610448565b6040516101059190610a7d565b60405180910390f35b348015610119575f5ffd5b50610134600480360381019061012f9190610af4565b61048c565b6040516101419190610a7d565b60405180910390f35b348015610155575f5ffd5b50610170600480360381019061016b9190610b49565b6104a1565b005b34801561017d575f5ffd5b50610186610576565b6040516101939190610c67565b60405180910390f35b3480156101a7575f5ffd5b506101b0610630565b6040516101bd9190610c96565b60405180910390f35b3480156101d1575f5ffd5b506101da610657565b6040516101e79190610c96565b60405180910390f35b3480156101fb575f5ffd5b5061021660048036038101906102119190610b49565b61067b565b604051610224929190610caf565b60405180910390f35b61024760048036038101906102429190610b49565b6106c9565b005b5f60015f8373ffffffffffffffffffffffffffffffffffffffff1673ffffffffffffffffffffffffffffffffffffffff1681526020019081526020015f205490505f5f90505b6003811015610350578273ffffffffffffffffffffffffffffffffffffffff16600282815481106102c3576102c2610cd6565b5b905f5260205f2090600202015f015f9054906101000a900473ffffffffffffffffffffffffffffffffffffffff1673ffffffffffffffffffffffffffffffffffffffff160361034357816002828154811061032157610320610cd6565b5b905f5260205f2090600202016001018190555061033c610720565b5050610445565b808060010191505061028f565b505f5f90505b6003811015610442576002818154811061037357610372610cd6565b5b905f5260205f209060020201600101548211156104355760405180604001604052808473ffffffffffffffffffffffffffffffffffffffff16815260200183815250600282815481106103c9576103c8610cd6565b5b905f5260205f2090600202015f820151815f015f6101000a81548173ffffffffffffffffffffffffffffffffffffffff021916908373ffffffffffffffffffffffffffffffffffffffff1602179055506020820151816001015590505061042e610720565b5050610445565b8080600101915050610356565b50505b50565b5f60015f3373ffffffffffffffffffffffffffffffffffffffff1673ffffffffffffffffffffffffffffffffffffffff1681526020019081526020015f2054905090565b6001602052805f5260405f205f915090505481565b5f5f9054906101000a900473ffffffffffffffffffffffffffffffffffffffff1673ffffffffffffffffffffffffffffffffffffffff163373ffffffffffffffffffffffffffffffffffffffff161461052f576040517f08c379a000000000000000000000000000000000000000000000000000000000815260040161052690610d5d565b60405180910390fd5b3373ffffffffffffffffffffffffffffffffffffffff166108fc8290811502906040515f60405180830381858888f19350505050158015610572573d5f5f3e3d5ffd5b5050565b60606002805480602002602001604051908101604052809291908181526020015f905b82821015610627578382905f5260205f2090600202016040518060400160405290815f82015f9054906101000a900473ffffffffffffffffffffffffffffffffffffffff1673ffffffffffffffffffffffffffffffffffffffff1673ffffffffffffffffffffffffffffffffffffffff16815260200160018201548152505081526020019060010190610599565b50505050905090565b5f5f5f9054906101000a900473ffffffffffffffffffffffffffffffffffffffff16905090565b5f5f9054906101000a900473ffffffffffffffffffffffffffffffffffffffff1681565b6002818154811061068a575f80fd5b905f5260205f2090600202015f91509050805f015f9054906101000a900473ffffffffffffffffffffffffffffffffffffffff16908060010154905082565b67016345785d8a0000341015610714576040517f08c379a000000000000000000000000000000000000000000000000000000000815260040161070b90610dc5565b60405180910390fd5b61071d81610964565b50565b5f5f90505b6002811015610961575f60018261073c9190610a3b565b90505b6003811015610953576002828154811061075c5761075b610cd6565b5b905f5260205f20906002020160010154600282815481106107805761077f610cd6565b5b905f5260205f209060020201600101541115610946575f600283815481106107ab576107aa610cd6565b5b905f5260205f2090600202016040518060400160405290815f82015f9054906101000a900473ffffffffffffffffffffffffffffffffffffffff1673ffffffffffffffffffffffffffffffffffffffff1673ffffffffffffffffffffffffffffffffffffffff16815260200160018201548152505090506002828154811061083657610835610cd6565b5b905f5260205f2090600202016002848154811061085657610855610cd6565b5b905f5260205f2090600202015f82015f9054906101000a900473ffffffffffffffffffffffffffffffffffffffff16815f015f6101000a81548173ffffffffffffffffffffffffffffffffffffffff021916908373ffffffffffffffffffffffffffffffffffffffff1602179055506001820154816001015590505080600283815481106108e7576108e6610cd6565b5b905f5260205f2090600202015f820151815f015f6101000a81548173ffffffffffffffffffffffffffffffffffffffff021916908373ffffffffffffffffffffffffffffffffffffffff16021790555060208201518160010155905050505b808060010191505061073f565b508080600101915050610725565b50565b8034146109a6576040517f08c379a000000000000000000000000000000000000000000000000000000000815260040161099d90610e2d565b60405180910390fd5b3460015f3373ffffffffffffffffffffffffffffffffffffffff1673ffffffffffffffffffffffffffffffffffffffff1681526020019081526020015f205f8282546109f29190610a3b565b92505081905550610a0233610249565b50565b5f819050919050565b7f4e487b71000000000000000000000000000000000000000000000000000000005f52601160045260245ffd5b5f610a4582610a05565b9150610a5083610a05565b9250828201905080821115610a6857610a67610a0e565b5b92915050565b610a7781610a05565b82525050565b5f602082019050610a905f830184610a6e565b92915050565b5f5ffd5b5f73ffffffffffffffffffffffffffffffffffffffff82169050919050565b5f610ac382610a9a565b9050919050565b610ad381610ab9565b8114610add575f5ffd5b50565b5f81359050610aee81610aca565b92915050565b5f60208284031215610b0957610b08610a96565b5b5f610b1684828501610ae0565b91505092915050565b610b2881610a05565b8114610b32575f5ffd5b50565b5f81359050610b4381610b1f565b92915050565b5f60208284031215610b5e57610b5d610a96565b5b5f610b6b84828501610b35565b91505092915050565b5f81519050919050565b5f82825260208201905092915050565b5f819050602082019050919050565b610ba681610ab9565b82525050565b610bb581610a05565b82525050565b604082015f820151610bcf5f850182610b9d565b506020820151610be26020850182610bac565b50505050565b5f610bf38383610bbb565b60408301905092915050565b5f602082019050919050565b5f610c1582610b74565b610c1f8185610b7e565b9350610c2a83610b8e565b805f5b83811015610c5a578151610c418882610be8565b9750610c4c83610bff565b925050600181019050610c2d565b5085935050505092915050565b5f6020820190508181035f830152610c7f8184610c0b565b905092915050565b610c9081610ab9565b82525050565b5f602082019050610ca95f830184610c87565b92915050565b5f604082019050610cc25f830185610c87565b610ccf6020830184610a6e565b9392505050565b7f4e487b71000000000000000000000000000000000000000000000000000000005f52603260045260245ffd5b5f82825260208201905092915050565b7f4e6f6574206f776e6572000000000000000000000000000000000000000000005f82015250565b5f610d47600a83610d03565b9150610d5282610d13565b602082019050919050565b5f6020820190508181035f830152610d7481610d3b565b9050919050565b7f626967676572207468656e20302e3120697320616c6c6f7764000000000000005f82015250565b5f610daf601983610d03565b9150610dba82610d7b565b602082019050919050565b5f6020820190508181035f830152610ddc81610da3565b9050919050565b7f416d6f756e74206d69736d6174636820776974682076616c75652073656e74005f82015250565b5f610e17601f83610d03565b9150610e2282610de3565b602082019050919050565b5f6020820190508181035f830152610e4481610e0b565b905091905056fea26469706673582212209c6f338881cd396b235a9359dd12aae22b7b2e5fa0284efe393efaa61879a2a764736f6c634300081e0033",
					"opcodes": "PUSH1 0x80 PUSH1 0x40 MSTORE CALLVALUE DUP1 ISZERO PUSH2 0xF JUMPI PUSH0 PUSH0 REVERT JUMPDEST POP CALLER PUSH0 PUSH0 PUSH2 0x100 EXP DUP2 SLOAD DUP2 PUSH20 0xFFFFFFFFFFFFFFFFFFFFFFFFFFFFFFFFFFFFFFFF MUL NOT AND SWAP1 DUP4 PUSH20 0xFFFFFFFFFFFFFFFFFFFFFFFFFFFFFFFFFFFFFFFF AND MUL OR SWAP1 SSTORE POP PUSH0 PUSH0 SWAP1 POP JUMPDEST PUSH1 0x3 DUP2 LT ISZERO PUSH2 0x10D JUMPI PUSH1 0x2 PUSH1 0x40 MLOAD DUP1 PUSH1 0x40 ADD PUSH1 0x40 MSTORE DUP1 PUSH0 PUSH20 0xFFFFFFFFFFFFFFFFFFFFFFFFFFFFFFFFFFFFFFFF AND DUP2 MSTORE PUSH1 0x20 ADD PUSH0 DUP2 MSTORE POP SWAP1 DUP1 PUSH1 0x1 DUP2 SLOAD ADD DUP1 DUP3 SSTORE DUP1 SWAP2 POP POP PUSH1 0x1 SWAP1 SUB SWAP1 PUSH0 MSTORE PUSH1 0x20 PUSH0 KECCAK256 SWAP1 PUSH1 0x2 MUL ADD PUSH0 SWAP1 SWAP2 SWAP1 SWAP2 SWAP1 SWAP2 POP PUSH0 DUP3 ADD MLOAD DUP2 PUSH0 ADD PUSH0 PUSH2 0x100 EXP DUP2 SLOAD DUP2 PUSH20 0xFFFFFFFFFFFFFFFFFFFFFFFFFFFFFFFFFFFFFFFF MUL NOT AND SWAP1 DUP4 PUSH20 0xFFFFFFFFFFFFFFFFFFFFFFFFFFFFFFFFFFFFFFFF AND MUL OR SWAP1 SSTORE POP PUSH1 0x20 DUP3 ADD MLOAD DUP2 PUSH1 0x1 ADD SSTORE POP POP DUP1 DUP1 PUSH1 0x1 ADD SWAP2 POP POP PUSH2 0x54 JUMP JUMPDEST POP PUSH2 0xE81 DUP1 PUSH2 0x11B PUSH0 CODECOPY PUSH0 RETURN INVALID PUSH1 0x80 PUSH1 0x40 MSTORE PUSH1 0x4 CALLDATASIZE LT PUSH2 0x7D JUMPI PUSH0 CALLDATALOAD PUSH1 0xE0 SHR DUP1 PUSH4 0x893D20E8 GT PUSH2 0x4D JUMPI DUP1 PUSH4 0x893D20E8 EQ PUSH2 0x19C JUMPI DUP1 PUSH4 0x8DA5CB5B EQ PUSH2 0x1C6 JUMPI DUP1 PUSH4 0xA7211664 EQ PUSH2 0x1F0 JUMPI DUP1 PUSH4 0xB6B55F25 EQ PUSH2 0x22D JUMPI PUSH2 0xE0 JUMP JUMPDEST DUP1 PUSH3 0x113E08 EQ PUSH2 0xE4 JUMPI DUP1 PUSH4 0x27E235E3 EQ PUSH2 0x10E JUMPI DUP1 PUSH4 0x2E1A7D4D EQ PUSH2 0x14A JUMPI DUP1 PUSH4 0x81454F71 EQ PUSH2 0x172 JUMPI PUSH2 0xE0 JUMP JUMPDEST CALLDATASIZE PUSH2 0xE0 JUMPI CALLVALUE PUSH1 0x1 PUSH0 CALLER PUSH20 0xFFFFFFFFFFFFFFFFFFFFFFFFFFFFFFFFFFFFFFFF AND PUSH20 0xFFFFFFFFFFFFFFFFFFFFFFFFFFFFFFFFFFFFFFFF AND DUP2 MSTORE PUSH1 0x20 ADD SWAP1 DUP2 MSTORE PUSH1 0x20 ADD PUSH0 KECCAK256 PUSH0 DUP3 DUP3 SLOAD PUSH2 0xCE SWAP2 SWAP1 PUSH2 0xA3B JUMP JUMPDEST SWAP3 POP POP DUP2 SWAP1 SSTORE POP PUSH2 0xDE CALLER PUSH2 0x249 JUMP JUMPDEST STOP JUMPDEST PUSH0 PUSH0 REVERT JUMPDEST CALLVALUE DUP1 ISZERO PUSH2 0xEF JUMPI PUSH0 PUSH0 REVERT JUMPDEST POP PUSH2 0xF8 PUSH2 0x448 JUMP JUMPDEST PUSH1 0x40 MLOAD PUSH2 0x105 SWAP2 SWAP1 PUSH2 0xA7D JUMP JUMPDEST PUSH1 0x40 MLOAD DUP1 SWAP2 SUB SWAP1 RETURN JUMPDEST CALLVALUE DUP1 ISZERO PUSH2 0x119 JUMPI PUSH0 PUSH0 REVERT JUMPDEST POP PUSH2 0x134 PUSH1 0x4 DUP1 CALLDATASIZE SUB DUP2 ADD SWAP1 PUSH2 0x12F SWAP2 SWAP1 PUSH2 0xAF4 JUMP JUMPDEST PUSH2 0x48C JUMP JUMPDEST PUSH1 0x40 MLOAD PUSH2 0x141 SWAP2 SWAP1 PUSH2 0xA7D JUMP JUMPDEST PUSH1 0x40 MLOAD DUP1 SWAP2 SUB SWAP1 RETURN JUMPDEST CALLVALUE DUP1 ISZERO PUSH2 0x155 JUMPI PUSH0 PUSH0 REVERT JUMPDEST POP PUSH2 0x170 PUSH1 0x4 DUP1 CALLDATASIZE SUB DUP2 ADD SWAP1 PUSH2 0x16B SWAP2 SWAP1 PUSH2 0xB49 JUMP JUMPDEST PUSH2 0x4A1 JUMP JUMPDEST STOP JUMPDEST CALLVALUE DUP1 ISZERO PUSH2 0x17D JUMPI PUSH0 PUSH0 REVERT JUMPDEST POP PUSH2 0x186 PUSH2 0x576 JUMP JUMPDEST PUSH1 0x40 MLOAD PUSH2 0x193 SWAP2 SWAP1 PUSH2 0xC67 JUMP JUMPDEST PUSH1 0x40 MLOAD DUP1 SWAP2 SUB SWAP1 RETURN JUMPDEST CALLVALUE DUP1 ISZERO PUSH2 0x1A7 JUMPI PUSH0 PUSH0 REVERT JUMPDEST POP PUSH2 0x1B0 PUSH2 0x630 JUMP JUMPDEST PUSH1 0x40 MLOAD PUSH2 0x1BD SWAP2 SWAP1 PUSH2 0xC96 JUMP JUMPDEST PUSH1 0x40 MLOAD DUP1 SWAP2 SUB SWAP1 RETURN JUMPDEST CALLVALUE DUP1 ISZERO PUSH2 0x1D1 JUMPI PUSH0 PUSH0 REVERT JUMPDEST POP PUSH2 0x1DA PUSH2 0x657 JUMP JUMPDEST PUSH1 0x40 MLOAD PUSH2 0x1E7 SWAP2 SWAP1 PUSH2 0xC96 JUMP JUMPDEST PUSH1 0x40 MLOAD DUP1 SWAP2 SUB SWAP1 RETURN JUMPDEST CALLVALUE DUP1 ISZERO PUSH2 0x1FB JUMPI PUSH0 PUSH0 REVERT JUMPDEST POP PUSH2 0x216 PUSH1 0x4 DUP1 CALLDATASIZE SUB DUP2 ADD SWAP1 PUSH2 0x211 SWAP2 SWAP1 PUSH2 0xB49 JUMP JUMPDEST PUSH2 0x67B JUMP JUMPDEST PUSH1 0x40 MLOAD PUSH2 0x224 SWAP3 SWAP2 SWAP1 PUSH2 0xCAF JUMP JUMPDEST PUSH1 0x40 MLOAD DUP1 SWAP2 SUB SWAP1 RETURN JUMPDEST PUSH2 0x247 PUSH1 0x4 DUP1 CALLDATASIZE SUB DUP2 ADD SWAP1 PUSH2 0x242 SWAP2 SWAP1 PUSH2 0xB49 JUMP JUMPDEST PUSH2 0x6C9 JUMP JUMPDEST STOP JUMPDEST PUSH0 PUSH1 0x1 PUSH0 DUP4 PUSH20 0xFFFFFFFFFFFFFFFFFFFFFFFFFFFFFFFFFFFFFFFF AND PUSH20 0xFFFFFFFFFFFFFFFFFFFFFFFFFFFFFFFFFFFFFFFF AND DUP2 MSTORE PUSH1 0x20 ADD SWAP1 DUP2 MSTORE PUSH1 0x20 ADD PUSH0 KECCAK256 SLOAD SWAP1 POP PUSH0 PUSH0 SWAP1 POP JUMPDEST PUSH1 0x3 DUP2 LT ISZERO PUSH2 0x350 JUMPI DUP3 PUSH20 0xFFFFFFFFFFFFFFFFFFFFFFFFFFFFFFFFFFFFFFFF AND PUSH1 0x2 DUP3 DUP2 SLOAD DUP2 LT PUSH2 0x2C3 JUMPI PUSH2 0x2C2 PUSH2 0xCD6 JUMP JUMPDEST JUMPDEST SWAP1 PUSH0 MSTORE PUSH1 0x20 PUSH0 KECCAK256 SWAP1 PUSH1 0x2 MUL ADD PUSH0 ADD PUSH0 SWAP1 SLOAD SWAP1 PUSH2 0x100 EXP SWAP1 DIV PUSH20 0xFFFFFFFFFFFFFFFFFFFFFFFFFFFFFFFFFFFFFFFF AND PUSH20 0xFFFFFFFFFFFFFFFFFFFFFFFFFFFFFFFFFFFFFFFF AND SUB PUSH2 0x343 JUMPI DUP2 PUSH1 0x2 DUP3 DUP2 SLOAD DUP2 LT PUSH2 0x321 JUMPI PUSH2 0x320 PUSH2 0xCD6 JUMP JUMPDEST JUMPDEST SWAP1 PUSH0 MSTORE PUSH1 0x20 PUSH0 KECCAK256 SWAP1 PUSH1 0x2 MUL ADD PUSH1 0x1 ADD DUP2 SWAP1 SSTORE POP PUSH2 0x33C PUSH2 0x720 JUMP JUMPDEST POP POP PUSH2 0x445 JUMP JUMPDEST DUP1 DUP1 PUSH1 0x1 ADD SWAP2 POP POP PUSH2 0x28F JUMP JUMPDEST POP PUSH0 PUSH0 SWAP1 POP JUMPDEST PUSH1 0x3 DUP2 LT ISZERO PUSH2 0x442 JUMPI PUSH1 0x2 DUP2 DUP2 SLOAD DUP2 LT PUSH2 0x373 JUMPI PUSH2 0x372 PUSH2 0xCD6 JUMP JUMPDEST JUMPDEST SWAP1 PUSH0 MSTORE PUSH1 0x20 PUSH0 KECCAK256 SWAP1 PUSH1 0x2 MUL ADD PUSH1 0x1 ADD SLOAD DUP3 GT ISZERO PUSH2 0x435 JUMPI PUSH1 0x40 MLOAD DUP1 PUSH1 0x40 ADD PUSH1 0x40 MSTORE DUP1 DUP5 PUSH20 0xFFFFFFFFFFFFFFFFFFFFFFFFFFFFFFFFFFFFFFFF AND DUP2 MSTORE PUSH1 0x20 ADD DUP4 DUP2 MSTORE POP PUSH1 0x2 DUP3 DUP2 SLOAD DUP2 LT PUSH2 0x3C9 JUMPI PUSH2 0x3C8 PUSH2 0xCD6 JUMP JUMPDEST JUMPDEST SWAP1 PUSH0 MSTORE PUSH1 0x20 PUSH0 KECCAK256 SWAP1 PUSH1 0x2 MUL ADD PUSH0 DUP3 ADD MLOAD DUP2 PUSH0 ADD PUSH0 PUSH2 0x100 EXP DUP2 SLOAD DUP2 PUSH20 0xFFFFFFFFFFFFFFFFFFFFFFFFFFFFFFFFFFFFFFFF MUL NOT AND SWAP1 DUP4 PUSH20 0xFFFFFFFFFFFFFFFFFFFFFFFFFFFFFFFFFFFFFFFF AND MUL OR SWAP1 SSTORE POP PUSH1 0x20 DUP3 ADD MLOAD DUP2 PUSH1 0x1 ADD SSTORE SWAP1 POP POP PUSH2 0x42E PUSH2 0x720 JUMP JUMPDEST POP POP PUSH2 0x445 JUMP JUMPDEST DUP1 DUP1 PUSH1 0x1 ADD SWAP2 POP POP PUSH2 0x356 JUMP JUMPDEST POP POP JUMPDEST POP JUMP JUMPDEST PUSH0 PUSH1 0x1 PUSH0 CALLER PUSH20 0xFFFFFFFFFFFFFFFFFFFFFFFFFFFFFFFFFFFFFFFF AND PUSH20 0xFFFFFFFFFFFFFFFFFFFFFFFFFFFFFFFFFFFFFFFF AND DUP2 MSTORE PUSH1 0x20 ADD SWAP1 DUP2 MSTORE PUSH1 0x20 ADD PUSH0 KECCAK256 SLOAD SWAP1 POP SWAP1 JUMP JUMPDEST PUSH1 0x1 PUSH1 0x20 MSTORE DUP1 PUSH0 MSTORE PUSH1 0x40 PUSH0 KECCAK256 PUSH0 SWAP2 POP SWAP1 POP SLOAD DUP2 JUMP JUMPDEST PUSH0 PUSH0 SWAP1 SLOAD SWAP1 PUSH2 0x100 EXP SWAP1 DIV PUSH20 0xFFFFFFFFFFFFFFFFFFFFFFFFFFFFFFFFFFFFFFFF AND PUSH20 0xFFFFFFFFFFFFFFFFFFFFFFFFFFFFFFFFFFFFFFFF AND CALLER PUSH20 0xFFFFFFFFFFFFFFFFFFFFFFFFFFFFFFFFFFFFFFFF AND EQ PUSH2 0x52F JUMPI PUSH1 0x40 MLOAD PUSH32 0x8C379A000000000000000000000000000000000000000000000000000000000 DUP2 MSTORE PUSH1 0x4 ADD PUSH2 0x526 SWAP1 PUSH2 0xD5D JUMP JUMPDEST PUSH1 0x40 MLOAD DUP1 SWAP2 SUB SWAP1 REVERT JUMPDEST CALLER PUSH20 0xFFFFFFFFFFFFFFFFFFFFFFFFFFFFFFFFFFFFFFFF AND PUSH2 0x8FC DUP3 SWAP1 DUP2 ISZERO MUL SWAP1 PUSH1 0x40 MLOAD PUSH0 PUSH1 0x40 MLOAD DUP1 DUP4 SUB DUP2 DUP6 DUP9 DUP9 CALL SWAP4 POP POP POP POP ISZERO DUP1 ISZERO PUSH2 0x572 JUMPI RETURNDATASIZE PUSH0 PUSH0 RETURNDATACOPY RETURNDATASIZE PUSH0 REVERT JUMPDEST POP POP JUMP JUMPDEST PUSH1 0x60 PUSH1 0x2 DUP1 SLOAD DUP1 PUSH1 0x20 MUL PUSH1 0x20 ADD PUSH1 0x40 MLOAD SWAP1 DUP2 ADD PUSH1 0x40 MSTORE DUP1 SWAP3 SWAP2 SWAP1 DUP2 DUP2 MSTORE PUSH1 0x20 ADD PUSH0 SWAP1 JUMPDEST DUP3 DUP3 LT ISZERO PUSH2 0x627 JUMPI DUP4 DUP3 SWAP1 PUSH0 MSTORE PUSH1 0x20 PUSH0 KECCAK256 SWAP1 PUSH1 0x2 MUL ADD PUSH1 0x40 MLOAD DUP1 PUSH1 0x40 ADD PUSH1 0x40 MSTORE SWAP1 DUP2 PUSH0 DUP3 ADD PUSH0 SWAP1 SLOAD SWAP1 PUSH2 0x100 EXP SWAP1 DIV PUSH20 0xFFFFFFFFFFFFFFFFFFFFFFFFFFFFFFFFFFFFFFFF AND PUSH20 0xFFFFFFFFFFFFFFFFFFFFFFFFFFFFFFFFFFFFFFFF AND PUSH20 0xFFFFFFFFFFFFFFFFFFFFFFFFFFFFFFFFFFFFFFFF AND DUP2 MSTORE PUSH1 0x20 ADD PUSH1 0x1 DUP3 ADD SLOAD DUP2 MSTORE POP POP DUP2 MSTORE PUSH1 0x20 ADD SWAP1 PUSH1 0x1 ADD SWAP1 PUSH2 0x599 JUMP JUMPDEST POP POP POP POP SWAP1 POP SWAP1 JUMP JUMPDEST PUSH0 PUSH0 PUSH0 SWAP1 SLOAD SWAP1 PUSH2 0x100 EXP SWAP1 DIV PUSH20 0xFFFFFFFFFFFFFFFFFFFFFFFFFFFFFFFFFFFFFFFF AND SWAP1 POP SWAP1 JUMP JUMPDEST PUSH0 PUSH0 SWAP1 SLOAD SWAP1 PUSH2 0x100 EXP SWAP1 DIV PUSH20 0xFFFFFFFFFFFFFFFFFFFFFFFFFFFFFFFFFFFFFFFF AND DUP2 JUMP JUMPDEST PUSH1 0x2 DUP2 DUP2 SLOAD DUP2 LT PUSH2 0x68A JUMPI PUSH0 DUP1 REVERT JUMPDEST SWAP1 PUSH0 MSTORE PUSH1 0x20 PUSH0 KECCAK256 SWAP1 PUSH1 0x2 MUL ADD PUSH0 SWAP2 POP SWAP1 POP DUP1 PUSH0 ADD PUSH0 SWAP1 SLOAD SWAP1 PUSH2 0x100 EXP SWAP1 DIV PUSH20 0xFFFFFFFFFFFFFFFFFFFFFFFFFFFFFFFFFFFFFFFF AND SWAP1 DUP1 PUSH1 0x1 ADD SLOAD SWAP1 POP DUP3 JUMP JUMPDEST PUSH8 0x16345785D8A0000 CALLVALUE LT ISZERO PUSH2 0x714 JUMPI PUSH1 0x40 MLOAD PUSH32 0x8C379A000000000000000000000000000000000000000000000000000000000 DUP2 MSTORE PUSH1 0x4 ADD PUSH2 0x70B SWAP1 PUSH2 0xDC5 JUMP JUMPDEST PUSH1 0x40 MLOAD DUP1 SWAP2 SUB SWAP1 REVERT JUMPDEST PUSH2 0x71D DUP2 PUSH2 0x964 JUMP JUMPDEST POP JUMP JUMPDEST PUSH0 PUSH0 SWAP1 POP JUMPDEST PUSH1 0x2 DUP2 LT ISZERO PUSH2 0x961 JUMPI PUSH0 PUSH1 0x1 DUP3 PUSH2 0x73C SWAP2 SWAP1 PUSH2 0xA3B JUMP JUMPDEST SWAP1 POP JUMPDEST PUSH1 0x3 DUP2 LT ISZERO PUSH2 0x953 JUMPI PUSH1 0x2 DUP3 DUP2 SLOAD DUP2 LT PUSH2 0x75C JUMPI PUSH2 0x75B PUSH2 0xCD6 JUMP JUMPDEST JUMPDEST SWAP1 PUSH0 MSTORE PUSH1 0x20 PUSH0 KECCAK256 SWAP1 PUSH1 0x2 MUL ADD PUSH1 0x1 ADD SLOAD PUSH1 0x2 DUP3 DUP2 SLOAD DUP2 LT PUSH2 0x780 JUMPI PUSH2 0x77F PUSH2 0xCD6 JUMP JUMPDEST JUMPDEST SWAP1 PUSH0 MSTORE PUSH1 0x20 PUSH0 KECCAK256 SWAP1 PUSH1 0x2 MUL ADD PUSH1 0x1 ADD SLOAD GT ISZERO PUSH2 0x946 JUMPI PUSH0 PUSH1 0x2 DUP4 DUP2 SLOAD DUP2 LT PUSH2 0x7AB JUMPI PUSH2 0x7AA PUSH2 0xCD6 JUMP JUMPDEST JUMPDEST SWAP1 PUSH0 MSTORE PUSH1 0x20 PUSH0 KECCAK256 SWAP1 PUSH1 0x2 MUL ADD PUSH1 0x40 MLOAD DUP1 PUSH1 0x40 ADD PUSH1 0x40 MSTORE SWAP1 DUP2 PUSH0 DUP3 ADD PUSH0 SWAP1 SLOAD SWAP1 PUSH2 0x100 EXP SWAP1 DIV PUSH20 0xFFFFFFFFFFFFFFFFFFFFFFFFFFFFFFFFFFFFFFFF AND PUSH20 0xFFFFFFFFFFFFFFFFFFFFFFFFFFFFFFFFFFFFFFFF AND PUSH20 0xFFFFFFFFFFFFFFFFFFFFFFFFFFFFFFFFFFFFFFFF AND DUP2 MSTORE PUSH1 0x20 ADD PUSH1 0x1 DUP3 ADD SLOAD DUP2 MSTORE POP POP SWAP1 POP PUSH1 0x2 DUP3 DUP2 SLOAD DUP2 LT PUSH2 0x836 JUMPI PUSH2 0x835 PUSH2 0xCD6 JUMP JUMPDEST JUMPDEST SWAP1 PUSH0 MSTORE PUSH1 0x20 PUSH0 KECCAK256 SWAP1 PUSH1 0x2 MUL ADD PUSH1 0x2 DUP5 DUP2 SLOAD DUP2 LT PUSH2 0x856 JUMPI PUSH2 0x855 PUSH2 0xCD6 JUMP JUMPDEST JUMPDEST SWAP1 PUSH0 MSTORE PUSH1 0x20 PUSH0 KECCAK256 SWAP1 PUSH1 0x2 MUL ADD PUSH0 DUP3 ADD PUSH0 SWAP1 SLOAD SWAP1 PUSH2 0x100 EXP SWAP1 DIV PUSH20 0xFFFFFFFFFFFFFFFFFFFFFFFFFFFFFFFFFFFFFFFF AND DUP2 PUSH0 ADD PUSH0 PUSH2 0x100 EXP DUP2 SLOAD DUP2 PUSH20 0xFFFFFFFFFFFFFFFFFFFFFFFFFFFFFFFFFFFFFFFF MUL NOT AND SWAP1 DUP4 PUSH20 0xFFFFFFFFFFFFFFFFFFFFFFFFFFFFFFFFFFFFFFFF AND MUL OR SWAP1 SSTORE POP PUSH1 0x1 DUP3 ADD SLOAD DUP2 PUSH1 0x1 ADD SSTORE SWAP1 POP POP DUP1 PUSH1 0x2 DUP4 DUP2 SLOAD DUP2 LT PUSH2 0x8E7 JUMPI PUSH2 0x8E6 PUSH2 0xCD6 JUMP JUMPDEST JUMPDEST SWAP1 PUSH0 MSTORE PUSH1 0x20 PUSH0 KECCAK256 SWAP1 PUSH1 0x2 MUL ADD PUSH0 DUP3 ADD MLOAD DUP2 PUSH0 ADD PUSH0 PUSH2 0x100 EXP DUP2 SLOAD DUP2 PUSH20 0xFFFFFFFFFFFFFFFFFFFFFFFFFFFFFFFFFFFFFFFF MUL NOT AND SWAP1 DUP4 PUSH20 0xFFFFFFFFFFFFFFFFFFFFFFFFFFFFFFFFFFFFFFFF AND MUL OR SWAP1 SSTORE POP PUSH1 0x20 DUP3 ADD MLOAD DUP2 PUSH1 0x1 ADD SSTORE SWAP1 POP POP POP JUMPDEST DUP1 DUP1 PUSH1 0x1 ADD SWAP2 POP POP PUSH2 0x73F JUMP JUMPDEST POP DUP1 DUP1 PUSH1 0x1 ADD SWAP2 POP POP PUSH2 0x725 JUMP JUMPDEST POP JUMP JUMPDEST DUP1 CALLVALUE EQ PUSH2 0x9A6 JUMPI PUSH1 0x40 MLOAD PUSH32 0x8C379A000000000000000000000000000000000000000000000000000000000 DUP2 MSTORE PUSH1 0x4 ADD PUSH2 0x99D SWAP1 PUSH2 0xE2D JUMP JUMPDEST PUSH1 0x40 MLOAD DUP1 SWAP2 SUB SWAP1 REVERT JUMPDEST CALLVALUE PUSH1 0x1 PUSH0 CALLER PUSH20 0xFFFFFFFFFFFFFFFFFFFFFFFFFFFFFFFFFFFFFFFF AND PUSH20 0xFFFFFFFFFFFFFFFFFFFFFFFFFFFFFFFFFFFFFFFF AND DUP2 MSTORE PUSH1 0x20 ADD SWAP1 DUP2 MSTORE PUSH1 0x20 ADD PUSH0 KECCAK256 PUSH0 DUP3 DUP3 SLOAD PUSH2 0x9F2 SWAP2 SWAP1 PUSH2 0xA3B JUMP JUMPDEST SWAP3 POP POP DUP2 SWAP1 SSTORE POP PUSH2 0xA02 CALLER PUSH2 0x249 JUMP JUMPDEST POP JUMP JUMPDEST PUSH0 DUP2 SWAP1 POP SWAP2 SWAP1 POP JUMP JUMPDEST PUSH32 0x4E487B7100000000000000000000000000000000000000000000000000000000 PUSH0 MSTORE PUSH1 0x11 PUSH1 0x4 MSTORE PUSH1 0x24 PUSH0 REVERT JUMPDEST PUSH0 PUSH2 0xA45 DUP3 PUSH2 0xA05 JUMP JUMPDEST SWAP2 POP PUSH2 0xA50 DUP4 PUSH2 0xA05 JUMP JUMPDEST SWAP3 POP DUP3 DUP3 ADD SWAP1 POP DUP1 DUP3 GT ISZERO PUSH2 0xA68 JUMPI PUSH2 0xA67 PUSH2 0xA0E JUMP JUMPDEST JUMPDEST SWAP3 SWAP2 POP POP JUMP JUMPDEST PUSH2 0xA77 DUP2 PUSH2 0xA05 JUMP JUMPDEST DUP3 MSTORE POP POP JUMP JUMPDEST PUSH0 PUSH1 0x20 DUP3 ADD SWAP1 POP PUSH2 0xA90 PUSH0 DUP4 ADD DUP5 PUSH2 0xA6E JUMP JUMPDEST SWAP3 SWAP2 POP POP JUMP JUMPDEST PUSH0 PUSH0 REVERT JUMPDEST PUSH0 PUSH20 0xFFFFFFFFFFFFFFFFFFFFFFFFFFFFFFFFFFFFFFFF DUP3 AND SWAP1 POP SWAP2 SWAP1 POP JUMP JUMPDEST PUSH0 PUSH2 0xAC3 DUP3 PUSH2 0xA9A JUMP JUMPDEST SWAP1 POP SWAP2 SWAP1 POP JUMP JUMPDEST PUSH2 0xAD3 DUP2 PUSH2 0xAB9 JUMP JUMPDEST DUP2 EQ PUSH2 0xADD JUMPI PUSH0 PUSH0 REVERT JUMPDEST POP JUMP JUMPDEST PUSH0 DUP2 CALLDATALOAD SWAP1 POP PUSH2 0xAEE DUP2 PUSH2 0xACA JUMP JUMPDEST SWAP3 SWAP2 POP POP JUMP JUMPDEST PUSH0 PUSH1 0x20 DUP3 DUP5 SUB SLT ISZERO PUSH2 0xB09 JUMPI PUSH2 0xB08 PUSH2 0xA96 JUMP JUMPDEST JUMPDEST PUSH0 PUSH2 0xB16 DUP5 DUP3 DUP6 ADD PUSH2 0xAE0 JUMP JUMPDEST SWAP2 POP POP SWAP3 SWAP2 POP POP JUMP JUMPDEST PUSH2 0xB28 DUP2 PUSH2 0xA05 JUMP JUMPDEST DUP2 EQ PUSH2 0xB32 JUMPI PUSH0 PUSH0 REVERT JUMPDEST POP JUMP JUMPDEST PUSH0 DUP2 CALLDATALOAD SWAP1 POP PUSH2 0xB43 DUP2 PUSH2 0xB1F JUMP JUMPDEST SWAP3 SWAP2 POP POP JUMP JUMPDEST PUSH0 PUSH1 0x20 DUP3 DUP5 SUB SLT ISZERO PUSH2 0xB5E JUMPI PUSH2 0xB5D PUSH2 0xA96 JUMP JUMPDEST JUMPDEST PUSH0 PUSH2 0xB6B DUP5 DUP3 DUP6 ADD PUSH2 0xB35 JUMP JUMPDEST SWAP2 POP POP SWAP3 SWAP2 POP POP JUMP JUMPDEST PUSH0 DUP2 MLOAD SWAP1 POP SWAP2 SWAP1 POP JUMP JUMPDEST PUSH0 DUP3 DUP3 MSTORE PUSH1 0x20 DUP3 ADD SWAP1 POP SWAP3 SWAP2 POP POP JUMP JUMPDEST PUSH0 DUP2 SWAP1 POP PUSH1 0x20 DUP3 ADD SWAP1 POP SWAP2 SWAP1 POP JUMP JUMPDEST PUSH2 0xBA6 DUP2 PUSH2 0xAB9 JUMP JUMPDEST DUP3 MSTORE POP POP JUMP JUMPDEST PUSH2 0xBB5 DUP2 PUSH2 0xA05 JUMP JUMPDEST DUP3 MSTORE POP POP JUMP JUMPDEST PUSH1 0x40 DUP3 ADD PUSH0 DUP3 ADD MLOAD PUSH2 0xBCF PUSH0 DUP6 ADD DUP3 PUSH2 0xB9D JUMP JUMPDEST POP PUSH1 0x20 DUP3 ADD MLOAD PUSH2 0xBE2 PUSH1 0x20 DUP6 ADD DUP3 PUSH2 0xBAC JUMP JUMPDEST POP POP POP POP JUMP JUMPDEST PUSH0 PUSH2 0xBF3 DUP4 DUP4 PUSH2 0xBBB JUMP JUMPDEST PUSH1 0x40 DUP4 ADD SWAP1 POP SWAP3 SWAP2 POP POP JUMP JUMPDEST PUSH0 PUSH1 0x20 DUP3 ADD SWAP1 POP SWAP2 SWAP1 POP JUMP JUMPDEST PUSH0 PUSH2 0xC15 DUP3 PUSH2 0xB74 JUMP JUMPDEST PUSH2 0xC1F DUP2 DUP6 PUSH2 0xB7E JUMP JUMPDEST SWAP4 POP PUSH2 0xC2A DUP4 PUSH2 0xB8E JUMP JUMPDEST DUP1 PUSH0 JUMPDEST DUP4 DUP2 LT ISZERO PUSH2 0xC5A JUMPI DUP2 MLOAD PUSH2 0xC41 DUP9 DUP3 PUSH2 0xBE8 JUMP JUMPDEST SWAP8 POP PUSH2 0xC4C DUP4 PUSH2 0xBFF JUMP JUMPDEST SWAP3 POP POP PUSH1 0x1 DUP2 ADD SWAP1 POP PUSH2 0xC2D JUMP JUMPDEST POP DUP6 SWAP4 POP POP POP POP SWAP3 SWAP2 POP POP JUMP JUMPDEST PUSH0 PUSH1 0x20 DUP3 ADD SWAP1 POP DUP2 DUP2 SUB PUSH0 DUP4 ADD MSTORE PUSH2 0xC7F DUP2 DUP5 PUSH2 0xC0B JUMP JUMPDEST SWAP1 POP SWAP3 SWAP2 POP POP JUMP JUMPDEST PUSH2 0xC90 DUP2 PUSH2 0xAB9 JUMP JUMPDEST DUP3 MSTORE POP POP JUMP JUMPDEST PUSH0 PUSH1 0x20 DUP3 ADD SWAP1 POP PUSH2 0xCA9 PUSH0 DUP4 ADD DUP5 PUSH2 0xC87 JUMP JUMPDEST SWAP3 SWAP2 POP POP JUMP JUMPDEST PUSH0 PUSH1 0x40 DUP3 ADD SWAP1 POP PUSH2 0xCC2 PUSH0 DUP4 ADD DUP6 PUSH2 0xC87 JUMP JUMPDEST PUSH2 0xCCF PUSH1 0x20 DUP4 ADD DUP5 PUSH2 0xA6E JUMP JUMPDEST SWAP4 SWAP3 POP POP POP JUMP JUMPDEST PUSH32 0x4E487B7100000000000000000000000000000000000000000000000000000000 PUSH0 MSTORE PUSH1 0x32 PUSH1 0x4 MSTORE PUSH1 0x24 PUSH0 REVERT JUMPDEST PUSH0 DUP3 DUP3 MSTORE PUSH1 0x20 DUP3 ADD SWAP1 POP SWAP3 SWAP2 POP POP JUMP JUMPDEST PUSH32 0x4E6F6574206F776E657200000000000000000000000000000000000000000000 PUSH0 DUP3 ADD MSTORE POP JUMP JUMPDEST PUSH0 PUSH2 0xD47 PUSH1 0xA DUP4 PUSH2 0xD03 JUMP JUMPDEST SWAP2 POP PUSH2 0xD52 DUP3 PUSH2 0xD13 JUMP JUMPDEST PUSH1 0x20 DUP3 ADD SWAP1 POP SWAP2 SWAP1 POP JUMP JUMPDEST PUSH0 PUSH1 0x20 DUP3 ADD SWAP1 POP DUP2 DUP2 SUB PUSH0 DUP4 ADD MSTORE PUSH2 0xD74 DUP2 PUSH2 0xD3B JUMP JUMPDEST SWAP1 POP SWAP2 SWAP1 POP JUMP JUMPDEST PUSH32 0x626967676572207468656E20302E3120697320616C6C6F776400000000000000 PUSH0 DUP3 ADD MSTORE POP JUMP JUMPDEST PUSH0 PUSH2 0xDAF PUSH1 0x19 DUP4 PUSH2 0xD03 JUMP JUMPDEST SWAP2 POP PUSH2 0xDBA DUP3 PUSH2 0xD7B JUMP JUMPDEST PUSH1 0x20 DUP3 ADD SWAP1 POP SWAP2 SWAP1 POP JUMP JUMPDEST PUSH0 PUSH1 0x20 DUP3 ADD SWAP1 POP DUP2 DUP2 SUB PUSH0 DUP4 ADD MSTORE PUSH2 0xDDC DUP2 PUSH2 0xDA3 JUMP JUMPDEST SWAP1 POP SWAP2 SWAP1 POP JUMP JUMPDEST PUSH32 0x416D6F756E74206D69736D6174636820776974682076616C75652073656E7400 PUSH0 DUP3 ADD MSTORE POP JUMP JUMPDEST PUSH0 PUSH2 0xE17 PUSH1 0x1F DUP4 PUSH2 0xD03 JUMP JUMPDEST SWAP2 POP PUSH2 0xE22 DUP3 PUSH2 0xDE3 JUMP JUMPDEST PUSH1 0x20 DUP3 ADD SWAP1 POP SWAP2 SWAP1 POP JUMP JUMPDEST PUSH0 PUSH1 0x20 DUP3 ADD SWAP1 POP DUP2 DUP2 SUB PUSH0 DUP4 ADD MSTORE PUSH2 0xE44 DUP2 PUSH2 0xE0B JUMP JUMPDEST SWAP1 POP SWAP2 SWAP1 POP JUMP INVALID LOG2 PUSH5 0x6970667358 0x22 SLT KECCAK256 SWAP13 PUSH16 0x338881CD396B235A9359DD12AAE22B7B 0x2E PUSH0 LOG0 0x28 0x4E INVALID CODECOPY RETURNDATACOPY STATICCALL 0xA6 XOR PUSH26 0xA2A764736F6C634300081E003300000000000000000000000000 "
				},
				"gasEstimates": {
					"creation": {
						"codeDepositCost": "742600",
						"executionCost": "infinite",
						"totalCost": "infinite"
					},
					"external": {
						"balances(address)": "2825",
						"deposit(uint256)": "infinite",
						"getBalances()": "2520",
						"getOwner()": "2514",
						"getTopDepositors()": "infinite",
						"owner()": "2529",
						"tops(uint256)": "infinite",
						"withdraw(uint256)": "infinite"
					}
				},
				"methodIdentifiers": {
					"balances(address)": "27e235e3",
					"deposit(uint256)": "b6b55f25",
					"getBalances()": "00113e08",
					"getOwner()": "893d20e8",
					"getTopDepositors()": "81454f71",
					"owner()": "8da5cb5b",
					"tops(uint256)": "a7211664",
					"withdraw(uint256)": "2e1a7d4d"
				}
			},
			"storageLayout": {
				"storage": [
					{
						"astId": 3,
						"contract": "tests/bankOwnerTest.sol:bigBank",
						"label": "owner",
						"offset": 0,
						"slot": "0",
						"type": "t_address"
					},
					{
						"astId": 19,
						"contract": "tests/bankOwnerTest.sol:bigBank",
						"label": "balances",
						"offset": 0,
						"slot": "1",
						"type": "t_mapping(t_address,t_uint256)"
					},
					{
						"astId": 28,
						"contract": "tests/bankOwnerTest.sol:bigBank",
						"label": "tops",
						"offset": 0,
						"slot": "2",
						"type": "t_array(t_struct(TopDepositor)24_storage)dyn_storage"
					}
				],
				"types": {
					"t_address": {
						"encoding": "inplace",
						"label": "address",
						"numberOfBytes": "20"
					},
					"t_array(t_struct(TopDepositor)24_storage)dyn_storage": {
						"base": "t_struct(TopDepositor)24_storage",
						"encoding": "dynamic_array",
						"label": "struct Bank.TopDepositor[]",
						"numberOfBytes": "32"
					},
					"t_mapping(t_address,t_uint256)": {
						"encoding": "mapping",
						"key": "t_address",
						"label": "mapping(address => uint256)",
						"numberOfBytes": "32",
						"value": "t_uint256"
					},
					"t_struct(TopDepositor)24_storage": {
						"encoding": "inplace",
						"label": "struct Bank.TopDepositor",
						"members": [
							{
								"astId": 21,
								"contract": "tests/bankOwnerTest.sol:bigBank",
								"label": "addr",
								"offset": 0,
								"slot": "0",
								"type": "t_address"
							},
							{
								"astId": 23,
								"contract": "tests/bankOwnerTest.sol:bigBank",
								"label": "amount",
								"offset": 0,
								"slot": "1",
								"type": "t_uint256"
							}
						],
						"numberOfBytes": "64"
					},
					"t_uint256": {
						"encoding": "inplace",
						"label": "uint256",
						"numberOfBytes": "32"
					}
				}
			},
			"userdoc": {
				"kind": "user",
				"methods": {},
				"version": 1
			}
		}
	}
}