{
	"tests/bank1.sol": {
		"Bank": {
			"abi": [
				{
					"inputs": [],
					"stateMutability": "nonpayable",
					"type": "constructor"
				},
				{
					"inputs": [
						{
							"internalType": "address",
							"name": "",
							"type": "address"
						}
					],
					"name": "balances",
					"outputs": [
						{
							"internalType": "uint256",
							"name": "",
							"type": "uint256"
						}
					],
					"stateMutability": "view",
					"type": "function"
				},
				{
					"inputs": [
						{
							"internalType": "uint256",
							"name": "amount",
							"type": "uint256"
						}
					],
					"name": "deposit",
					"outputs": [],
					"stateMutability": "payable",
					"type": "function"
				},
				{
					"inputs": [],
					"name": "getBalances",
					"outputs": [
						{
							"internalType": "uint256",
							"name": "",
							"type": "uint256"
						}
					],
					"stateMutability": "view",
					"type": "function"
				},
				{
					"inputs": [],
					"name": "getOwner",
					"outputs": [
						{
							"internalType": "address",
							"name": "",
							"type": "address"
						}
					],
					"stateMutability": "view",
					"type": "function"
				},
				{
					"inputs": [],
					"name": "getTopDepositors",
					"outputs": [
						{
							"components": [
								{
									"internalType": "address",
									"name": "addr",
									"type": "address"
								},
								{
									"internalType": "uint256",
									"name": "amount",
									"type": "uint256"
								}
							],
							"internalType": "struct Bank.TopDepositor[]",
							"name": "",
							"type": "tuple[]"
						}
					],
					"stateMutability": "view",
					"type": "function"
				},
				{
					"inputs": [],
					"name": "owner",
					"outputs": [
						{
							"internalType": "address",
							"name": "",
							"type": "address"
						}
					],
					"stateMutability": "view",
					"type": "function"
				},
				{
					"inputs": [
						{
							"internalType": "uint256",
							"name": "",
							"type": "uint256"
						}
					],
					"name": "tops",
					"outputs": [
						{
							"internalType": "address",
							"name": "addr",
							"type": "address"
						},
						{
							"internalType": "uint256",
							"name": "amount",
							"type": "uint256"
						}
					],
					"stateMutability": "view",
					"type": "function"
				},
				{
					"inputs": [
						{
							"internalType": "uint256",
							"name": "money",
							"type": "uint256"
						}
					],
					"name": "withdraw",
					"outputs": [],
					"stateMutability": "nonpayable",
					"type": "function"
				},
				{
					"stateMutability": "payable",
					"type": "receive"
				}
			],
			"devdoc": {
				"kind": "dev",
				"methods": {},
				"version": 1
			},
			"evm": {
				"assembly": "    /* \"tests/bank1.sol\":167:2436  contract Bank {... */\n  mstore(0x40, 0x80)\n    /* \"tests/bank1.sol\":511:694  constructor() {... */\n  callvalue\n  dup1\n  iszero\n  tag_1\n  jumpi\n  revert(0x00, 0x00)\ntag_1:\n  pop\n    /* \"tests/bank1.sol\":543:553  msg.sender */\n  caller\n    /* \"tests/bank1.sol\":535:540  owner */\n  0x00\n  0x00\n    /* \"tests/bank1.sol\":535:553  owner = msg.sender */\n  0x0100\n  exp\n  dup2\n  sload\n  dup2\n  0xffffffffffffffffffffffffffffffffffffffff\n  mul\n  not\n  and\n  swap1\n  dup4\n  0xffffffffffffffffffffffffffffffffffffffff\n  and\n  mul\n  or\n  swap1\n  sstore\n  pop\n    /* \"tests/bank1.sol\":598:607  uint256 i */\n  0x00\n    /* \"tests/bank1.sol\":610:611  0 */\n  0x00\n    /* \"tests/bank1.sol\":598:611  uint256 i = 0 */\n  swap1\n  pop\n    /* \"tests/bank1.sol\":593:688  for (uint256 i = 0; i < 3; i++) {... */\ntag_4:\n    /* \"tests/bank1.sol\":617:618  3 */\n  0x03\n    /* \"tests/bank1.sol\":613:614  i */\n  dup2\n    /* \"tests/bank1.sol\":613:618  i < 3 */\n  lt\n    /* \"tests/bank1.sol\":593:688  for (uint256 i = 0; i < 3; i++) {... */\n  iszero\n  tag_5\n  jumpi\n    /* \"tests/bank1.sol\":639:643  tops */\n  0x02\n    /* \"tests/bank1.sol\":649:676  TopDepositor(address(0), 0) */\n  mload(0x40)\n  dup1\n  0x40\n  add\n  0x40\n  mstore\n  dup1\n    /* \"tests/bank1.sol\":670:671  0 */\n  0x00\n    /* \"tests/bank1.sol\":649:676  TopDepositor(address(0), 0) */\n  0xffffffffffffffffffffffffffffffffffffffff\n  and\n  dup2\n  mstore\n  0x20\n  add\n    /* \"tests/bank1.sol\":674:675  0 */\n  0x00\n    /* \"tests/bank1.sol\":649:676  TopDepositor(address(0), 0) */\n  dup2\n  mstore\n  pop\n    /* \"tests/bank1.sol\":639:677  tops.push(TopDepositor(address(0), 0)) */\n  swap1\n  dup1\n  0x01\n  dup2\n  sload\n  add\n  dup1\n  dup3\n  sstore\n  dup1\n  swap2\n  pop\n  pop\n  0x01\n  swap1\n  sub\n  swap1\n  0x00\n  mstore\n  keccak256(0x00, 0x20)\n  swap1\n  0x02\n  mul\n  add\n  0x00\n  swap1\n  swap2\n  swap1\n  swap2\n  swap1\n  swap2\n  pop\n  0x00\n  dup3\n  add\n  mload\n  dup2\n  0x00\n  add\n  exp(0x0100, 0x00)\n  dup2\n  sload\n  dup2\n  0xffffffffffffffffffffffffffffffffffffffff\n  mul\n  not\n  and\n  swap1\n  dup4\n  0xffffffffffffffffffffffffffffffffffffffff\n  and\n  mul\n  or\n  swap1\n  sstore\n  pop\n  0x20\n  dup3\n  add\n  mload\n  dup2\n  0x01\n  add\n  sstore\n  pop\n  pop\n    /* \"tests/bank1.sol\":620:623  i++ */\n  dup1\n  dup1\n  0x01\n  add\n  swap2\n  pop\n  pop\n    /* \"tests/bank1.sol\":593:688  for (uint256 i = 0; i < 3; i++) {... */\n  jump(tag_4)\ntag_5:\n  pop\n    /* \"tests/bank1.sol\":167:2436  contract Bank {... */\n  dataSize(sub_0)\n  dup1\n  dataOffset(sub_0)\n  0x00\n  codecopy\n  0x00\n  return\nstop\n\nsub_0: assembly {\n        /* \"tests/bank1.sol\":167:2436  contract Bank {... */\n      mstore(0x40, 0x80)\n      jumpi(tag_1, lt(calldatasize, 0x04))\n      shr(0xe0, calldataload(0x00))\n      dup1\n      0x893d20e8\n      gt\n      tag_11\n      jumpi\n      dup1\n      0x893d20e8\n      eq\n      tag_7\n      jumpi\n      dup1\n      0x8da5cb5b\n      eq\n      tag_8\n      jumpi\n      dup1\n      0xa7211664\n      eq\n      tag_9\n      jumpi\n      dup1\n      0xb6b55f25\n      eq\n      tag_10\n      jumpi\n      jump(tag_2)\n    tag_11:\n      dup1\n      0x113e08\n      eq\n      tag_3\n      jumpi\n      dup1\n      0x27e235e3\n      eq\n      tag_4\n      jumpi\n      dup1\n      0x2e1a7d4d\n      eq\n      tag_5\n      jumpi\n      dup1\n      0x81454f71\n      eq\n      tag_6\n      jumpi\n      jump(tag_2)\n    tag_1:\n      jumpi(tag_2, calldatasize)\n        /* \"tests/bank1.sol\":2359:2368  msg.value */\n      callvalue\n        /* \"tests/bank1.sol\":2335:2343  balances */\n      0x01\n        /* \"tests/bank1.sol\":2335:2355  balances[msg.sender] */\n      0x00\n        /* \"tests/bank1.sol\":2344:2354  msg.sender */\n      caller\n        /* \"tests/bank1.sol\":2335:2355  balances[msg.sender] */\n      0xffffffffffffffffffffffffffffffffffffffff\n      and\n      0xffffffffffffffffffffffffffffffffffffffff\n      and\n      dup2\n      mstore\n      0x20\n      add\n      swap1\n      dup2\n      mstore\n      0x20\n      add\n      0x00\n      keccak256\n      0x00\n        /* \"tests/bank1.sol\":2335:2368  balances[msg.sender] += msg.value */\n      dup3\n      dup3\n      sload\n      tag_14\n      swap2\n      swap1\n      tag_15\n      jump\t// in\n    tag_14:\n      swap3\n      pop\n      pop\n      dup2\n      swap1\n      sstore\n      pop\n        /* \"tests/bank1.sol\":2404:2427  _updateTops(msg.sender) */\n      tag_16\n        /* \"tests/bank1.sol\":2416:2426  msg.sender */\n      caller\n        /* \"tests/bank1.sol\":2404:2415  _updateTops */\n      tag_17\n        /* \"tests/bank1.sol\":2404:2427  _updateTops(msg.sender) */\n      jump\t// in\n    tag_16:\n        /* \"tests/bank1.sol\":167:2436  contract Bank {... */\n      stop\n    tag_2:\n      revert(0x00, 0x00)\n        /* \"tests/bank1.sol\":1021:1118  function getBalances() public view returns (uint256) {... */\n    tag_3:\n      callvalue\n      dup1\n      iszero\n      tag_18\n      jumpi\n      revert(0x00, 0x00)\n    tag_18:\n      pop\n      tag_19\n      tag_20\n      jump\t// in\n    tag_19:\n      mload(0x40)\n      tag_21\n      swap2\n      swap1\n      tag_22\n      jump\t// in\n    tag_21:\n      mload(0x40)\n      dup1\n      swap2\n      sub\n      swap1\n      return\n        /* \"tests/bank1.sol\":312:355  mapping(address => uint256) public balances */\n    tag_4:\n      callvalue\n      dup1\n      iszero\n      tag_23\n      jumpi\n      revert(0x00, 0x00)\n    tag_23:\n      pop\n      tag_24\n      0x04\n      dup1\n      calldatasize\n      sub\n      dup2\n      add\n      swap1\n      tag_25\n      swap2\n      swap1\n      tag_26\n      jump\t// in\n    tag_25:\n      tag_27\n      jump\t// in\n    tag_24:\n      mload(0x40)\n      tag_28\n      swap2\n      swap1\n      tag_22\n      jump\t// in\n    tag_28:\n      mload(0x40)\n      dup1\n      swap2\n      sub\n      swap1\n      return\n        /* \"tests/bank1.sol\":1124:1225  function withdraw(uint256 money) public onlyOwner{... */\n    tag_5:\n      callvalue\n      dup1\n      iszero\n      tag_29\n      jumpi\n      revert(0x00, 0x00)\n    tag_29:\n      pop\n      tag_30\n      0x04\n      dup1\n      calldatasize\n      sub\n      dup2\n      add\n      swap1\n      tag_31\n      swap2\n      swap1\n      tag_32\n      jump\t// in\n    tag_31:\n      tag_33\n      jump\t// in\n    tag_30:\n      stop\n        /* \"tests/bank1.sol\":1820:1920  function getTopDepositors() public view returns (TopDepositor[] memory) {... */\n    tag_6:\n      callvalue\n      dup1\n      iszero\n      tag_34\n      jumpi\n      revert(0x00, 0x00)\n    tag_34:\n      pop\n      tag_35\n      tag_36\n      jump\t// in\n    tag_35:\n      mload(0x40)\n      tag_37\n      swap2\n      swap1\n      tag_38\n      jump\t// in\n    tag_37:\n      mload(0x40)\n      dup1\n      swap2\n      sub\n      swap1\n      return\n        /* \"tests/bank1.sol\":700:779  function getOwner() public view returns (address) {... */\n    tag_7:\n      callvalue\n      dup1\n      iszero\n      tag_39\n      jumpi\n      revert(0x00, 0x00)\n    tag_39:\n      pop\n      tag_40\n      tag_41\n      jump\t// in\n    tag_40:\n      mload(0x40)\n      tag_42\n      swap2\n      swap1\n      tag_43\n      jump\t// in\n    tag_42:\n      mload(0x40)\n      dup1\n      swap2\n      sub\n      swap1\n      return\n        /* \"tests/bank1.sol\":188:208  address public owner */\n    tag_8:\n      callvalue\n      dup1\n      iszero\n      tag_44\n      jumpi\n      revert(0x00, 0x00)\n    tag_44:\n      pop\n      tag_45\n      tag_46\n      jump\t// in\n    tag_45:\n      mload(0x40)\n      tag_47\n      swap2\n      swap1\n      tag_43\n      jump\t// in\n    tag_47:\n      mload(0x40)\n      dup1\n      swap2\n      sub\n      swap1\n      return\n        /* \"tests/bank1.sol\":478:504  TopDepositor[] public tops */\n    tag_9:\n      callvalue\n      dup1\n      iszero\n      tag_48\n      jumpi\n      revert(0x00, 0x00)\n    tag_48:\n      pop\n      tag_49\n      0x04\n      dup1\n      calldatasize\n      sub\n      dup2\n      add\n      swap1\n      tag_50\n      swap2\n      swap1\n      tag_32\n      jump\t// in\n    tag_50:\n      tag_51\n      jump\t// in\n    tag_49:\n      mload(0x40)\n      tag_52\n      swap3\n      swap2\n      swap1\n      tag_53\n      jump\t// in\n    tag_52:\n      mload(0x40)\n      dup1\n      swap2\n      sub\n      swap1\n      return\n        /* \"tests/bank1.sol\":785:1015  function deposit(uint256 amount) public payable {... */\n    tag_10:\n      tag_54\n      0x04\n      dup1\n      calldatasize\n      sub\n      dup2\n      add\n      swap1\n      tag_55\n      swap2\n      swap1\n      tag_32\n      jump\t// in\n    tag_55:\n      tag_56\n      jump\t// in\n    tag_54:\n      stop\n        /* \"tests/bank1.sol\":1268:1814  function _updateTops(address depositor) internal {... */\n    tag_17:\n        /* \"tests/bank1.sol\":1327:1341  uint256 amount */\n      0x00\n        /* \"tests/bank1.sol\":1344:1352  balances */\n      0x01\n        /* \"tests/bank1.sol\":1344:1363  balances[depositor] */\n      0x00\n        /* \"tests/bank1.sol\":1353:1362  depositor */\n      dup4\n        /* \"tests/bank1.sol\":1344:1363  balances[depositor] */\n      0xffffffffffffffffffffffffffffffffffffffff\n      and\n      0xffffffffffffffffffffffffffffffffffffffff\n      and\n      dup2\n      mstore\n      0x20\n      add\n      swap1\n      dup2\n      mstore\n      0x20\n      add\n      0x00\n      keccak256\n      sload\n        /* \"tests/bank1.sol\":1327:1363  uint256 amount = balances[depositor] */\n      swap1\n      pop\n        /* \"tests/bank1.sol\":1378:1387  uint256 i */\n      0x00\n        /* \"tests/bank1.sol\":1390:1391  0 */\n      0x00\n        /* \"tests/bank1.sol\":1378:1391  uint256 i = 0 */\n      swap1\n      pop\n        /* \"tests/bank1.sol\":1373:1578  for (uint256 i = 0; i < 3; i++) {... */\n    tag_58:\n        /* \"tests/bank1.sol\":1397:1398  3 */\n      0x03\n        /* \"tests/bank1.sol\":1393:1394  i */\n      dup2\n        /* \"tests/bank1.sol\":1393:1398  i < 3 */\n      lt\n        /* \"tests/bank1.sol\":1373:1578  for (uint256 i = 0; i < 3; i++) {... */\n      iszero\n      tag_59\n      jumpi\n        /* \"tests/bank1.sol\":1439:1448  depositor */\n      dup3\n        /* \"tests/bank1.sol\":1423:1448  tops[i].addr == depositor */\n      0xffffffffffffffffffffffffffffffffffffffff\n      and\n        /* \"tests/bank1.sol\":1423:1427  tops */\n      0x02\n        /* \"tests/bank1.sol\":1428:1429  i */\n      dup3\n        /* \"tests/bank1.sol\":1423:1430  tops[i] */\n      dup2\n      sload\n      dup2\n      lt\n      tag_61\n      jumpi\n      tag_62\n      tag_63\n      jump\t// in\n    tag_62:\n    tag_61:\n      swap1\n      0x00\n      mstore\n      keccak256(0x00, 0x20)\n      swap1\n      0x02\n      mul\n      add\n        /* \"tests/bank1.sol\":1423:1435  tops[i].addr */\n      0x00\n      add\n      0x00\n      swap1\n      sload\n      swap1\n      0x0100\n      exp\n      swap1\n      div\n      0xffffffffffffffffffffffffffffffffffffffff\n      and\n        /* \"tests/bank1.sol\":1423:1448  tops[i].addr == depositor */\n      0xffffffffffffffffffffffffffffffffffffffff\n      and\n      sub\n        /* \"tests/bank1.sol\":1419:1568  if (tops[i].addr == depositor) {... */\n      tag_65\n      jumpi\n        /* \"tests/bank1.sol\":1485:1491  amount */\n      dup2\n        /* \"tests/bank1.sol\":1468:1472  tops */\n      0x02\n        /* \"tests/bank1.sol\":1473:1474  i */\n      dup3\n        /* \"tests/bank1.sol\":1468:1475  tops[i] */\n      dup2\n      sload\n      dup2\n      lt\n      tag_66\n      jumpi\n      tag_67\n      tag_63\n      jump\t// in\n    tag_67:\n    tag_66:\n      swap1\n      0x00\n      mstore\n      keccak256(0x00, 0x20)\n      swap1\n      0x02\n      mul\n      add\n        /* \"tests/bank1.sol\":1468:1482  tops[i].amount */\n      0x01\n      add\n        /* \"tests/bank1.sol\":1468:1491  tops[i].amount = amount */\n      dup2\n      swap1\n      sstore\n      pop\n        /* \"tests/bank1.sol\":1509:1529  _sortTopDepositors() */\n      tag_69\n        /* \"tests/bank1.sol\":1509:1527  _sortTopDepositors */\n      tag_70\n        /* \"tests/bank1.sol\":1509:1529  _sortTopDepositors() */\n      jump\t// in\n    tag_69:\n        /* \"tests/bank1.sol\":1547:1554  return; */\n      pop\n      pop\n      jump(tag_57)\n        /* \"tests/bank1.sol\":1419:1568  if (tops[i].addr == depositor) {... */\n    tag_65:\n        /* \"tests/bank1.sol\":1400:1403  i++ */\n      dup1\n      dup1\n      0x01\n      add\n      swap2\n      pop\n      pop\n        /* \"tests/bank1.sol\":1373:1578  for (uint256 i = 0; i < 3; i++) {... */\n      jump(tag_58)\n    tag_59:\n      pop\n        /* \"tests/bank1.sol\":1592:1601  uint256 i */\n      0x00\n        /* \"tests/bank1.sol\":1604:1605  0 */\n      0x00\n        /* \"tests/bank1.sol\":1592:1605  uint256 i = 0 */\n      swap1\n      pop\n        /* \"tests/bank1.sol\":1587:1808  for (uint256 i = 0; i < 3; i++) {... */\n    tag_71:\n        /* \"tests/bank1.sol\":1611:1612  3 */\n      0x03\n        /* \"tests/bank1.sol\":1607:1608  i */\n      dup2\n        /* \"tests/bank1.sol\":1607:1612  i < 3 */\n      lt\n        /* \"tests/bank1.sol\":1587:1808  for (uint256 i = 0; i < 3; i++) {... */\n      iszero\n      tag_72\n      jumpi\n        /* \"tests/bank1.sol\":1646:1650  tops */\n      0x02\n        /* \"tests/bank1.sol\":1651:1652  i */\n      dup2\n        /* \"tests/bank1.sol\":1646:1653  tops[i] */\n      dup2\n      sload\n      dup2\n      lt\n      tag_74\n      jumpi\n      tag_75\n      tag_63\n      jump\t// in\n    tag_75:\n    tag_74:\n      swap1\n      0x00\n      mstore\n      keccak256(0x00, 0x20)\n      swap1\n      0x02\n      mul\n      add\n        /* \"tests/bank1.sol\":1646:1660  tops[i].amount */\n      0x01\n      add\n      sload\n        /* \"tests/bank1.sol\":1637:1643  amount */\n      dup3\n        /* \"tests/bank1.sol\":1637:1660  amount > tops[i].amount */\n      gt\n        /* \"tests/bank1.sol\":1633:1798  if (amount > tops[i].amount) {... */\n      iszero\n      tag_77\n      jumpi\n        /* \"tests/bank1.sol\":1690:1721  TopDepositor(depositor, amount) */\n      mload(0x40)\n      dup1\n      0x40\n      add\n      0x40\n      mstore\n      dup1\n        /* \"tests/bank1.sol\":1703:1712  depositor */\n      dup5\n        /* \"tests/bank1.sol\":1690:1721  TopDepositor(depositor, amount) */\n      0xffffffffffffffffffffffffffffffffffffffff\n      and\n      dup2\n      mstore\n      0x20\n      add\n        /* \"tests/bank1.sol\":1714:1720  amount */\n      dup4\n        /* \"tests/bank1.sol\":1690:1721  TopDepositor(depositor, amount) */\n      dup2\n      mstore\n      pop\n        /* \"tests/bank1.sol\":1680:1684  tops */\n      0x02\n        /* \"tests/bank1.sol\":1685:1686  i */\n      dup3\n        /* \"tests/bank1.sol\":1680:1687  tops[i] */\n      dup2\n      sload\n      dup2\n      lt\n      tag_78\n      jumpi\n      tag_79\n      tag_63\n      jump\t// in\n    tag_79:\n    tag_78:\n      swap1\n      0x00\n      mstore\n      keccak256(0x00, 0x20)\n      swap1\n      0x02\n      mul\n      add\n        /* \"tests/bank1.sol\":1680:1721  tops[i] = TopDepositor(depositor, amount) */\n      0x00\n      dup3\n      add\n      mload\n      dup2\n      0x00\n      add\n      exp(0x0100, 0x00)\n      dup2\n      sload\n      dup2\n      0xffffffffffffffffffffffffffffffffffffffff\n      mul\n      not\n      and\n      swap1\n      dup4\n      0xffffffffffffffffffffffffffffffffffffffff\n      and\n      mul\n      or\n      swap1\n      sstore\n      pop\n      0x20\n      dup3\n      add\n      mload\n      dup2\n      0x01\n      add\n      sstore\n      swap1\n      pop\n      pop\n        /* \"tests/bank1.sol\":1739:1759  _sortTopDepositors() */\n      tag_81\n        /* \"tests/bank1.sol\":1739:1757  _sortTopDepositors */\n      tag_70\n        /* \"tests/bank1.sol\":1739:1759  _sortTopDepositors() */\n      jump\t// in\n    tag_81:\n        /* \"tests/bank1.sol\":1777:1784  return; */\n      pop\n      pop\n      jump(tag_57)\n        /* \"tests/bank1.sol\":1633:1798  if (amount > tops[i].amount) {... */\n    tag_77:\n        /* \"tests/bank1.sol\":1614:1617  i++ */\n      dup1\n      dup1\n      0x01\n      add\n      swap2\n      pop\n      pop\n        /* \"tests/bank1.sol\":1587:1808  for (uint256 i = 0; i < 3; i++) {... */\n      jump(tag_71)\n    tag_72:\n      pop\n        /* \"tests/bank1.sol\":1317:1814  {... */\n      pop\n        /* \"tests/bank1.sol\":1268:1814  function _updateTops(address depositor) internal {... */\n    tag_57:\n      pop\n      jump\t// out\n        /* \"tests/bank1.sol\":1021:1118  function getBalances() public view returns (uint256) {... */\n    tag_20:\n        /* \"tests/bank1.sol\":1065:1072  uint256 */\n      0x00\n        /* \"tests/bank1.sol\":1091:1099  balances */\n      0x01\n        /* \"tests/bank1.sol\":1091:1111  balances[msg.sender] */\n      0x00\n        /* \"tests/bank1.sol\":1100:1110  msg.sender */\n      caller\n        /* \"tests/bank1.sol\":1091:1111  balances[msg.sender] */\n      0xffffffffffffffffffffffffffffffffffffffff\n      and\n      0xffffffffffffffffffffffffffffffffffffffff\n      and\n      dup2\n      mstore\n      0x20\n      add\n      swap1\n      dup2\n      mstore\n      0x20\n      add\n      0x00\n      keccak256\n      sload\n        /* \"tests/bank1.sol\":1084:1111  return balances[msg.sender] */\n      swap1\n      pop\n        /* \"tests/bank1.sol\":1021:1118  function getBalances() public view returns (uint256) {... */\n      swap1\n      jump\t// out\n        /* \"tests/bank1.sol\":312:355  mapping(address => uint256) public balances */\n    tag_27:\n      mstore(0x20, 0x01)\n      dup1\n      0x00\n      mstore\n      keccak256(0x00, 0x40)\n      0x00\n      swap2\n      pop\n      swap1\n      pop\n      sload\n      dup2\n      jump\t// out\n        /* \"tests/bank1.sol\":1124:1225  function withdraw(uint256 money) public onlyOwner{... */\n    tag_33:\n        /* \"tests/bank1.sol\":268:273  owner */\n      0x00\n      0x00\n      swap1\n      sload\n      swap1\n      0x0100\n      exp\n      swap1\n      div\n      0xffffffffffffffffffffffffffffffffffffffff\n      and\n        /* \"tests/bank1.sol\":254:273  msg.sender == owner */\n      0xffffffffffffffffffffffffffffffffffffffff\n      and\n        /* \"tests/bank1.sol\":254:264  msg.sender */\n      caller\n        /* \"tests/bank1.sol\":254:273  msg.sender == owner */\n      0xffffffffffffffffffffffffffffffffffffffff\n      and\n      eq\n        /* \"tests/bank1.sol\":246:288  require(msg.sender == owner, \"Noet owner\") */\n      tag_84\n      jumpi\n      mload(0x40)\n      0x08c379a000000000000000000000000000000000000000000000000000000000\n      dup2\n      mstore\n      0x04\n      add\n      tag_85\n      swap1\n      tag_86\n      jump\t// in\n    tag_85:\n      mload(0x40)\n      dup1\n      swap2\n      sub\n      swap1\n      revert\n    tag_84:\n        /* \"tests/bank1.sol\":1191:1201  msg.sender */\n      caller\n        /* \"tests/bank1.sol\":1183:1211  payable(msg.sender).transfer */\n      0xffffffffffffffffffffffffffffffffffffffff\n      and\n        /* \"tests/bank1.sol\":1183:1218  payable(msg.sender).transfer(money) */\n      0x08fc\n        /* \"tests/bank1.sol\":1212:1217  money */\n      dup3\n        /* \"tests/bank1.sol\":1183:1218  payable(msg.sender).transfer(money) */\n      swap1\n      dup2\n      iszero\n      mul\n      swap1\n      mload(0x40)\n      0x00\n      mload(0x40)\n      dup1\n      dup4\n      sub\n      dup2\n      dup6\n      dup9\n      dup9\n      call\n      swap4\n      pop\n      pop\n      pop\n      pop\n      iszero\n      dup1\n      iszero\n      tag_89\n      jumpi\n      returndatacopy(0x00, 0x00, returndatasize)\n      revert(0x00, returndatasize)\n    tag_89:\n      pop\n        /* \"tests/bank1.sol\":1124:1225  function withdraw(uint256 money) public onlyOwner{... */\n      pop\n      jump\t// out\n        /* \"tests/bank1.sol\":1820:1920  function getTopDepositors() public view returns (TopDepositor[] memory) {... */\n    tag_36:\n        /* \"tests/bank1.sol\":1869:1890  TopDepositor[] memory */\n      0x60\n        /* \"tests/bank1.sol\":1909:1913  tops */\n      0x02\n        /* \"tests/bank1.sol\":1902:1913  return tops */\n      dup1\n      sload\n      dup1\n      0x20\n      mul\n      0x20\n      add\n      mload(0x40)\n      swap1\n      dup2\n      add\n      0x40\n      mstore\n      dup1\n      swap3\n      swap2\n      swap1\n      dup2\n      dup2\n      mstore\n      0x20\n      add\n      0x00\n      swap1\n    tag_91:\n      dup3\n      dup3\n      lt\n      iszero\n      tag_92\n      jumpi\n      dup4\n      dup3\n      swap1\n      0x00\n      mstore\n      keccak256(0x00, 0x20)\n      swap1\n      0x02\n      mul\n      add\n      mload(0x40)\n      dup1\n      0x40\n      add\n      0x40\n      mstore\n      swap1\n      dup2\n      0x00\n      dup3\n      add\n      0x00\n      swap1\n      sload\n      swap1\n      0x0100\n      exp\n      swap1\n      div\n      0xffffffffffffffffffffffffffffffffffffffff\n      and\n      0xffffffffffffffffffffffffffffffffffffffff\n      and\n      0xffffffffffffffffffffffffffffffffffffffff\n      and\n      dup2\n      mstore\n      0x20\n      add\n      0x01\n      dup3\n      add\n      sload\n      dup2\n      mstore\n      pop\n      pop\n      dup2\n      mstore\n      0x20\n      add\n      swap1\n      0x01\n      add\n      swap1\n      jump(tag_91)\n    tag_92:\n      pop\n      pop\n      pop\n      pop\n      swap1\n      pop\n        /* \"tests/bank1.sol\":1820:1920  function getTopDepositors() public view returns (TopDepositor[] memory) {... */\n      swap1\n      jump\t// out\n        /* \"tests/bank1.sol\":700:779  function getOwner() public view returns (address) {... */\n    tag_41:\n        /* \"tests/bank1.sol\":741:748  address */\n      0x00\n        /* \"tests/bank1.sol\":767:772  owner */\n      0x00\n      0x00\n      swap1\n      sload\n      swap1\n      0x0100\n      exp\n      swap1\n      div\n      0xffffffffffffffffffffffffffffffffffffffff\n      and\n        /* \"tests/bank1.sol\":760:772  return owner */\n      swap1\n      pop\n        /* \"tests/bank1.sol\":700:779  function getOwner() public view returns (address) {... */\n      swap1\n      jump\t// out\n        /* \"tests/bank1.sol\":188:208  address public owner */\n    tag_46:\n      0x00\n      0x00\n      swap1\n      sload\n      swap1\n      0x0100\n      exp\n      swap1\n      div\n      0xffffffffffffffffffffffffffffffffffffffff\n      and\n      dup2\n      jump\t// out\n        /* \"tests/bank1.sol\":478:504  TopDepositor[] public tops */\n    tag_51:\n      0x02\n      dup2\n      dup2\n      sload\n      dup2\n      lt\n      tag_95\n      jumpi\n      0x00\n      dup1\n      revert\n    tag_95:\n      swap1\n      0x00\n      mstore\n      keccak256(0x00, 0x20)\n      swap1\n      0x02\n      mul\n      add\n      0x00\n      swap2\n      pop\n      swap1\n      pop\n      dup1\n      0x00\n      add\n      0x00\n      swap1\n      sload\n      swap1\n      0x0100\n      exp\n      swap1\n      div\n      0xffffffffffffffffffffffffffffffffffffffff\n      and\n      swap1\n      dup1\n      0x01\n      add\n      sload\n      swap1\n      pop\n      dup3\n      jump\t// out\n        /* \"tests/bank1.sol\":785:1015  function deposit(uint256 amount) public payable {... */\n    tag_56:\n        /* \"tests/bank1.sol\":864:870  amount */\n      dup1\n        /* \"tests/bank1.sol\":851:860  msg.value */\n      callvalue\n        /* \"tests/bank1.sol\":851:870  msg.value == amount */\n      eq\n        /* \"tests/bank1.sol\":843:906  require(msg.value == amount, \"Amount mismatch with value sent\") */\n      tag_98\n      jumpi\n      mload(0x40)\n      0x08c379a000000000000000000000000000000000000000000000000000000000\n      dup2\n      mstore\n      0x04\n      add\n      tag_99\n      swap1\n      tag_100\n      jump\t// in\n    tag_99:\n      mload(0x40)\n      dup1\n      swap2\n      sub\n      swap1\n      revert\n    tag_98:\n        /* \"tests/bank1.sol\":940:949  msg.value */\n      callvalue\n        /* \"tests/bank1.sol\":916:924  balances */\n      0x01\n        /* \"tests/bank1.sol\":916:936  balances[msg.sender] */\n      0x00\n        /* \"tests/bank1.sol\":925:935  msg.sender */\n      caller\n        /* \"tests/bank1.sol\":916:936  balances[msg.sender] */\n      0xffffffffffffffffffffffffffffffffffffffff\n      and\n      0xffffffffffffffffffffffffffffffffffffffff\n      and\n      dup2\n      mstore\n      0x20\n      add\n      swap1\n      dup2\n      mstore\n      0x20\n      add\n      0x00\n      keccak256\n      0x00\n        /* \"tests/bank1.sol\":916:949  balances[msg.sender] += msg.value */\n      dup3\n      dup3\n      sload\n      tag_101\n      swap2\n      swap1\n      tag_15\n      jump\t// in\n    tag_101:\n      swap3\n      pop\n      pop\n      dup2\n      swap1\n      sstore\n      pop\n        /* \"tests/bank1.sol\":985:1008  _updateTops(msg.sender) */\n      tag_102\n        /* \"tests/bank1.sol\":997:1007  msg.sender */\n      caller\n        /* \"tests/bank1.sol\":985:996  _updateTops */\n      tag_17\n        /* \"tests/bank1.sol\":985:1008  _updateTops(msg.sender) */\n      jump\t// in\n    tag_102:\n        /* \"tests/bank1.sol\":785:1015  function deposit(uint256 amount) public payable {... */\n      pop\n      jump\t// out\n        /* \"tests/bank1.sol\":1926:2292  function _sortTopDepositors() internal {... */\n    tag_70:\n        /* \"tests/bank1.sol\":1980:1989  uint256 i */\n      0x00\n        /* \"tests/bank1.sol\":1992:1993  0 */\n      0x00\n        /* \"tests/bank1.sol\":1980:1993  uint256 i = 0 */\n      swap1\n      pop\n        /* \"tests/bank1.sol\":1975:2286  for (uint256 i = 0; i < 2; i++) {... */\n    tag_104:\n        /* \"tests/bank1.sol\":1999:2000  2 */\n      0x02\n        /* \"tests/bank1.sol\":1995:1996  i */\n      dup2\n        /* \"tests/bank1.sol\":1995:2000  i < 2 */\n      lt\n        /* \"tests/bank1.sol\":1975:2286  for (uint256 i = 0; i < 2; i++) {... */\n      iszero\n      tag_105\n      jumpi\n        /* \"tests/bank1.sol\":2026:2035  uint256 j */\n      0x00\n        /* \"tests/bank1.sol\":2042:2043  1 */\n      0x01\n        /* \"tests/bank1.sol\":2038:2039  i */\n      dup3\n        /* \"tests/bank1.sol\":2038:2043  i + 1 */\n      tag_110\n      swap2\n      swap1\n      tag_15\n      jump\t// in\n    tag_110:\n        /* \"tests/bank1.sol\":2026:2043  uint256 j = i + 1 */\n      swap1\n      pop\n        /* \"tests/bank1.sol\":2021:2276  for (uint256 j = i + 1; j < 3; j++) {... */\n    tag_107:\n        /* \"tests/bank1.sol\":2049:2050  3 */\n      0x03\n        /* \"tests/bank1.sol\":2045:2046  j */\n      dup2\n        /* \"tests/bank1.sol\":2045:2050  j < 3 */\n      lt\n        /* \"tests/bank1.sol\":2021:2276  for (uint256 j = i + 1; j < 3; j++) {... */\n      iszero\n      tag_108\n      jumpi\n        /* \"tests/bank1.sol\":2096:2100  tops */\n      0x02\n        /* \"tests/bank1.sol\":2101:2102  i */\n      dup3\n        /* \"tests/bank1.sol\":2096:2103  tops[i] */\n      dup2\n      sload\n      dup2\n      lt\n      tag_111\n      jumpi\n      tag_112\n      tag_63\n      jump\t// in\n    tag_112:\n    tag_111:\n      swap1\n      0x00\n      mstore\n      keccak256(0x00, 0x20)\n      swap1\n      0x02\n      mul\n      add\n        /* \"tests/bank1.sol\":2096:2110  tops[i].amount */\n      0x01\n      add\n      sload\n        /* \"tests/bank1.sol\":2079:2083  tops */\n      0x02\n        /* \"tests/bank1.sol\":2084:2085  j */\n      dup3\n        /* \"tests/bank1.sol\":2079:2086  tops[j] */\n      dup2\n      sload\n      dup2\n      lt\n      tag_114\n      jumpi\n      tag_115\n      tag_63\n      jump\t// in\n    tag_115:\n    tag_114:\n      swap1\n      0x00\n      mstore\n      keccak256(0x00, 0x20)\n      swap1\n      0x02\n      mul\n      add\n        /* \"tests/bank1.sol\":2079:2093  tops[j].amount */\n      0x01\n      add\n      sload\n        /* \"tests/bank1.sol\":2079:2110  tops[j].amount > tops[i].amount */\n      gt\n        /* \"tests/bank1.sol\":2075:2262  if (tops[j].amount > tops[i].amount) {... */\n      iszero\n      tag_117\n      jumpi\n        /* \"tests/bank1.sol\":2134:2158  TopDepositor memory temp */\n      0x00\n        /* \"tests/bank1.sol\":2161:2165  tops */\n      0x02\n        /* \"tests/bank1.sol\":2166:2167  i */\n      dup4\n        /* \"tests/bank1.sol\":2161:2168  tops[i] */\n      dup2\n      sload\n      dup2\n      lt\n      tag_118\n      jumpi\n      tag_119\n      tag_63\n      jump\t// in\n    tag_119:\n    tag_118:\n      swap1\n      0x00\n      mstore\n      keccak256(0x00, 0x20)\n      swap1\n      0x02\n      mul\n      add\n        /* \"tests/bank1.sol\":2134:2168  TopDepositor memory temp = tops[i] */\n      mload(0x40)\n      dup1\n      0x40\n      add\n      0x40\n      mstore\n      swap1\n      dup2\n      0x00\n      dup3\n      add\n      0x00\n      swap1\n      sload\n      swap1\n      0x0100\n      exp\n      swap1\n      div\n      0xffffffffffffffffffffffffffffffffffffffff\n      and\n      0xffffffffffffffffffffffffffffffffffffffff\n      and\n      0xffffffffffffffffffffffffffffffffffffffff\n      and\n      dup2\n      mstore\n      0x20\n      add\n      0x01\n      dup3\n      add\n      sload\n      dup2\n      mstore\n      pop\n      pop\n      swap1\n      pop\n        /* \"tests/bank1.sol\":2200:2204  tops */\n      0x02\n        /* \"tests/bank1.sol\":2205:2206  j */\n      dup3\n        /* \"tests/bank1.sol\":2200:2207  tops[j] */\n      dup2\n      sload\n      dup2\n      lt\n      tag_121\n      jumpi\n      tag_122\n      tag_63\n      jump\t// in\n    tag_122:\n    tag_121:\n      swap1\n      0x00\n      mstore\n      keccak256(0x00, 0x20)\n      swap1\n      0x02\n      mul\n      add\n        /* \"tests/bank1.sol\":2190:2194  tops */\n      0x02\n        /* \"tests/bank1.sol\":2195:2196  i */\n      dup5\n        /* \"tests/bank1.sol\":2190:2197  tops[i] */\n      dup2\n      sload\n      dup2\n      lt\n      tag_124\n      jumpi\n      tag_125\n      tag_63\n      jump\t// in\n    tag_125:\n    tag_124:\n      swap1\n      0x00\n      mstore\n      keccak256(0x00, 0x20)\n      swap1\n      0x02\n      mul\n      add\n        /* \"tests/bank1.sol\":2190:2207  tops[i] = tops[j] */\n      0x00\n      dup3\n      add\n      0x00\n      swap1\n      sload\n      swap1\n      0x0100\n      exp\n      swap1\n      div\n      0xffffffffffffffffffffffffffffffffffffffff\n      and\n      dup2\n      0x00\n      add\n      exp(0x0100, 0x00)\n      dup2\n      sload\n      dup2\n      0xffffffffffffffffffffffffffffffffffffffff\n      mul\n      not\n      and\n      swap1\n      dup4\n      0xffffffffffffffffffffffffffffffffffffffff\n      and\n      mul\n      or\n      swap1\n      sstore\n      pop\n      0x01\n      dup3\n      add\n      sload\n      dup2\n      0x01\n      add\n      sstore\n      swap1\n      pop\n      pop\n        /* \"tests/bank1.sol\":2239:2243  temp */\n      dup1\n        /* \"tests/bank1.sol\":2229:2233  tops */\n      0x02\n        /* \"tests/bank1.sol\":2234:2235  j */\n      dup4\n        /* \"tests/bank1.sol\":2229:2236  tops[j] */\n      dup2\n      sload\n      dup2\n      lt\n      tag_127\n      jumpi\n      tag_128\n      tag_63\n      jump\t// in\n    tag_128:\n    tag_127:\n      swap1\n      0x00\n      mstore\n      keccak256(0x00, 0x20)\n      swap1\n      0x02\n      mul\n      add\n        /* \"tests/bank1.sol\":2229:2243  tops[j] = temp */\n      0x00\n      dup3\n      add\n      mload\n      dup2\n      0x00\n      add\n      exp(0x0100, 0x00)\n      dup2\n      sload\n      dup2\n      0xffffffffffffffffffffffffffffffffffffffff\n      mul\n      not\n      and\n      swap1\n      dup4\n      0xffffffffffffffffffffffffffffffffffffffff\n      and\n      mul\n      or\n      swap1\n      sstore\n      pop\n      0x20\n      dup3\n      add\n      mload\n      dup2\n      0x01\n      add\n      sstore\n      swap1\n      pop\n      pop\n        /* \"tests/bank1.sol\":2112:2262  {... */\n      pop\n        /* \"tests/bank1.sol\":2075:2262  if (tops[j].amount > tops[i].amount) {... */\n    tag_117:\n        /* \"tests/bank1.sol\":2052:2055  j++ */\n      dup1\n      dup1\n      0x01\n      add\n      swap2\n      pop\n      pop\n        /* \"tests/bank1.sol\":2021:2276  for (uint256 j = i + 1; j < 3; j++) {... */\n      jump(tag_107)\n    tag_108:\n      pop\n        /* \"tests/bank1.sol\":2002:2005  i++ */\n      dup1\n      dup1\n      0x01\n      add\n      swap2\n      pop\n      pop\n        /* \"tests/bank1.sol\":1975:2286  for (uint256 i = 0; i < 2; i++) {... */\n      jump(tag_104)\n    tag_105:\n      pop\n        /* \"tests/bank1.sol\":1926:2292  function _sortTopDepositors() internal {... */\n      jump\t// out\n        /* \"#utility.yul\":7:84   */\n    tag_130:\n        /* \"#utility.yul\":44:51   */\n      0x00\n        /* \"#utility.yul\":73:78   */\n      dup2\n        /* \"#utility.yul\":62:78   */\n      swap1\n      pop\n        /* \"#utility.yul\":7:84   */\n      swap2\n      swap1\n      pop\n      jump\t// out\n        /* \"#utility.yul\":90:270   */\n    tag_131:\n        /* \"#utility.yul\":138:215   */\n      0x4e487b7100000000000000000000000000000000000000000000000000000000\n        /* \"#utility.yul\":135:136   */\n      0x00\n        /* \"#utility.yul\":128:216   */\n      mstore\n        /* \"#utility.yul\":235:239   */\n      0x11\n        /* \"#utility.yul\":232:233   */\n      0x04\n        /* \"#utility.yul\":225:240   */\n      mstore\n        /* \"#utility.yul\":259:263   */\n      0x24\n        /* \"#utility.yul\":256:257   */\n      0x00\n        /* \"#utility.yul\":249:264   */\n      revert\n        /* \"#utility.yul\":276:467   */\n    tag_15:\n        /* \"#utility.yul\":316:319   */\n      0x00\n        /* \"#utility.yul\":335:355   */\n      tag_161\n        /* \"#utility.yul\":353:354   */\n      dup3\n        /* \"#utility.yul\":335:355   */\n      tag_130\n      jump\t// in\n    tag_161:\n        /* \"#utility.yul\":330:355   */\n      swap2\n      pop\n        /* \"#utility.yul\":369:389   */\n      tag_162\n        /* \"#utility.yul\":387:388   */\n      dup4\n        /* \"#utility.yul\":369:389   */\n      tag_130\n      jump\t// in\n    tag_162:\n        /* \"#utility.yul\":364:389   */\n      swap3\n      pop\n        /* \"#utility.yul\":412:413   */\n      dup3\n        /* \"#utility.yul\":409:410   */\n      dup3\n        /* \"#utility.yul\":405:414   */\n      add\n        /* \"#utility.yul\":398:414   */\n      swap1\n      pop\n        /* \"#utility.yul\":433:436   */\n      dup1\n        /* \"#utility.yul\":430:431   */\n      dup3\n        /* \"#utility.yul\":427:437   */\n      gt\n        /* \"#utility.yul\":424:460   */\n      iszero\n      tag_163\n      jumpi\n        /* \"#utility.yul\":440:458   */\n      tag_164\n      tag_131\n      jump\t// in\n    tag_164:\n        /* \"#utility.yul\":424:460   */\n    tag_163:\n        /* \"#utility.yul\":276:467   */\n      swap3\n      swap2\n      pop\n      pop\n      jump\t// out\n        /* \"#utility.yul\":473:591   */\n    tag_132:\n        /* \"#utility.yul\":560:584   */\n      tag_166\n        /* \"#utility.yul\":578:583   */\n      dup2\n        /* \"#utility.yul\":560:584   */\n      tag_130\n      jump\t// in\n    tag_166:\n        /* \"#utility.yul\":555:558   */\n      dup3\n        /* \"#utility.yul\":548:585   */\n      mstore\n        /* \"#utility.yul\":473:591   */\n      pop\n      pop\n      jump\t// out\n        /* \"#utility.yul\":597:819   */\n    tag_22:\n        /* \"#utility.yul\":690:694   */\n      0x00\n        /* \"#utility.yul\":728:730   */\n      0x20\n        /* \"#utility.yul\":717:726   */\n      dup3\n        /* \"#utility.yul\":713:731   */\n      add\n        /* \"#utility.yul\":705:731   */\n      swap1\n      pop\n        /* \"#utility.yul\":741:812   */\n      tag_168\n        /* \"#utility.yul\":809:810   */\n      0x00\n        /* \"#utility.yul\":798:807   */\n      dup4\n        /* \"#utility.yul\":794:811   */\n      add\n        /* \"#utility.yul\":785:791   */\n      dup5\n        /* \"#utility.yul\":741:812   */\n      tag_132\n      jump\t// in\n    tag_168:\n        /* \"#utility.yul\":597:819   */\n      swap3\n      swap2\n      pop\n      pop\n      jump\t// out\n        /* \"#utility.yul\":906:1023   */\n    tag_134:\n        /* \"#utility.yul\":1015:1016   */\n      0x00\n        /* \"#utility.yul\":1012:1013   */\n      0x00\n        /* \"#utility.yul\":1005:1017   */\n      revert\n        /* \"#utility.yul\":1152:1278   */\n    tag_136:\n        /* \"#utility.yul\":1189:1196   */\n      0x00\n        /* \"#utility.yul\":1229:1271   */\n      0xffffffffffffffffffffffffffffffffffffffff\n        /* \"#utility.yul\":1222:1227   */\n      dup3\n        /* \"#utility.yul\":1218:1272   */\n      and\n        /* \"#utility.yul\":1207:1272   */\n      swap1\n      pop\n        /* \"#utility.yul\":1152:1278   */\n      swap2\n      swap1\n      pop\n      jump\t// out\n        /* \"#utility.yul\":1284:1380   */\n    tag_137:\n        /* \"#utility.yul\":1321:1328   */\n      0x00\n        /* \"#utility.yul\":1350:1374   */\n      tag_174\n        /* \"#utility.yul\":1368:1373   */\n      dup3\n        /* \"#utility.yul\":1350:1374   */\n      tag_136\n      jump\t// in\n    tag_174:\n        /* \"#utility.yul\":1339:1374   */\n      swap1\n      pop\n        /* \"#utility.yul\":1284:1380   */\n      swap2\n      swap1\n      pop\n      jump\t// out\n        /* \"#utility.yul\":1386:1508   */\n    tag_138:\n        /* \"#utility.yul\":1459:1483   */\n      tag_176\n        /* \"#utility.yul\":1477:1482   */\n      dup2\n        /* \"#utility.yul\":1459:1483   */\n      tag_137\n      jump\t// in\n    tag_176:\n        /* \"#utility.yul\":1452:1457   */\n      dup2\n        /* \"#utility.yul\":1449:1484   */\n      eq\n        /* \"#utility.yul\":1439:1502   */\n      tag_177\n      jumpi\n        /* \"#utility.yul\":1498:1499   */\n      0x00\n        /* \"#utility.yul\":1495:1496   */\n      0x00\n        /* \"#utility.yul\":1488:1500   */\n      revert\n        /* \"#utility.yul\":1439:1502   */\n    tag_177:\n        /* \"#utility.yul\":1386:1508   */\n      pop\n      jump\t// out\n        /* \"#utility.yul\":1514:1653   */\n    tag_139:\n        /* \"#utility.yul\":1560:1565   */\n      0x00\n        /* \"#utility.yul\":1598:1604   */\n      dup2\n        /* \"#utility.yul\":1585:1605   */\n      calldataload\n        /* \"#utility.yul\":1576:1605   */\n      swap1\n      pop\n        /* \"#utility.yul\":1614:1647   */\n      tag_179\n        /* \"#utility.yul\":1641:1646   */\n      dup2\n        /* \"#utility.yul\":1614:1647   */\n      tag_138\n      jump\t// in\n    tag_179:\n        /* \"#utility.yul\":1514:1653   */\n      swap3\n      swap2\n      pop\n      pop\n      jump\t// out\n        /* \"#utility.yul\":1659:1988   */\n    tag_26:\n        /* \"#utility.yul\":1718:1724   */\n      0x00\n        /* \"#utility.yul\":1767:1769   */\n      0x20\n        /* \"#utility.yul\":1755:1764   */\n      dup3\n        /* \"#utility.yul\":1746:1753   */\n      dup5\n        /* \"#utility.yul\":1742:1765   */\n      sub\n        /* \"#utility.yul\":1738:1770   */\n      slt\n        /* \"#utility.yul\":1735:1854   */\n      iszero\n      tag_181\n      jumpi\n        /* \"#utility.yul\":1773:1852   */\n      tag_182\n      tag_134\n      jump\t// in\n    tag_182:\n        /* \"#utility.yul\":1735:1854   */\n    tag_181:\n        /* \"#utility.yul\":1893:1894   */\n      0x00\n        /* \"#utility.yul\":1918:1971   */\n      tag_183\n        /* \"#utility.yul\":1963:1970   */\n      dup5\n        /* \"#utility.yul\":1954:1960   */\n      dup3\n        /* \"#utility.yul\":1943:1952   */\n      dup6\n        /* \"#utility.yul\":1939:1961   */\n      add\n        /* \"#utility.yul\":1918:1971   */\n      tag_139\n      jump\t// in\n    tag_183:\n        /* \"#utility.yul\":1908:1971   */\n      swap2\n      pop\n        /* \"#utility.yul\":1864:1981   */\n      pop\n        /* \"#utility.yul\":1659:1988   */\n      swap3\n      swap2\n      pop\n      pop\n      jump\t// out\n        /* \"#utility.yul\":1994:2116   */\n    tag_140:\n        /* \"#utility.yul\":2067:2091   */\n      tag_185\n        /* \"#utility.yul\":2085:2090   */\n      dup2\n        /* \"#utility.yul\":2067:2091   */\n      tag_130\n      jump\t// in\n    tag_185:\n        /* \"#utility.yul\":2060:2065   */\n      dup2\n        /* \"#utility.yul\":2057:2092   */\n      eq\n        /* \"#utility.yul\":2047:2110   */\n      tag_186\n      jumpi\n        /* \"#utility.yul\":2106:2107   */\n      0x00\n        /* \"#utility.yul\":2103:2104   */\n      0x00\n        /* \"#utility.yul\":2096:2108   */\n      revert\n        /* \"#utility.yul\":2047:2110   */\n    tag_186:\n        /* \"#utility.yul\":1994:2116   */\n      pop\n      jump\t// out\n        /* \"#utility.yul\":2122:2261   */\n    tag_141:\n        /* \"#utility.yul\":2168:2173   */\n      0x00\n        /* \"#utility.yul\":2206:2212   */\n      dup2\n        /* \"#utility.yul\":2193:2213   */\n      calldataload\n        /* \"#utility.yul\":2184:2213   */\n      swap1\n      pop\n        /* \"#utility.yul\":2222:2255   */\n      tag_188\n        /* \"#utility.yul\":2249:2254   */\n      dup2\n        /* \"#utility.yul\":2222:2255   */\n      tag_140\n      jump\t// in\n    tag_188:\n        /* \"#utility.yul\":2122:2261   */\n      swap3\n      swap2\n      pop\n      pop\n      jump\t// out\n        /* \"#utility.yul\":2267:2596   */\n    tag_32:\n        /* \"#utility.yul\":2326:2332   */\n      0x00\n        /* \"#utility.yul\":2375:2377   */\n      0x20\n        /* \"#utility.yul\":2363:2372   */\n      dup3\n        /* \"#utility.yul\":2354:2361   */\n      dup5\n        /* \"#utility.yul\":2350:2373   */\n      sub\n        /* \"#utility.yul\":2346:2378   */\n      slt\n        /* \"#utility.yul\":2343:2462   */\n      iszero\n      tag_190\n      jumpi\n        /* \"#utility.yul\":2381:2460   */\n      tag_191\n      tag_134\n      jump\t// in\n    tag_191:\n        /* \"#utility.yul\":2343:2462   */\n    tag_190:\n        /* \"#utility.yul\":2501:2502   */\n      0x00\n        /* \"#utility.yul\":2526:2579   */\n      tag_192\n        /* \"#utility.yul\":2571:2578   */\n      dup5\n        /* \"#utility.yul\":2562:2568   */\n      dup3\n        /* \"#utility.yul\":2551:2560   */\n      dup6\n        /* \"#utility.yul\":2547:2569   */\n      add\n        /* \"#utility.yul\":2526:2579   */\n      tag_141\n      jump\t// in\n    tag_192:\n        /* \"#utility.yul\":2516:2579   */\n      swap2\n      pop\n        /* \"#utility.yul\":2472:2589   */\n      pop\n        /* \"#utility.yul\":2267:2596   */\n      swap3\n      swap2\n      pop\n      pop\n      jump\t// out\n        /* \"#utility.yul\":2602:2744   */\n    tag_142:\n        /* \"#utility.yul\":2697:2703   */\n      0x00\n        /* \"#utility.yul\":2731:2736   */\n      dup2\n        /* \"#utility.yul\":2725:2737   */\n      mload\n        /* \"#utility.yul\":2715:2737   */\n      swap1\n      pop\n        /* \"#utility.yul\":2602:2744   */\n      swap2\n      swap1\n      pop\n      jump\t// out\n        /* \"#utility.yul\":2750:2962   */\n    tag_143:\n        /* \"#utility.yul\":2877:2888   */\n      0x00\n        /* \"#utility.yul\":2911:2917   */\n      dup3\n        /* \"#utility.yul\":2906:2909   */\n      dup3\n        /* \"#utility.yul\":2899:2918   */\n      mstore\n        /* \"#utility.yul\":2951:2955   */\n      0x20\n        /* \"#utility.yul\":2946:2949   */\n      dup3\n        /* \"#utility.yul\":2942:2956   */\n      add\n        /* \"#utility.yul\":2927:2956   */\n      swap1\n      pop\n        /* \"#utility.yul\":2750:2962   */\n      swap3\n      swap2\n      pop\n      pop\n      jump\t// out\n        /* \"#utility.yul\":2968:3128   */\n    tag_144:\n        /* \"#utility.yul\":3063:3067   */\n      0x00\n        /* \"#utility.yul\":3086:3089   */\n      dup2\n        /* \"#utility.yul\":3078:3089   */\n      swap1\n      pop\n        /* \"#utility.yul\":3116:3120   */\n      0x20\n        /* \"#utility.yul\":3111:3114   */\n      dup3\n        /* \"#utility.yul\":3107:3121   */\n      add\n        /* \"#utility.yul\":3099:3121   */\n      swap1\n      pop\n        /* \"#utility.yul\":2968:3128   */\n      swap2\n      swap1\n      pop\n      jump\t// out\n        /* \"#utility.yul\":3134:3242   */\n    tag_145:\n        /* \"#utility.yul\":3211:3235   */\n      tag_197\n        /* \"#utility.yul\":3229:3234   */\n      dup2\n        /* \"#utility.yul\":3211:3235   */\n      tag_137\n      jump\t// in\n    tag_197:\n        /* \"#utility.yul\":3206:3209   */\n      dup3\n        /* \"#utility.yul\":3199:3236   */\n      mstore\n        /* \"#utility.yul\":3134:3242   */\n      pop\n      pop\n      jump\t// out\n        /* \"#utility.yul\":3248:3356   */\n    tag_146:\n        /* \"#utility.yul\":3325:3349   */\n      tag_199\n        /* \"#utility.yul\":3343:3348   */\n      dup2\n        /* \"#utility.yul\":3325:3349   */\n      tag_130\n      jump\t// in\n    tag_199:\n        /* \"#utility.yul\":3320:3323   */\n      dup3\n        /* \"#utility.yul\":3313:3350   */\n      mstore\n        /* \"#utility.yul\":3248:3356   */\n      pop\n      pop\n      jump\t// out\n        /* \"#utility.yul\":3422:3927   */\n    tag_147:\n        /* \"#utility.yul\":3565:3569   */\n      0x40\n        /* \"#utility.yul\":3560:3563   */\n      dup3\n        /* \"#utility.yul\":3556:3570   */\n      add\n        /* \"#utility.yul\":3652:3656   */\n      0x00\n        /* \"#utility.yul\":3645:3650   */\n      dup3\n        /* \"#utility.yul\":3641:3657   */\n      add\n        /* \"#utility.yul\":3635:3658   */\n      mload\n        /* \"#utility.yul\":3671:3734   */\n      tag_201\n        /* \"#utility.yul\":3728:3732   */\n      0x00\n        /* \"#utility.yul\":3723:3726   */\n      dup6\n        /* \"#utility.yul\":3719:3733   */\n      add\n        /* \"#utility.yul\":3705:3717   */\n      dup3\n        /* \"#utility.yul\":3671:3734   */\n      tag_145\n      jump\t// in\n    tag_201:\n        /* \"#utility.yul\":3580:3744   */\n      pop\n        /* \"#utility.yul\":3828:3832   */\n      0x20\n        /* \"#utility.yul\":3821:3826   */\n      dup3\n        /* \"#utility.yul\":3817:3833   */\n      add\n        /* \"#utility.yul\":3811:3834   */\n      mload\n        /* \"#utility.yul\":3847:3910   */\n      tag_202\n        /* \"#utility.yul\":3904:3908   */\n      0x20\n        /* \"#utility.yul\":3899:3902   */\n      dup6\n        /* \"#utility.yul\":3895:3909   */\n      add\n        /* \"#utility.yul\":3881:3893   */\n      dup3\n        /* \"#utility.yul\":3847:3910   */\n      tag_146\n      jump\t// in\n    tag_202:\n        /* \"#utility.yul\":3754:3920   */\n      pop\n        /* \"#utility.yul\":3534:3927   */\n      pop\n        /* \"#utility.yul\":3422:3927   */\n      pop\n      pop\n      jump\t// out\n        /* \"#utility.yul\":3933:4224   */\n    tag_148:\n        /* \"#utility.yul\":4058:4068   */\n      0x00\n        /* \"#utility.yul\":4079:4181   */\n      tag_204\n        /* \"#utility.yul\":4177:4180   */\n      dup4\n        /* \"#utility.yul\":4169:4175   */\n      dup4\n        /* \"#utility.yul\":4079:4181   */\n      tag_147\n      jump\t// in\n    tag_204:\n        /* \"#utility.yul\":4213:4217   */\n      0x40\n        /* \"#utility.yul\":4208:4211   */\n      dup4\n        /* \"#utility.yul\":4204:4218   */\n      add\n        /* \"#utility.yul\":4190:4218   */\n      swap1\n      pop\n        /* \"#utility.yul\":3933:4224   */\n      swap3\n      swap2\n      pop\n      pop\n      jump\t// out\n        /* \"#utility.yul\":4230:4371   */\n    tag_149:\n        /* \"#utility.yul\":4328:4332   */\n      0x00\n        /* \"#utility.yul\":4360:4364   */\n      0x20\n        /* \"#utility.yul\":4355:4358   */\n      dup3\n        /* \"#utility.yul\":4351:4365   */\n      add\n        /* \"#utility.yul\":4343:4365   */\n      swap1\n      pop\n        /* \"#utility.yul\":4230:4371   */\n      swap2\n      swap1\n      pop\n      jump\t// out\n        /* \"#utility.yul\":4441:5397   */\n    tag_150:\n        /* \"#utility.yul\":4616:4619   */\n      0x00\n        /* \"#utility.yul\":4645:4727   */\n      tag_207\n        /* \"#utility.yul\":4721:4726   */\n      dup3\n        /* \"#utility.yul\":4645:4727   */\n      tag_142\n      jump\t// in\n    tag_207:\n        /* \"#utility.yul\":4743:4857   */\n      tag_208\n        /* \"#utility.yul\":4850:4856   */\n      dup2\n        /* \"#utility.yul\":4845:4848   */\n      dup6\n        /* \"#utility.yul\":4743:4857   */\n      tag_143\n      jump\t// in\n    tag_208:\n        /* \"#utility.yul\":4736:4857   */\n      swap4\n      pop\n        /* \"#utility.yul\":4881:4965   */\n      tag_209\n        /* \"#utility.yul\":4959:4964   */\n      dup4\n        /* \"#utility.yul\":4881:4965   */\n      tag_144\n      jump\t// in\n    tag_209:\n        /* \"#utility.yul\":4988:4995   */\n      dup1\n        /* \"#utility.yul\":5019:5020   */\n      0x00\n        /* \"#utility.yul\":5004:5372   */\n    tag_210:\n        /* \"#utility.yul\":5029:5035   */\n      dup4\n        /* \"#utility.yul\":5026:5027   */\n      dup2\n        /* \"#utility.yul\":5023:5036   */\n      lt\n        /* \"#utility.yul\":5004:5372   */\n      iszero\n      tag_212\n      jumpi\n        /* \"#utility.yul\":5105:5111   */\n      dup2\n        /* \"#utility.yul\":5099:5112   */\n      mload\n        /* \"#utility.yul\":5132:5251   */\n      tag_213\n        /* \"#utility.yul\":5247:5250   */\n      dup9\n        /* \"#utility.yul\":5232:5245   */\n      dup3\n        /* \"#utility.yul\":5132:5251   */\n      tag_148\n      jump\t// in\n    tag_213:\n        /* \"#utility.yul\":5125:5251   */\n      swap8\n      pop\n        /* \"#utility.yul\":5274:5362   */\n      tag_214\n        /* \"#utility.yul\":5355:5361   */\n      dup4\n        /* \"#utility.yul\":5274:5362   */\n      tag_149\n      jump\t// in\n    tag_214:\n        /* \"#utility.yul\":5264:5362   */\n      swap3\n      pop\n        /* \"#utility.yul\":5064:5372   */\n      pop\n        /* \"#utility.yul\":5051:5052   */\n      0x01\n        /* \"#utility.yul\":5048:5049   */\n      dup2\n        /* \"#utility.yul\":5044:5053   */\n      add\n        /* \"#utility.yul\":5039:5053   */\n      swap1\n      pop\n        /* \"#utility.yul\":5004:5372   */\n      jump(tag_210)\n    tag_212:\n        /* \"#utility.yul\":5008:5022   */\n      pop\n        /* \"#utility.yul\":5388:5391   */\n      dup6\n        /* \"#utility.yul\":5381:5391   */\n      swap4\n      pop\n        /* \"#utility.yul\":4621:5397   */\n      pop\n      pop\n      pop\n        /* \"#utility.yul\":4441:5397   */\n      swap3\n      swap2\n      pop\n      pop\n      jump\t// out\n        /* \"#utility.yul\":5403:5888   */\n    tag_38:\n        /* \"#utility.yul\":5602:5606   */\n      0x00\n        /* \"#utility.yul\":5640:5642   */\n      0x20\n        /* \"#utility.yul\":5629:5638   */\n      dup3\n        /* \"#utility.yul\":5625:5643   */\n      add\n        /* \"#utility.yul\":5617:5643   */\n      swap1\n      pop\n        /* \"#utility.yul\":5689:5698   */\n      dup2\n        /* \"#utility.yul\":5683:5687   */\n      dup2\n        /* \"#utility.yul\":5679:5699   */\n      sub\n        /* \"#utility.yul\":5675:5676   */\n      0x00\n        /* \"#utility.yul\":5664:5673   */\n      dup4\n        /* \"#utility.yul\":5660:5677   */\n      add\n        /* \"#utility.yul\":5653:5700   */\n      mstore\n        /* \"#utility.yul\":5717:5881   */\n      tag_216\n        /* \"#utility.yul\":5876:5880   */\n      dup2\n        /* \"#utility.yul\":5867:5873   */\n      dup5\n        /* \"#utility.yul\":5717:5881   */\n      tag_150\n      jump\t// in\n    tag_216:\n        /* \"#utility.yul\":5709:5881   */\n      swap1\n      pop\n        /* \"#utility.yul\":5403:5888   */\n      swap3\n      swap2\n      pop\n      pop\n      jump\t// out\n        /* \"#utility.yul\":5894:6012   */\n    tag_151:\n        /* \"#utility.yul\":5981:6005   */\n      tag_218\n        /* \"#utility.yul\":5999:6004   */\n      dup2\n        /* \"#utility.yul\":5981:6005   */\n      tag_137\n      jump\t// in\n    tag_218:\n        /* \"#utility.yul\":5976:5979   */\n      dup3\n        /* \"#utility.yul\":5969:6006   */\n      mstore\n        /* \"#utility.yul\":5894:6012   */\n      pop\n      pop\n      jump\t// out\n        /* \"#utility.yul\":6018:6240   */\n    tag_43:\n        /* \"#utility.yul\":6111:6115   */\n      0x00\n        /* \"#utility.yul\":6149:6151   */\n      0x20\n        /* \"#utility.yul\":6138:6147   */\n      dup3\n        /* \"#utility.yul\":6134:6152   */\n      add\n        /* \"#utility.yul\":6126:6152   */\n      swap1\n      pop\n        /* \"#utility.yul\":6162:6233   */\n      tag_220\n        /* \"#utility.yul\":6230:6231   */\n      0x00\n        /* \"#utility.yul\":6219:6228   */\n      dup4\n        /* \"#utility.yul\":6215:6232   */\n      add\n        /* \"#utility.yul\":6206:6212   */\n      dup5\n        /* \"#utility.yul\":6162:6233   */\n      tag_151\n      jump\t// in\n    tag_220:\n        /* \"#utility.yul\":6018:6240   */\n      swap3\n      swap2\n      pop\n      pop\n      jump\t// out\n        /* \"#utility.yul\":6246:6578   */\n    tag_53:\n        /* \"#utility.yul\":6367:6371   */\n      0x00\n        /* \"#utility.yul\":6405:6407   */\n      0x40\n        /* \"#utility.yul\":6394:6403   */\n      dup3\n        /* \"#utility.yul\":6390:6408   */\n      add\n        /* \"#utility.yul\":6382:6408   */\n      swap1\n      pop\n        /* \"#utility.yul\":6418:6489   */\n      tag_222\n        /* \"#utility.yul\":6486:6487   */\n      0x00\n        /* \"#utility.yul\":6475:6484   */\n      dup4\n        /* \"#utility.yul\":6471:6488   */\n      add\n        /* \"#utility.yul\":6462:6468   */\n      dup6\n        /* \"#utility.yul\":6418:6489   */\n      tag_151\n      jump\t// in\n    tag_222:\n        /* \"#utility.yul\":6499:6571   */\n      tag_223\n        /* \"#utility.yul\":6567:6569   */\n      0x20\n        /* \"#utility.yul\":6556:6565   */\n      dup4\n        /* \"#utility.yul\":6552:6570   */\n      add\n        /* \"#utility.yul\":6543:6549   */\n      dup5\n        /* \"#utility.yul\":6499:6571   */\n      tag_132\n      jump\t// in\n    tag_223:\n        /* \"#utility.yul\":6246:6578   */\n      swap4\n      swap3\n      pop\n      pop\n      pop\n      jump\t// out\n        /* \"#utility.yul\":6584:6764   */\n    tag_63:\n        /* \"#utility.yul\":6632:6709   */\n      0x4e487b7100000000000000000000000000000000000000000000000000000000\n        /* \"#utility.yul\":6629:6630   */\n      0x00\n        /* \"#utility.yul\":6622:6710   */\n      mstore\n        /* \"#utility.yul\":6729:6733   */\n      0x32\n        /* \"#utility.yul\":6726:6727   */\n      0x04\n        /* \"#utility.yul\":6719:6734   */\n      mstore\n        /* \"#utility.yul\":6753:6757   */\n      0x24\n        /* \"#utility.yul\":6750:6751   */\n      0x00\n        /* \"#utility.yul\":6743:6758   */\n      revert\n        /* \"#utility.yul\":6770:6939   */\n    tag_152:\n        /* \"#utility.yul\":6854:6865   */\n      0x00\n        /* \"#utility.yul\":6888:6894   */\n      dup3\n        /* \"#utility.yul\":6883:6886   */\n      dup3\n        /* \"#utility.yul\":6876:6895   */\n      mstore\n        /* \"#utility.yul\":6928:6932   */\n      0x20\n        /* \"#utility.yul\":6923:6926   */\n      dup3\n        /* \"#utility.yul\":6919:6933   */\n      add\n        /* \"#utility.yul\":6904:6933   */\n      swap1\n      pop\n        /* \"#utility.yul\":6770:6939   */\n      swap3\n      swap2\n      pop\n      pop\n      jump\t// out\n        /* \"#utility.yul\":6945:7105   */\n    tag_153:\n        /* \"#utility.yul\":7085:7097   */\n      0x4e6f6574206f776e657200000000000000000000000000000000000000000000\n        /* \"#utility.yul\":7081:7082   */\n      0x00\n        /* \"#utility.yul\":7073:7079   */\n      dup3\n        /* \"#utility.yul\":7069:7083   */\n      add\n        /* \"#utility.yul\":7062:7098   */\n      mstore\n        /* \"#utility.yul\":6945:7105   */\n      pop\n      jump\t// out\n        /* \"#utility.yul\":7111:7477   */\n    tag_154:\n        /* \"#utility.yul\":7253:7256   */\n      0x00\n        /* \"#utility.yul\":7274:7341   */\n      tag_228\n        /* \"#utility.yul\":7338:7340   */\n      0x0a\n        /* \"#utility.yul\":7333:7336   */\n      dup4\n        /* \"#utility.yul\":7274:7341   */\n      tag_152\n      jump\t// in\n    tag_228:\n        /* \"#utility.yul\":7267:7341   */\n      swap2\n      pop\n        /* \"#utility.yul\":7350:7443   */\n      tag_229\n        /* \"#utility.yul\":7439:7442   */\n      dup3\n        /* \"#utility.yul\":7350:7443   */\n      tag_153\n      jump\t// in\n    tag_229:\n        /* \"#utility.yul\":7468:7470   */\n      0x20\n        /* \"#utility.yul\":7463:7466   */\n      dup3\n        /* \"#utility.yul\":7459:7471   */\n      add\n        /* \"#utility.yul\":7452:7471   */\n      swap1\n      pop\n        /* \"#utility.yul\":7111:7477   */\n      swap2\n      swap1\n      pop\n      jump\t// out\n        /* \"#utility.yul\":7483:7902   */\n    tag_86:\n        /* \"#utility.yul\":7649:7653   */\n      0x00\n        /* \"#utility.yul\":7687:7689   */\n      0x20\n        /* \"#utility.yul\":7676:7685   */\n      dup3\n        /* \"#utility.yul\":7672:7690   */\n      add\n        /* \"#utility.yul\":7664:7690   */\n      swap1\n      pop\n        /* \"#utility.yul\":7736:7745   */\n      dup2\n        /* \"#utility.yul\":7730:7734   */\n      dup2\n        /* \"#utility.yul\":7726:7746   */\n      sub\n        /* \"#utility.yul\":7722:7723   */\n      0x00\n        /* \"#utility.yul\":7711:7720   */\n      dup4\n        /* \"#utility.yul\":7707:7724   */\n      add\n        /* \"#utility.yul\":7700:7747   */\n      mstore\n        /* \"#utility.yul\":7764:7895   */\n      tag_231\n        /* \"#utility.yul\":7890:7894   */\n      dup2\n        /* \"#utility.yul\":7764:7895   */\n      tag_154\n      jump\t// in\n    tag_231:\n        /* \"#utility.yul\":7756:7895   */\n      swap1\n      pop\n        /* \"#utility.yul\":7483:7902   */\n      swap2\n      swap1\n      pop\n      jump\t// out\n        /* \"#utility.yul\":7908:8089   */\n    tag_155:\n        /* \"#utility.yul\":8048:8081   */\n      0x416d6f756e74206d69736d6174636820776974682076616c75652073656e7400\n        /* \"#utility.yul\":8044:8045   */\n      0x00\n        /* \"#utility.yul\":8036:8042   */\n      dup3\n        /* \"#utility.yul\":8032:8046   */\n      add\n        /* \"#utility.yul\":8025:8082   */\n      mstore\n        /* \"#utility.yul\":7908:8089   */\n      pop\n      jump\t// out\n        /* \"#utility.yul\":8095:8461   */\n    tag_156:\n        /* \"#utility.yul\":8237:8240   */\n      0x00\n        /* \"#utility.yul\":8258:8325   */\n      tag_234\n        /* \"#utility.yul\":8322:8324   */\n      0x1f\n        /* \"#utility.yul\":8317:8320   */\n      dup4\n        /* \"#utility.yul\":8258:8325   */\n      tag_152\n      jump\t// in\n    tag_234:\n        /* \"#utility.yul\":8251:8325   */\n      swap2\n      pop\n        /* \"#utility.yul\":8334:8427   */\n      tag_235\n        /* \"#utility.yul\":8423:8426   */\n      dup3\n        /* \"#utility.yul\":8334:8427   */\n      tag_155\n      jump\t// in\n    tag_235:\n        /* \"#utility.yul\":8452:8454   */\n      0x20\n        /* \"#utility.yul\":8447:8450   */\n      dup3\n        /* \"#utility.yul\":8443:8455   */\n      add\n        /* \"#utility.yul\":8436:8455   */\n      swap1\n      pop\n        /* \"#utility.yul\":8095:8461   */\n      swap2\n      swap1\n      pop\n      jump\t// out\n        /* \"#utility.yul\":8467:8886   */\n    tag_100:\n        /* \"#utility.yul\":8633:8637   */\n      0x00\n        /* \"#utility.yul\":8671:8673   */\n      0x20\n        /* \"#utility.yul\":8660:8669   */\n      dup3\n        /* \"#utility.yul\":8656:8674   */\n      add\n        /* \"#utility.yul\":8648:8674   */\n      swap1\n      pop\n        /* \"#utility.yul\":8720:8729   */\n      dup2\n        /* \"#utility.yul\":8714:8718   */\n      dup2\n        /* \"#utility.yul\":8710:8730   */\n      sub\n        /* \"#utility.yul\":8706:8707   */\n      0x00\n        /* \"#utility.yul\":8695:8704   */\n      dup4\n        /* \"#utility.yul\":8691:8708   */\n      add\n        /* \"#utility.yul\":8684:8731   */\n      mstore\n        /* \"#utility.yul\":8748:8879   */\n      tag_237\n        /* \"#utility.yul\":8874:8878   */\n      dup2\n        /* \"#utility.yul\":8748:8879   */\n      tag_156\n      jump\t// in\n    tag_237:\n        /* \"#utility.yul\":8740:8879   */\n      swap1\n      pop\n        /* \"#utility.yul\":8467:8886   */\n      swap2\n      swap1\n      pop\n      jump\t// out\n\n    auxdata: 0xa264697066735822122082fa0e5973f5a40e767dc1cd5d01d464272241a52aa9fdafdbf44182fcec49da64736f6c634300081e0033\n}\n",
				"bytecode": {
					"linkReferences": {},
					"object": "608060405234801561000f575f5ffd5b50335f5f6101000a81548173ffffffffffffffffffffffffffffffffffffffff021916908373ffffffffffffffffffffffffffffffffffffffff1602179055505f5f90505b600381101561010d57600260405180604001604052805f73ffffffffffffffffffffffffffffffffffffffff1681526020015f815250908060018154018082558091505060019003905f5260205f2090600202015f909190919091505f820151815f015f6101000a81548173ffffffffffffffffffffffffffffffffffffffff021916908373ffffffffffffffffffffffffffffffffffffffff1602179055506020820151816001015550508080600101915050610054565b50610dc28061011b5f395ff3fe60806040526004361061007d575f3560e01c8063893d20e81161004d578063893d20e81461019c5780638da5cb5b146101c6578063a7211664146101f0578063b6b55f251461022d576100e0565b8062113e08146100e457806327e235e31461010e5780632e1a7d4d1461014a57806381454f7114610172576100e0565b366100e0573460015f3373ffffffffffffffffffffffffffffffffffffffff1673ffffffffffffffffffffffffffffffffffffffff1681526020019081526020015f205f8282546100ce91906109e4565b925050819055506100de33610249565b005b5f5ffd5b3480156100ef575f5ffd5b506100f8610448565b6040516101059190610a26565b60405180910390f35b348015610119575f5ffd5b50610134600480360381019061012f9190610a9d565b61048c565b6040516101419190610a26565b60405180910390f35b348015610155575f5ffd5b50610170600480360381019061016b9190610af2565b6104a1565b005b34801561017d575f5ffd5b50610186610576565b6040516101939190610c10565b60405180910390f35b3480156101a7575f5ffd5b506101b0610630565b6040516101bd9190610c3f565b60405180910390f35b3480156101d1575f5ffd5b506101da610657565b6040516101e79190610c3f565b60405180910390f35b3480156101fb575f5ffd5b5061021660048036038101906102119190610af2565b61067b565b604051610224929190610c58565b60405180910390f35b61024760048036038101906102429190610af2565b6106c9565b005b5f60015f8373ffffffffffffffffffffffffffffffffffffffff1673ffffffffffffffffffffffffffffffffffffffff1681526020019081526020015f205490505f5f90505b6003811015610350578273ffffffffffffffffffffffffffffffffffffffff16600282815481106102c3576102c2610c7f565b5b905f5260205f2090600202015f015f9054906101000a900473ffffffffffffffffffffffffffffffffffffffff1673ffffffffffffffffffffffffffffffffffffffff160361034357816002828154811061032157610320610c7f565b5b905f5260205f2090600202016001018190555061033c61076a565b5050610445565b808060010191505061028f565b505f5f90505b6003811015610442576002818154811061037357610372610c7f565b5b905f5260205f209060020201600101548211156104355760405180604001604052808473ffffffffffffffffffffffffffffffffffffffff16815260200183815250600282815481106103c9576103c8610c7f565b5b905f5260205f2090600202015f820151815f015f6101000a81548173ffffffffffffffffffffffffffffffffffffffff021916908373ffffffffffffffffffffffffffffffffffffffff1602179055506020820151816001015590505061042e61076a565b5050610445565b8080600101915050610356565b50505b50565b5f60015f3373ffffffffffffffffffffffffffffffffffffffff1673ffffffffffffffffffffffffffffffffffffffff1681526020019081526020015f2054905090565b6001602052805f5260405f205f915090505481565b5f5f9054906101000a900473ffffffffffffffffffffffffffffffffffffffff1673ffffffffffffffffffffffffffffffffffffffff163373ffffffffffffffffffffffffffffffffffffffff161461052f576040517f08c379a000000000000000000000000000000000000000000000000000000000815260040161052690610d06565b60405180910390fd5b3373ffffffffffffffffffffffffffffffffffffffff166108fc8290811502906040515f60405180830381858888f19350505050158015610572573d5f5f3e3d5ffd5b5050565b60606002805480602002602001604051908101604052809291908181526020015f905b82821015610627578382905f5260205f2090600202016040518060400160405290815f82015f9054906101000a900473ffffffffffffffffffffffffffffffffffffffff1673ffffffffffffffffffffffffffffffffffffffff1673ffffffffffffffffffffffffffffffffffffffff16815260200160018201548152505081526020019060010190610599565b50505050905090565b5f5f5f9054906101000a900473ffffffffffffffffffffffffffffffffffffffff16905090565b5f5f9054906101000a900473ffffffffffffffffffffffffffffffffffffffff1681565b6002818154811061068a575f80fd5b905f5260205f2090600202015f91509050805f015f9054906101000a900473ffffffffffffffffffffffffffffffffffffffff16908060010154905082565b80341461070b576040517f08c379a000000000000000000000000000000000000000000000000000000000815260040161070290610d6e565b60405180910390fd5b3460015f3373ffffffffffffffffffffffffffffffffffffffff1673ffffffffffffffffffffffffffffffffffffffff1681526020019081526020015f205f82825461075791906109e4565b9250508190555061076733610249565b50565b5f5f90505b60028110156109ab575f60018261078691906109e4565b90505b600381101561099d57600282815481106107a6576107a5610c7f565b5b905f5260205f20906002020160010154600282815481106107ca576107c9610c7f565b5b905f5260205f209060020201600101541115610990575f600283815481106107f5576107f4610c7f565b5b905f5260205f2090600202016040518060400160405290815f82015f9054906101000a900473ffffffffffffffffffffffffffffffffffffffff1673ffffffffffffffffffffffffffffffffffffffff1673ffffffffffffffffffffffffffffffffffffffff1681526020016001820154815250509050600282815481106108805761087f610c7f565b5b905f5260205f209060020201600284815481106108a05761089f610c7f565b5b905f5260205f2090600202015f82015f9054906101000a900473ffffffffffffffffffffffffffffffffffffffff16815f015f6101000a81548173ffffffffffffffffffffffffffffffffffffffff021916908373ffffffffffffffffffffffffffffffffffffffff16021790555060018201548160010155905050806002838154811061093157610930610c7f565b5b905f5260205f2090600202015f820151815f015f6101000a81548173ffffffffffffffffffffffffffffffffffffffff021916908373ffffffffffffffffffffffffffffffffffffffff16021790555060208201518160010155905050505b8080600101915050610789565b50808060010191505061076f565b50565b5f819050919050565b7f4e487b71000000000000000000000000000000000000000000000000000000005f52601160045260245ffd5b5f6109ee826109ae565b91506109f9836109ae565b9250828201905080821115610a1157610a106109b7565b5b92915050565b610a20816109ae565b82525050565b5f602082019050610a395f830184610a17565b92915050565b5f5ffd5b5f73ffffffffffffffffffffffffffffffffffffffff82169050919050565b5f610a6c82610a43565b9050919050565b610a7c81610a62565b8114610a86575f5ffd5b50565b5f81359050610a9781610a73565b92915050565b5f60208284031215610ab257610ab1610a3f565b5b5f610abf84828501610a89565b91505092915050565b610ad1816109ae565b8114610adb575f5ffd5b50565b5f81359050610aec81610ac8565b92915050565b5f60208284031215610b0757610b06610a3f565b5b5f610b1484828501610ade565b91505092915050565b5f81519050919050565b5f82825260208201905092915050565b5f819050602082019050919050565b610b4f81610a62565b82525050565b610b5e816109ae565b82525050565b604082015f820151610b785f850182610b46565b506020820151610b8b6020850182610b55565b50505050565b5f610b9c8383610b64565b60408301905092915050565b5f602082019050919050565b5f610bbe82610b1d565b610bc88185610b27565b9350610bd383610b37565b805f5b83811015610c03578151610bea8882610b91565b9750610bf583610ba8565b925050600181019050610bd6565b5085935050505092915050565b5f6020820190508181035f830152610c288184610bb4565b905092915050565b610c3981610a62565b82525050565b5f602082019050610c525f830184610c30565b92915050565b5f604082019050610c6b5f830185610c30565b610c786020830184610a17565b9392505050565b7f4e487b71000000000000000000000000000000000000000000000000000000005f52603260045260245ffd5b5f82825260208201905092915050565b7f4e6f6574206f776e6572000000000000000000000000000000000000000000005f82015250565b5f610cf0600a83610cac565b9150610cfb82610cbc565b602082019050919050565b5f6020820190508181035f830152610d1d81610ce4565b9050919050565b7f416d6f756e74206d69736d6174636820776974682076616c75652073656e74005f82015250565b5f610d58601f83610cac565b9150610d6382610d24565b602082019050919050565b5f6020820190508181035f830152610d8581610d4c565b905091905056fea264697066735822122082fa0e5973f5a40e767dc1cd5d01d464272241a52aa9fdafdbf44182fcec49da64736f6c634300081e0033",
					"opcodes": "PUSH1 0x80 PUSH1 0x40 MSTORE CALLVALUE DUP1 ISZERO PUSH2 0xF JUMPI PUSH0 PUSH0 REVERT JUMPDEST POP CALLER PUSH0 PUSH0 PUSH2 0x100 EXP DUP2 SLOAD DUP2 PUSH20 0xFFFFFFFFFFFFFFFFFFFFFFFFFFFFFFFFFFFFFFFF MUL NOT AND SWAP1 DUP4 PUSH20 0xFFFFFFFFFFFFFFFFFFFFFFFFFFFFFFFFFFFFFFFF AND MUL OR SWAP1 SSTORE POP PUSH0 PUSH0 SWAP1 POP JUMPDEST PUSH1 0x3 DUP2 LT ISZERO PUSH2 0x10D JUMPI PUSH1 0x2 PUSH1 0x40 MLOAD DUP1 PUSH1 0x40 ADD PUSH1 0x40 MSTORE DUP1 PUSH0 PUSH20 0xFFFFFFFFFFFFFFFFFFFFFFFFFFFFFFFFFFFFFFFF AND DUP2 MSTORE PUSH1 0x20 ADD PUSH0 DUP2 MSTORE POP SWAP1 DUP1 PUSH1 0x1 DUP2 SLOAD ADD DUP1 DUP3 SSTORE DUP1 SWAP2 POP POP PUSH1 0x1 SWAP1 SUB SWAP1 PUSH0 MSTORE PUSH1 0x20 PUSH0 KECCAK256 SWAP1 PUSH1 0x2 MUL ADD PUSH0 SWAP1 SWAP2 SWAP1 SWAP2 SWAP1 SWAP2 POP PUSH0 DUP3 ADD MLOAD DUP2 PUSH0 ADD PUSH0 PUSH2 0x100 EXP DUP2 SLOAD DUP2 PUSH20 0xFFFFFFFFFFFFFFFFFFFFFFFFFFFFFFFFFFFFFFFF MUL NOT AND SWAP1 DUP4 PUSH20 0xFFFFFFFFFFFFFFFFFFFFFFFFFFFFFFFFFFFFFFFF AND MUL OR SWAP1 SSTORE POP PUSH1 0x20 DUP3 ADD MLOAD DUP2 PUSH1 0x1 ADD SSTORE POP POP DUP1 DUP1 PUSH1 0x1 ADD SWAP2 POP POP PUSH2 0x54 JUMP JUMPDEST POP PUSH2 0xDC2 DUP1 PUSH2 0x11B PUSH0 CODECOPY PUSH0 RETURN INVALID PUSH1 0x80 PUSH1 0x40 MSTORE PUSH1 0x4 CALLDATASIZE LT PUSH2 0x7D JUMPI PUSH0 CALLDATALOAD PUSH1 0xE0 SHR DUP1 PUSH4 0x893D20E8 GT PUSH2 0x4D JUMPI DUP1 PUSH4 0x893D20E8 EQ PUSH2 0x19C JUMPI DUP1 PUSH4 0x8DA5CB5B EQ PUSH2 0x1C6 JUMPI DUP1 PUSH4 0xA7211664 EQ PUSH2 0x1F0 JUMPI DUP1 PUSH4 0xB6B55F25 EQ PUSH2 0x22D JUMPI PUSH2 0xE0 JUMP JUMPDEST DUP1 PUSH3 0x113E08 EQ PUSH2 0xE4 JUMPI DUP1 PUSH4 0x27E235E3 EQ PUSH2 0x10E JUMPI DUP1 PUSH4 0x2E1A7D4D EQ PUSH2 0x14A JUMPI DUP1 PUSH4 0x81454F71 EQ PUSH2 0x172 JUMPI PUSH2 0xE0 JUMP JUMPDEST CALLDATASIZE PUSH2 0xE0 JUMPI CALLVALUE PUSH1 0x1 PUSH0 CALLER PUSH20 0xFFFFFFFFFFFFFFFFFFFFFFFFFFFFFFFFFFFFFFFF AND PUSH20 0xFFFFFFFFFFFFFFFFFFFFFFFFFFFFFFFFFFFFFFFF AND DUP2 MSTORE PUSH1 0x20 ADD SWAP1 DUP2 MSTORE PUSH1 0x20 ADD PUSH0 KECCAK256 PUSH0 DUP3 DUP3 SLOAD PUSH2 0xCE SWAP2 SWAP1 PUSH2 0x9E4 JUMP JUMPDEST SWAP3 POP POP DUP2 SWAP1 SSTORE POP PUSH2 0xDE CALLER PUSH2 0x249 JUMP JUMPDEST STOP JUMPDEST PUSH0 PUSH0 REVERT JUMPDEST CALLVALUE DUP1 ISZERO PUSH2 0xEF JUMPI PUSH0 PUSH0 REVERT JUMPDEST POP PUSH2 0xF8 PUSH2 0x448 JUMP JUMPDEST PUSH1 0x40 MLOAD PUSH2 0x105 SWAP2 SWAP1 PUSH2 0xA26 JUMP JUMPDEST PUSH1 0x40 MLOAD DUP1 SWAP2 SUB SWAP1 RETURN JUMPDEST CALLVALUE DUP1 ISZERO PUSH2 0x119 JUMPI PUSH0 PUSH0 REVERT JUMPDEST POP PUSH2 0x134 PUSH1 0x4 DUP1 CALLDATASIZE SUB DUP2 ADD SWAP1 PUSH2 0x12F SWAP2 SWAP1 PUSH2 0xA9D JUMP JUMPDEST PUSH2 0x48C JUMP JUMPDEST PUSH1 0x40 MLOAD PUSH2 0x141 SWAP2 SWAP1 PUSH2 0xA26 JUMP JUMPDEST PUSH1 0x40 MLOAD DUP1 SWAP2 SUB SWAP1 RETURN JUMPDEST CALLVALUE DUP1 ISZERO PUSH2 0x155 JUMPI PUSH0 PUSH0 REVERT JUMPDEST POP PUSH2 0x170 PUSH1 0x4 DUP1 CALLDATASIZE SUB DUP2 ADD SWAP1 PUSH2 0x16B SWAP2 SWAP1 PUSH2 0xAF2 JUMP JUMPDEST PUSH2 0x4A1 JUMP JUMPDEST STOP JUMPDEST CALLVALUE DUP1 ISZERO PUSH2 0x17D JUMPI PUSH0 PUSH0 REVERT JUMPDEST POP PUSH2 0x186 PUSH2 0x576 JUMP JUMPDEST PUSH1 0x40 MLOAD PUSH2 0x193 SWAP2 SWAP1 PUSH2 0xC10 JUMP JUMPDEST PUSH1 0x40 MLOAD DUP1 SWAP2 SUB SWAP1 RETURN JUMPDEST CALLVALUE DUP1 ISZERO PUSH2 0x1A7 JUMPI PUSH0 PUSH0 REVERT JUMPDEST POP PUSH2 0x1B0 PUSH2 0x630 JUMP JUMPDEST PUSH1 0x40 MLOAD PUSH2 0x1BD SWAP2 SWAP1 PUSH2 0xC3F JUMP JUMPDEST PUSH1 0x40 MLOAD DUP1 SWAP2 SUB SWAP1 RETURN JUMPDEST CALLVALUE DUP1 ISZERO PUSH2 0x1D1 JUMPI PUSH0 PUSH0 REVERT JUMPDEST POP PUSH2 0x1DA PUSH2 0x657 JUMP JUMPDEST PUSH1 0x40 MLOAD PUSH2 0x1E7 SWAP2 SWAP1 PUSH2 0xC3F JUMP JUMPDEST PUSH1 0x40 MLOAD DUP1 SWAP2 SUB SWAP1 RETURN JUMPDEST CALLVALUE DUP1 ISZERO PUSH2 0x1FB JUMPI PUSH0 PUSH0 REVERT JUMPDEST POP PUSH2 0x216 PUSH1 0x4 DUP1 CALLDATASIZE SUB DUP2 ADD SWAP1 PUSH2 0x211 SWAP2 SWAP1 PUSH2 0xAF2 JUMP JUMPDEST PUSH2 0x67B JUMP JUMPDEST PUSH1 0x40 MLOAD PUSH2 0x224 SWAP3 SWAP2 SWAP1 PUSH2 0xC58 JUMP JUMPDEST PUSH1 0x40 MLOAD DUP1 SWAP2 SUB SWAP1 RETURN JUMPDEST PUSH2 0x247 PUSH1 0x4 DUP1 CALLDATASIZE SUB DUP2 ADD SWAP1 PUSH2 0x242 SWAP2 SWAP1 PUSH2 0xAF2 JUMP JUMPDEST PUSH2 0x6C9 JUMP JUMPDEST STOP JUMPDEST PUSH0 PUSH1 0x1 PUSH0 DUP4 PUSH20 0xFFFFFFFFFFFFFFFFFFFFFFFFFFFFFFFFFFFFFFFF AND PUSH20 0xFFFFFFFFFFFFFFFFFFFFFFFFFFFFFFFFFFFFFFFF AND DUP2 MSTORE PUSH1 0x20 ADD SWAP1 DUP2 MSTORE PUSH1 0x20 ADD PUSH0 KECCAK256 SLOAD SWAP1 POP PUSH0 PUSH0 SWAP1 POP JUMPDEST PUSH1 0x3 DUP2 LT ISZERO PUSH2 0x350 JUMPI DUP3 PUSH20 0xFFFFFFFFFFFFFFFFFFFFFFFFFFFFFFFFFFFFFFFF AND PUSH1 0x2 DUP3 DUP2 SLOAD DUP2 LT PUSH2 0x2C3 JUMPI PUSH2 0x2C2 PUSH2 0xC7F JUMP JUMPDEST JUMPDEST SWAP1 PUSH0 MSTORE PUSH1 0x20 PUSH0 KECCAK256 SWAP1 PUSH1 0x2 MUL ADD PUSH0 ADD PUSH0 SWAP1 SLOAD SWAP1 PUSH2 0x100 EXP SWAP1 DIV PUSH20 0xFFFFFFFFFFFFFFFFFFFFFFFFFFFFFFFFFFFFFFFF AND PUSH20 0xFFFFFFFFFFFFFFFFFFFFFFFFFFFFFFFFFFFFFFFF AND SUB PUSH2 0x343 JUMPI DUP2 PUSH1 0x2 DUP3 DUP2 SLOAD DUP2 LT PUSH2 0x321 JUMPI PUSH2 0x320 PUSH2 0xC7F JUMP JUMPDEST JUMPDEST SWAP1 PUSH0 MSTORE PUSH1 0x20 PUSH0 KECCAK256 SWAP1 PUSH1 0x2 MUL ADD PUSH1 0x1 ADD DUP2 SWAP1 SSTORE POP PUSH2 0x33C PUSH2 0x76A JUMP JUMPDEST POP POP PUSH2 0x445 JUMP JUMPDEST DUP1 DUP1 PUSH1 0x1 ADD SWAP2 POP POP PUSH2 0x28F JUMP JUMPDEST POP PUSH0 PUSH0 SWAP1 POP JUMPDEST PUSH1 0x3 DUP2 LT ISZERO PUSH2 0x442 JUMPI PUSH1 0x2 DUP2 DUP2 SLOAD DUP2 LT PUSH2 0x373 JUMPI PUSH2 0x372 PUSH2 0xC7F JUMP JUMPDEST JUMPDEST SWAP1 PUSH0 MSTORE PUSH1 0x20 PUSH0 KECCAK256 SWAP1 PUSH1 0x2 MUL ADD PUSH1 0x1 ADD SLOAD DUP3 GT ISZERO PUSH2 0x435 JUMPI PUSH1 0x40 MLOAD DUP1 PUSH1 0x40 ADD PUSH1 0x40 MSTORE DUP1 DUP5 PUSH20 0xFFFFFFFFFFFFFFFFFFFFFFFFFFFFFFFFFFFFFFFF AND DUP2 MSTORE PUSH1 0x20 ADD DUP4 DUP2 MSTORE POP PUSH1 0x2 DUP3 DUP2 SLOAD DUP2 LT PUSH2 0x3C9 JUMPI PUSH2 0x3C8 PUSH2 0xC7F JUMP JUMPDEST JUMPDEST SWAP1 PUSH0 MSTORE PUSH1 0x20 PUSH0 KECCAK256 SWAP1 PUSH1 0x2 MUL ADD PUSH0 DUP3 ADD MLOAD DUP2 PUSH0 ADD PUSH0 PUSH2 0x100 EXP DUP2 SLOAD DUP2 PUSH20 0xFFFFFFFFFFFFFFFFFFFFFFFFFFFFFFFFFFFFFFFF MUL NOT AND SWAP1 DUP4 PUSH20 0xFFFFFFFFFFFFFFFFFFFFFFFFFFFFFFFFFFFFFFFF AND MUL OR SWAP1 SSTORE POP PUSH1 0x20 DUP3 ADD MLOAD DUP2 PUSH1 0x1 ADD SSTORE SWAP1 POP POP PUSH2 0x42E PUSH2 0x76A JUMP JUMPDEST POP POP PUSH2 0x445 JUMP JUMPDEST DUP1 DUP1 PUSH1 0x1 ADD SWAP2 POP POP PUSH2 0x356 JUMP JUMPDEST POP POP JUMPDEST POP JUMP JUMPDEST PUSH0 PUSH1 0x1 PUSH0 CALLER PUSH20 0xFFFFFFFFFFFFFFFFFFFFFFFFFFFFFFFFFFFFFFFF AND PUSH20 0xFFFFFFFFFFFFFFFFFFFFFFFFFFFFFFFFFFFFFFFF AND DUP2 MSTORE PUSH1 0x20 ADD SWAP1 DUP2 MSTORE PUSH1 0x20 ADD PUSH0 KECCAK256 SLOAD SWAP1 POP SWAP1 JUMP JUMPDEST PUSH1 0x1 PUSH1 0x20 MSTORE DUP1 PUSH0 MSTORE PUSH1 0x40 PUSH0 KECCAK256 PUSH0 SWAP2 POP SWAP1 POP SLOAD DUP2 JUMP JUMPDEST PUSH0 PUSH0 SWAP1 SLOAD SWAP1 PUSH2 0x100 EXP SWAP1 DIV PUSH20 0xFFFFFFFFFFFFFFFFFFFFFFFFFFFFFFFFFFFFFFFF AND PUSH20 0xFFFFFFFFFFFFFFFFFFFFFFFFFFFFFFFFFFFFFFFF AND CALLER PUSH20 0xFFFFFFFFFFFFFFFFFFFFFFFFFFFFFFFFFFFFFFFF AND EQ PUSH2 0x52F JUMPI PUSH1 0x40 MLOAD PUSH32 0x8C379A000000000000000000000000000000000000000000000000000000000 DUP2 MSTORE PUSH1 0x4 ADD PUSH2 0x526 SWAP1 PUSH2 0xD06 JUMP JUMPDEST PUSH1 0x40 MLOAD DUP1 SWAP2 SUB SWAP1 REVERT JUMPDEST CALLER PUSH20 0xFFFFFFFFFFFFFFFFFFFFFFFFFFFFFFFFFFFFFFFF AND PUSH2 0x8FC DUP3 SWAP1 DUP2 ISZERO MUL SWAP1 PUSH1 0x40 MLOAD PUSH0 PUSH1 0x40 MLOAD DUP1 DUP4 SUB DUP2 DUP6 DUP9 DUP9 CALL SWAP4 POP POP POP POP ISZERO DUP1 ISZERO PUSH2 0x572 JUMPI RETURNDATASIZE PUSH0 PUSH0 RETURNDATACOPY RETURNDATASIZE PUSH0 REVERT JUMPDEST POP POP JUMP JUMPDEST PUSH1 0x60 PUSH1 0x2 DUP1 SLOAD DUP1 PUSH1 0x20 MUL PUSH1 0x20 ADD PUSH1 0x40 MLOAD SWAP1 DUP2 ADD PUSH1 0x40 MSTORE DUP1 SWAP3 SWAP2 SWAP1 DUP2 DUP2 MSTORE PUSH1 0x20 ADD PUSH0 SWAP1 JUMPDEST DUP3 DUP3 LT ISZERO PUSH2 0x627 JUMPI DUP4 DUP3 SWAP1 PUSH0 MSTORE PUSH1 0x20 PUSH0 KECCAK256 SWAP1 PUSH1 0x2 MUL ADD PUSH1 0x40 MLOAD DUP1 PUSH1 0x40 ADD PUSH1 0x40 MSTORE SWAP1 DUP2 PUSH0 DUP3 ADD PUSH0 SWAP1 SLOAD SWAP1 PUSH2 0x100 EXP SWAP1 DIV PUSH20 0xFFFFFFFFFFFFFFFFFFFFFFFFFFFFFFFFFFFFFFFF AND PUSH20 0xFFFFFFFFFFFFFFFFFFFFFFFFFFFFFFFFFFFFFFFF AND PUSH20 0xFFFFFFFFFFFFFFFFFFFFFFFFFFFFFFFFFFFFFFFF AND DUP2 MSTORE PUSH1 0x20 ADD PUSH1 0x1 DUP3 ADD SLOAD DUP2 MSTORE POP POP DUP2 MSTORE PUSH1 0x20 ADD SWAP1 PUSH1 0x1 ADD SWAP1 PUSH2 0x599 JUMP JUMPDEST POP POP POP POP SWAP1 POP SWAP1 JUMP JUMPDEST PUSH0 PUSH0 PUSH0 SWAP1 SLOAD SWAP1 PUSH2 0x100 EXP SWAP1 DIV PUSH20 0xFFFFFFFFFFFFFFFFFFFFFFFFFFFFFFFFFFFFFFFF AND SWAP1 POP SWAP1 JUMP JUMPDEST PUSH0 PUSH0 SWAP1 SLOAD SWAP1 PUSH2 0x100 EXP SWAP1 DIV PUSH20 0xFFFFFFFFFFFFFFFFFFFFFFFFFFFFFFFFFFFFFFFF AND DUP2 JUMP JUMPDEST PUSH1 0x2 DUP2 DUP2 SLOAD DUP2 LT PUSH2 0x68A JUMPI PUSH0 DUP1 REVERT JUMPDEST SWAP1 PUSH0 MSTORE PUSH1 0x20 PUSH0 KECCAK256 SWAP1 PUSH1 0x2 MUL ADD PUSH0 SWAP2 POP SWAP1 POP DUP1 PUSH0 ADD PUSH0 SWAP1 SLOAD SWAP1 PUSH2 0x100 EXP SWAP1 DIV PUSH20 0xFFFFFFFFFFFFFFFFFFFFFFFFFFFFFFFFFFFFFFFF AND SWAP1 DUP1 PUSH1 0x1 ADD SLOAD SWAP1 POP DUP3 JUMP JUMPDEST DUP1 CALLVALUE EQ PUSH2 0x70B JUMPI PUSH1 0x40 MLOAD PUSH32 0x8C379A000000000000000000000000000000000000000000000000000000000 DUP2 MSTORE PUSH1 0x4 ADD PUSH2 0x702 SWAP1 PUSH2 0xD6E JUMP JUMPDEST PUSH1 0x40 MLOAD DUP1 SWAP2 SUB SWAP1 REVERT JUMPDEST CALLVALUE PUSH1 0x1 PUSH0 CALLER PUSH20 0xFFFFFFFFFFFFFFFFFFFFFFFFFFFFFFFFFFFFFFFF AND PUSH20 0xFFFFFFFFFFFFFFFFFFFFFFFFFFFFFFFFFFFFFFFF AND DUP2 MSTORE PUSH1 0x20 ADD SWAP1 DUP2 MSTORE PUSH1 0x20 ADD PUSH0 KECCAK256 PUSH0 DUP3 DUP3 SLOAD PUSH2 0x757 SWAP2 SWAP1 PUSH2 0x9E4 JUMP JUMPDEST SWAP3 POP POP DUP2 SWAP1 SSTORE POP PUSH2 0x767 CALLER PUSH2 0x249 JUMP JUMPDEST POP JUMP JUMPDEST PUSH0 PUSH0 SWAP1 POP JUMPDEST PUSH1 0x2 DUP2 LT ISZERO PUSH2 0x9AB JUMPI PUSH0 PUSH1 0x1 DUP3 PUSH2 0x786 SWAP2 SWAP1 PUSH2 0x9E4 JUMP JUMPDEST SWAP1 POP JUMPDEST PUSH1 0x3 DUP2 LT ISZERO PUSH2 0x99D JUMPI PUSH1 0x2 DUP3 DUP2 SLOAD DUP2 LT PUSH2 0x7A6 JUMPI PUSH2 0x7A5 PUSH2 0xC7F JUMP JUMPDEST JUMPDEST SWAP1 PUSH0 MSTORE PUSH1 0x20 PUSH0 KECCAK256 SWAP1 PUSH1 0x2 MUL ADD PUSH1 0x1 ADD SLOAD PUSH1 0x2 DUP3 DUP2 SLOAD DUP2 LT PUSH2 0x7CA JUMPI PUSH2 0x7C9 PUSH2 0xC7F JUMP JUMPDEST JUMPDEST SWAP1 PUSH0 MSTORE PUSH1 0x20 PUSH0 KECCAK256 SWAP1 PUSH1 0x2 MUL ADD PUSH1 0x1 ADD SLOAD GT ISZERO PUSH2 0x990 JUMPI PUSH0 PUSH1 0x2 DUP4 DUP2 SLOAD DUP2 LT PUSH2 0x7F5 JUMPI PUSH2 0x7F4 PUSH2 0xC7F JUMP JUMPDEST JUMPDEST SWAP1 PUSH0 MSTORE PUSH1 0x20 PUSH0 KECCAK256 SWAP1 PUSH1 0x2 MUL ADD PUSH1 0x40 MLOAD DUP1 PUSH1 0x40 ADD PUSH1 0x40 MSTORE SWAP1 DUP2 PUSH0 DUP3 ADD PUSH0 SWAP1 SLOAD SWAP1 PUSH2 0x100 EXP SWAP1 DIV PUSH20 0xFFFFFFFFFFFFFFFFFFFFFFFFFFFFFFFFFFFFFFFF AND PUSH20 0xFFFFFFFFFFFFFFFFFFFFFFFFFFFFFFFFFFFFFFFF AND PUSH20 0xFFFFFFFFFFFFFFFFFFFFFFFFFFFFFFFFFFFFFFFF AND DUP2 MSTORE PUSH1 0x20 ADD PUSH1 0x1 DUP3 ADD SLOAD DUP2 MSTORE POP POP SWAP1 POP PUSH1 0x2 DUP3 DUP2 SLOAD DUP2 LT PUSH2 0x880 JUMPI PUSH2 0x87F PUSH2 0xC7F JUMP JUMPDEST JUMPDEST SWAP1 PUSH0 MSTORE PUSH1 0x20 PUSH0 KECCAK256 SWAP1 PUSH1 0x2 MUL ADD PUSH1 0x2 DUP5 DUP2 SLOAD DUP2 LT PUSH2 0x8A0 JUMPI PUSH2 0x89F PUSH2 0xC7F JUMP JUMPDEST JUMPDEST SWAP1 PUSH0 MSTORE PUSH1 0x20 PUSH0 KECCAK256 SWAP1 PUSH1 0x2 MUL ADD PUSH0 DUP3 ADD PUSH0 SWAP1 SLOAD SWAP1 PUSH2 0x100 EXP SWAP1 DIV PUSH20 0xFFFFFFFFFFFFFFFFFFFFFFFFFFFFFFFFFFFFFFFF AND DUP2 PUSH0 ADD PUSH0 PUSH2 0x100 EXP DUP2 SLOAD DUP2 PUSH20 0xFFFFFFFFFFFFFFFFFFFFFFFFFFFFFFFFFFFFFFFF MUL NOT AND SWAP1 DUP4 PUSH20 0xFFFFFFFFFFFFFFFFFFFFFFFFFFFFFFFFFFFFFFFF AND MUL OR SWAP1 SSTORE POP PUSH1 0x1 DUP3 ADD SLOAD DUP2 PUSH1 0x1 ADD SSTORE SWAP1 POP POP DUP1 PUSH1 0x2 DUP4 DUP2 SLOAD DUP2 LT PUSH2 0x931 JUMPI PUSH2 0x930 PUSH2 0xC7F JUMP JUMPDEST JUMPDEST SWAP1 PUSH0 MSTORE PUSH1 0x20 PUSH0 KECCAK256 SWAP1 PUSH1 0x2 MUL ADD PUSH0 DUP3 ADD MLOAD DUP2 PUSH0 ADD PUSH0 PUSH2 0x100 EXP DUP2 SLOAD DUP2 PUSH20 0xFFFFFFFFFFFFFFFFFFFFFFFFFFFFFFFFFFFFFFFF MUL NOT AND SWAP1 DUP4 PUSH20 0xFFFFFFFFFFFFFFFFFFFFFFFFFFFFFFFFFFFFFFFF AND MUL OR SWAP1 SSTORE POP PUSH1 0x20 DUP3 ADD MLOAD DUP2 PUSH1 0x1 ADD SSTORE SWAP1 POP POP POP JUMPDEST DUP1 DUP1 PUSH1 0x1 ADD SWAP2 POP POP PUSH2 0x789 JUMP JUMPDEST POP DUP1 DUP1 PUSH1 0x1 ADD SWAP2 POP POP PUSH2 0x76F JUMP JUMPDEST POP JUMP JUMPDEST PUSH0 DUP2 SWAP1 POP SWAP2 SWAP1 POP JUMP JUMPDEST PUSH32 0x4E487B7100000000000000000000000000000000000000000000000000000000 PUSH0 MSTORE PUSH1 0x11 PUSH1 0x4 MSTORE PUSH1 0x24 PUSH0 REVERT JUMPDEST PUSH0 PUSH2 0x9EE DUP3 PUSH2 0x9AE JUMP JUMPDEST SWAP2 POP PUSH2 0x9F9 DUP4 PUSH2 0x9AE JUMP JUMPDEST SWAP3 POP DUP3 DUP3 ADD SWAP1 POP DUP1 DUP3 GT ISZERO PUSH2 0xA11 JUMPI PUSH2 0xA10 PUSH2 0x9B7 JUMP JUMPDEST JUMPDEST SWAP3 SWAP2 POP POP JUMP JUMPDEST PUSH2 0xA20 DUP2 PUSH2 0x9AE JUMP JUMPDEST DUP3 MSTORE POP POP JUMP JUMPDEST PUSH0 PUSH1 0x20 DUP3 ADD SWAP1 POP PUSH2 0xA39 PUSH0 DUP4 ADD DUP5 PUSH2 0xA17 JUMP JUMPDEST SWAP3 SWAP2 POP POP JUMP JUMPDEST PUSH0 PUSH0 REVERT JUMPDEST PUSH0 PUSH20 0xFFFFFFFFFFFFFFFFFFFFFFFFFFFFFFFFFFFFFFFF DUP3 AND SWAP1 POP SWAP2 SWAP1 POP JUMP JUMPDEST PUSH0 PUSH2 0xA6C DUP3 PUSH2 0xA43 JUMP JUMPDEST SWAP1 POP SWAP2 SWAP1 POP JUMP JUMPDEST PUSH2 0xA7C DUP2 PUSH2 0xA62 JUMP JUMPDEST DUP2 EQ PUSH2 0xA86 JUMPI PUSH0 PUSH0 REVERT JUMPDEST POP JUMP JUMPDEST PUSH0 DUP2 CALLDATALOAD SWAP1 POP PUSH2 0xA97 DUP2 PUSH2 0xA73 JUMP JUMPDEST SWAP3 SWAP2 POP POP JUMP JUMPDEST PUSH0 PUSH1 0x20 DUP3 DUP5 SUB SLT ISZERO PUSH2 0xAB2 JUMPI PUSH2 0xAB1 PUSH2 0xA3F JUMP JUMPDEST JUMPDEST PUSH0 PUSH2 0xABF DUP5 DUP3 DUP6 ADD PUSH2 0xA89 JUMP JUMPDEST SWAP2 POP POP SWAP3 SWAP2 POP POP JUMP JUMPDEST PUSH2 0xAD1 DUP2 PUSH2 0x9AE JUMP JUMPDEST DUP2 EQ PUSH2 0xADB JUMPI PUSH0 PUSH0 REVERT JUMPDEST POP JUMP JUMPDEST PUSH0 DUP2 CALLDATALOAD SWAP1 POP PUSH2 0xAEC DUP2 PUSH2 0xAC8 JUMP JUMPDEST SWAP3 SWAP2 POP POP JUMP JUMPDEST PUSH0 PUSH1 0x20 DUP3 DUP5 SUB SLT ISZERO PUSH2 0xB07 JUMPI PUSH2 0xB06 PUSH2 0xA3F JUMP JUMPDEST JUMPDEST PUSH0 PUSH2 0xB14 DUP5 DUP3 DUP6 ADD PUSH2 0xADE JUMP JUMPDEST SWAP2 POP POP SWAP3 SWAP2 POP POP JUMP JUMPDEST PUSH0 DUP2 MLOAD SWAP1 POP SWAP2 SWAP1 POP JUMP JUMPDEST PUSH0 DUP3 DUP3 MSTORE PUSH1 0x20 DUP3 ADD SWAP1 POP SWAP3 SWAP2 POP POP JUMP JUMPDEST PUSH0 DUP2 SWAP1 POP PUSH1 0x20 DUP3 ADD SWAP1 POP SWAP2 SWAP1 POP JUMP JUMPDEST PUSH2 0xB4F DUP2 PUSH2 0xA62 JUMP JUMPDEST DUP3 MSTORE POP POP JUMP JUMPDEST PUSH2 0xB5E DUP2 PUSH2 0x9AE JUMP JUMPDEST DUP3 MSTORE POP POP JUMP JUMPDEST PUSH1 0x40 DUP3 ADD PUSH0 DUP3 ADD MLOAD PUSH2 0xB78 PUSH0 DUP6 ADD DUP3 PUSH2 0xB46 JUMP JUMPDEST POP PUSH1 0x20 DUP3 ADD MLOAD PUSH2 0xB8B PUSH1 0x20 DUP6 ADD DUP3 PUSH2 0xB55 JUMP JUMPDEST POP POP POP POP JUMP JUMPDEST PUSH0 PUSH2 0xB9C DUP4 DUP4 PUSH2 0xB64 JUMP JUMPDEST PUSH1 0x40 DUP4 ADD SWAP1 POP SWAP3 SWAP2 POP POP JUMP JUMPDEST PUSH0 PUSH1 0x20 DUP3 ADD SWAP1 POP SWAP2 SWAP1 POP JUMP JUMPDEST PUSH0 PUSH2 0xBBE DUP3 PUSH2 0xB1D JUMP JUMPDEST PUSH2 0xBC8 DUP2 DUP6 PUSH2 0xB27 JUMP JUMPDEST SWAP4 POP PUSH2 0xBD3 DUP4 PUSH2 0xB37 JUMP JUMPDEST DUP1 PUSH0 JUMPDEST DUP4 DUP2 LT ISZERO PUSH2 0xC03 JUMPI DUP2 MLOAD PUSH2 0xBEA DUP9 DUP3 PUSH2 0xB91 JUMP JUMPDEST SWAP8 POP PUSH2 0xBF5 DUP4 PUSH2 0xBA8 JUMP JUMPDEST SWAP3 POP POP PUSH1 0x1 DUP2 ADD SWAP1 POP PUSH2 0xBD6 JUMP JUMPDEST POP DUP6 SWAP4 POP POP POP POP SWAP3 SWAP2 POP POP JUMP JUMPDEST PUSH0 PUSH1 0x20 DUP3 ADD SWAP1 POP DUP2 DUP2 SUB PUSH0 DUP4 ADD MSTORE PUSH2 0xC28 DUP2 DUP5 PUSH2 0xBB4 JUMP JUMPDEST SWAP1 POP SWAP3 SWAP2 POP POP JUMP JUMPDEST PUSH2 0xC39 DUP2 PUSH2 0xA62 JUMP JUMPDEST DUP3 MSTORE POP POP JUMP JUMPDEST PUSH0 PUSH1 0x20 DUP3 ADD SWAP1 POP PUSH2 0xC52 PUSH0 DUP4 ADD DUP5 PUSH2 0xC30 JUMP JUMPDEST SWAP3 SWAP2 POP POP JUMP JUMPDEST PUSH0 PUSH1 0x40 DUP3 ADD SWAP1 POP PUSH2 0xC6B PUSH0 DUP4 ADD DUP6 PUSH2 0xC30 JUMP JUMPDEST PUSH2 0xC78 PUSH1 0x20 DUP4 ADD DUP5 PUSH2 0xA17 JUMP JUMPDEST SWAP4 SWAP3 POP POP POP JUMP JUMPDEST PUSH32 0x4E487B7100000000000000000000000000000000000000000000000000000000 PUSH0 MSTORE PUSH1 0x32 PUSH1 0x4 MSTORE PUSH1 0x24 PUSH0 REVERT JUMPDEST PUSH0 DUP3 DUP3 MSTORE PUSH1 0x20 DUP3 ADD SWAP1 POP SWAP3 SWAP2 POP POP JUMP JUMPDEST PUSH32 0x4E6F6574206F776E657200000000000000000000000000000000000000000000 PUSH0 DUP3 ADD MSTORE POP JUMP JUMPDEST PUSH0 PUSH2 0xCF0 PUSH1 0xA DUP4 PUSH2 0xCAC JUMP JUMPDEST SWAP2 POP PUSH2 0xCFB DUP3 PUSH2 0xCBC JUMP JUMPDEST PUSH1 0x20 DUP3 ADD SWAP1 POP SWAP2 SWAP1 POP JUMP JUMPDEST PUSH0 PUSH1 0x20 DUP3 ADD SWAP1 POP DUP2 DUP2 SUB PUSH0 DUP4 ADD MSTORE PUSH2 0xD1D DUP2 PUSH2 0xCE4 JUMP JUMPDEST SWAP1 POP SWAP2 SWAP1 POP JUMP JUMPDEST PUSH32 0x416D6F756E74206D69736D6174636820776974682076616C75652073656E7400 PUSH0 DUP3 ADD MSTORE POP JUMP JUMPDEST PUSH0 PUSH2 0xD58 PUSH1 0x1F DUP4 PUSH2 0xCAC JUMP JUMPDEST SWAP2 POP PUSH2 0xD63 DUP3 PUSH2 0xD24 JUMP JUMPDEST PUSH1 0x20 DUP3 ADD SWAP1 POP SWAP2 SWAP1 POP JUMP JUMPDEST PUSH0 PUSH1 0x20 DUP3 ADD SWAP1 POP DUP2 DUP2 SUB PUSH0 DUP4 ADD MSTORE PUSH2 0xD85 DUP2 PUSH2 0xD4C JUMP JUMPDEST SWAP1 POP SWAP2 SWAP1 POP JUMP INVALID LOG2 PUSH5 0x6970667358 0x22 SLT KECCAK256 DUP3 STATICCALL 0xE MSIZE PUSH20 0xF5A40E767DC1CD5D01D464272241A52AA9FDAFDB DELEGATECALL COINBASE DUP3 0xFC EOFCREATE 0x49 0xDA PUSH5 0x736F6C6343 STOP ADDMOD 0x1E STOP CALLER "
				},
				"gasEstimates": {
					"creation": {
						"codeDepositCost": "704400",
						"executionCost": "infinite",
						"totalCost": "infinite"
					},
					"external": {
						"balances(address)": "2825",
						"deposit(uint256)": "infinite",
						"getBalances()": "2520",
						"getOwner()": "2514",
						"getTopDepositors()": "infinite",
						"owner()": "2529",
						"tops(uint256)": "infinite",
						"withdraw(uint256)": "infinite"
					},
					"internal": {
						"_sortTopDepositors()": "infinite",
						"_updateTops(address)": "infinite"
					}
				},
				"methodIdentifiers": {
					"balances(address)": "27e235e3",
					"deposit(uint256)": "b6b55f25",
					"getBalances()": "00113e08",
					"getOwner()": "893d20e8",
					"getTopDepositors()": "81454f71",
					"owner()": "8da5cb5b",
					"tops(uint256)": "a7211664",
					"withdraw(uint256)": "2e1a7d4d"
				}
			},
			"storageLayout": {
				"storage": [
					{
						"astId": 3,
						"contract": "tests/bank1.sol:Bank",
						"label": "owner",
						"offset": 0,
						"slot": "0",
						"type": "t_address"
					},
					{
						"astId": 19,
						"contract": "tests/bank1.sol:Bank",
						"label": "balances",
						"offset": 0,
						"slot": "1",
						"type": "t_mapping(t_address,t_uint256)"
					},
					{
						"astId": 28,
						"contract": "tests/bank1.sol:Bank",
						"label": "tops",
						"offset": 0,
						"slot": "2",
						"type": "t_array(t_struct(TopDepositor)24_storage)dyn_storage"
					}
				],
				"types": {
					"t_address": {
						"encoding": "inplace",
						"label": "address",
						"numberOfBytes": "20"
					},
					"t_array(t_struct(TopDepositor)24_storage)dyn_storage": {
						"base": "t_struct(TopDepositor)24_storage",
						"encoding": "dynamic_array",
						"label": "struct Bank.TopDepositor[]",
						"numberOfBytes": "32"
					},
					"t_mapping(t_address,t_uint256)": {
						"encoding": "mapping",
						"key": "t_address",
						"label": "mapping(address => uint256)",
						"numberOfBytes": "32",
						"value": "t_uint256"
					},
					"t_struct(TopDepositor)24_storage": {
						"encoding": "inplace",
						"label": "struct Bank.TopDepositor",
						"members": [
							{
								"astId": 21,
								"contract": "tests/bank1.sol:Bank",
								"label": "addr",
								"offset": 0,
								"slot": "0",
								"type": "t_address"
							},
							{
								"astId": 23,
								"contract": "tests/bank1.sol:Bank",
								"label": "amount",
								"offset": 0,
								"slot": "1",
								"type": "t_uint256"
							}
						],
						"numberOfBytes": "64"
					},
					"t_uint256": {
						"encoding": "inplace",
						"label": "uint256",
						"numberOfBytes": "32"
					}
				}
			},
			"userdoc": {
				"kind": "user",
				"methods": {},
				"version": 1
			}
		}
	}
}