{
	"tests/bank.sol": {
		"Bank": {
			"abi": [
				{
					"inputs": [],
					"stateMutability": "nonpayable",
					"type": "constructor"
				},
				{
					"inputs": [
						{
							"internalType": "address",
							"name": "",
							"type": "address"
						}
					],
					"name": "balances",
					"outputs": [
						{
							"internalType": "uint256",
							"name": "",
							"type": "uint256"
						}
					],
					"stateMutability": "view",
					"type": "function"
				},
				{
					"inputs": [
						{
							"internalType": "uint256",
							"name": "amount",
							"type": "uint256"
						}
					],
					"name": "deposit",
					"outputs": [],
					"stateMutability": "payable",
					"type": "function"
				},
				{
					"inputs": [],
					"name": "getBalances",
					"outputs": [
						{
							"internalType": "uint256",
							"name": "",
							"type": "uint256"
						}
					],
					"stateMutability": "view",
					"type": "function"
				},
				{
					"inputs": [],
					"name": "getTopDepositors",
					"outputs": [
						{
							"components": [
								{
									"internalType": "address",
									"name": "addr",
									"type": "address"
								},
								{
									"internalType": "uint256",
									"name": "amount",
									"type": "uint256"
								}
							],
							"internalType": "struct Bank.TopDepositor[]",
							"name": "",
							"type": "tuple[]"
						}
					],
					"stateMutability": "view",
					"type": "function"
				},
				{
					"inputs": [
						{
							"internalType": "uint256",
							"name": "",
							"type": "uint256"
						}
					],
					"name": "tops",
					"outputs": [
						{
							"internalType": "address",
							"name": "addr",
							"type": "address"
						},
						{
							"internalType": "uint256",
							"name": "amount",
							"type": "uint256"
						}
					],
					"stateMutability": "view",
					"type": "function"
				},
				{
					"inputs": [
						{
							"internalType": "uint256",
							"name": "money",
							"type": "uint256"
						}
					],
					"name": "withdraw",
					"outputs": [],
					"stateMutability": "nonpayable",
					"type": "function"
				},
				{
					"stateMutability": "payable",
					"type": "receive"
				}
			],
			"devdoc": {
				"kind": "dev",
				"methods": {},
				"version": 1
			},
			"evm": {
				"assembly": "    /* \"tests/bank.sol\":74:2318  contract Bank {... */\n  mstore(0x40, 0x80)\n    /* \"tests/bank.sol\":313:470  constructor() {... */\n  callvalue\n  dup1\n  iszero\n  tag_1\n  jumpi\n  revert(0x00, 0x00)\ntag_1:\n  pop\n    /* \"tests/bank.sol\":374:380  uint i */\n  0x00\n    /* \"tests/bank.sol\":383:384  0 */\n  0x00\n    /* \"tests/bank.sol\":374:384  uint i = 0 */\n  swap1\n  pop\n    /* \"tests/bank.sol\":369:463  for (uint i = 0; i < 3; i++) {... */\ntag_4:\n    /* \"tests/bank.sol\":390:391  3 */\n  0x03\n    /* \"tests/bank.sol\":386:387  i */\n  dup2\n    /* \"tests/bank.sol\":386:391  i < 3 */\n  lt\n    /* \"tests/bank.sol\":369:463  for (uint i = 0; i < 3; i++) {... */\n  iszero\n  tag_5\n  jumpi\n    /* \"tests/bank.sol\":413:417  tops */\n  0x01\n    /* \"tests/bank.sol\":423:450  TopDepositor(address(0), 0) */\n  mload(0x40)\n  dup1\n  0x40\n  add\n  0x40\n  mstore\n  dup1\n    /* \"tests/bank.sol\":444:445  0 */\n  0x00\n    /* \"tests/bank.sol\":423:450  TopDepositor(address(0), 0) */\n  0xffffffffffffffffffffffffffffffffffffffff\n  and\n  dup2\n  mstore\n  0x20\n  add\n    /* \"tests/bank.sol\":448:449  0 */\n  0x00\n    /* \"tests/bank.sol\":423:450  TopDepositor(address(0), 0) */\n  dup2\n  mstore\n  pop\n    /* \"tests/bank.sol\":413:451  tops.push(TopDepositor(address(0), 0)) */\n  swap1\n  dup1\n  0x01\n  dup2\n  sload\n  add\n  dup1\n  dup3\n  sstore\n  dup1\n  swap2\n  pop\n  pop\n  0x01\n  swap1\n  sub\n  swap1\n  0x00\n  mstore\n  keccak256(0x00, 0x20)\n  swap1\n  0x02\n  mul\n  add\n  0x00\n  swap1\n  swap2\n  swap1\n  swap2\n  swap1\n  swap2\n  pop\n  0x00\n  dup3\n  add\n  mload\n  dup2\n  0x00\n  add\n  exp(0x0100, 0x00)\n  dup2\n  sload\n  dup2\n  0xffffffffffffffffffffffffffffffffffffffff\n  mul\n  not\n  and\n  swap1\n  dup4\n  0xffffffffffffffffffffffffffffffffffffffff\n  and\n  mul\n  or\n  swap1\n  sstore\n  pop\n  0x20\n  dup3\n  add\n  mload\n  dup2\n  0x01\n  add\n  sstore\n  pop\n  pop\n    /* \"tests/bank.sol\":393:396  i++ */\n  dup1\n  dup1\n  0x01\n  add\n  swap2\n  pop\n  pop\n    /* \"tests/bank.sol\":369:463  for (uint i = 0; i < 3; i++) {... */\n  jump(tag_4)\ntag_5:\n  pop\n    /* \"tests/bank.sol\":74:2318  contract Bank {... */\n  dataSize(sub_0)\n  dup1\n  dataOffset(sub_0)\n  0x00\n  codecopy\n  0x00\n  return\nstop\n\nsub_0: assembly {\n        /* \"tests/bank.sol\":74:2318  contract Bank {... */\n      mstore(0x40, 0x80)\n      jumpi(tag_1, lt(calldatasize, 0x04))\n      shr(0xe0, calldataload(0x00))\n      dup1\n      0x113e08\n      eq\n      tag_3\n      jumpi\n      dup1\n      0x27e235e3\n      eq\n      tag_4\n      jumpi\n      dup1\n      0x2e1a7d4d\n      eq\n      tag_5\n      jumpi\n      dup1\n      0x81454f71\n      eq\n      tag_6\n      jumpi\n      dup1\n      0xa7211664\n      eq\n      tag_7\n      jumpi\n      dup1\n      0xb6b55f25\n      eq\n      tag_8\n      jumpi\n      jump(tag_2)\n    tag_1:\n      jumpi(tag_2, calldatasize)\n        /* \"tests/bank.sol\":2232:2241  msg.value */\n      callvalue\n        /* \"tests/bank.sol\":2208:2216  balances */\n      0x00\n        /* \"tests/bank.sol\":2208:2228  balances[msg.sender] */\n      0x00\n        /* \"tests/bank.sol\":2217:2227  msg.sender */\n      caller\n        /* \"tests/bank.sol\":2208:2228  balances[msg.sender] */\n      0xffffffffffffffffffffffffffffffffffffffff\n      and\n      0xffffffffffffffffffffffffffffffffffffffff\n      and\n      dup2\n      mstore\n      0x20\n      add\n      swap1\n      dup2\n      mstore\n      0x20\n      add\n      0x00\n      keccak256\n      0x00\n        /* \"tests/bank.sol\":2208:2241  balances[msg.sender] += msg.value */\n      dup3\n      dup3\n      sload\n      tag_11\n      swap2\n      swap1\n      tag_12\n      jump\t// in\n    tag_11:\n      swap3\n      pop\n      pop\n      dup2\n      swap1\n      sstore\n      pop\n        /* \"tests/bank.sol\":2279:2302  _updateTops(msg.sender) */\n      tag_13\n        /* \"tests/bank.sol\":2291:2301  msg.sender */\n      caller\n        /* \"tests/bank.sol\":2279:2290  _updateTops */\n      tag_14\n        /* \"tests/bank.sol\":2279:2302  _updateTops(msg.sender) */\n      jump\t// in\n    tag_13:\n        /* \"tests/bank.sol\":74:2318  contract Bank {... */\n      stop\n    tag_2:\n      revert(0x00, 0x00)\n        /* \"tests/bank.sol\":726:826  function getBalances() public view returns (uint256 ) {... */\n    tag_3:\n      callvalue\n      dup1\n      iszero\n      tag_15\n      jumpi\n      revert(0x00, 0x00)\n    tag_15:\n      pop\n      tag_16\n      tag_17\n      jump\t// in\n    tag_16:\n      mload(0x40)\n      tag_18\n      swap2\n      swap1\n      tag_19\n      jump\t// in\n    tag_18:\n      mload(0x40)\n      dup1\n      swap2\n      sub\n      swap1\n      return\n        /* \"tests/bank.sol\":95:140  mapping (address => uint256 ) public balances */\n    tag_4:\n      callvalue\n      dup1\n      iszero\n      tag_20\n      jumpi\n      revert(0x00, 0x00)\n    tag_20:\n      pop\n      tag_21\n      0x04\n      dup1\n      calldatasize\n      sub\n      dup2\n      add\n      swap1\n      tag_22\n      swap2\n      swap1\n      tag_23\n      jump\t// in\n    tag_22:\n      tag_24\n      jump\t// in\n    tag_21:\n      mload(0x40)\n      tag_25\n      swap2\n      swap1\n      tag_19\n      jump\t// in\n    tag_25:\n      mload(0x40)\n      dup1\n      swap2\n      sub\n      swap1\n      return\n        /* \"tests/bank.sol\":834:1041  function withdraw(uint256 money) public {... */\n    tag_5:\n      callvalue\n      dup1\n      iszero\n      tag_26\n      jumpi\n      revert(0x00, 0x00)\n    tag_26:\n      pop\n      tag_27\n      0x04\n      dup1\n      calldatasize\n      sub\n      dup2\n      add\n      swap1\n      tag_28\n      swap2\n      swap1\n      tag_29\n      jump\t// in\n    tag_28:\n      tag_30\n      jump\t// in\n    tag_27:\n      stop\n        /* \"tests/bank.sol\":1669:1781  function getTopDepositors() ... */\n    tag_6:\n      callvalue\n      dup1\n      iszero\n      tag_31\n      jumpi\n      revert(0x00, 0x00)\n    tag_31:\n      pop\n      tag_32\n      tag_33\n      jump\t// in\n    tag_32:\n      mload(0x40)\n      tag_34\n      swap2\n      swap1\n      tag_35\n      jump\t// in\n    tag_34:\n      mload(0x40)\n      dup1\n      swap2\n      sub\n      swap1\n      return\n        /* \"tests/bank.sol\":272:298  TopDepositor[] public tops */\n    tag_7:\n      callvalue\n      dup1\n      iszero\n      tag_36\n      jumpi\n      revert(0x00, 0x00)\n    tag_36:\n      pop\n      tag_37\n      0x04\n      dup1\n      calldatasize\n      sub\n      dup2\n      add\n      swap1\n      tag_38\n      swap2\n      swap1\n      tag_29\n      jump\t// in\n    tag_38:\n      tag_39\n      jump\t// in\n    tag_37:\n      mload(0x40)\n      tag_40\n      swap3\n      swap2\n      swap1\n      tag_41\n      jump\t// in\n    tag_40:\n      mload(0x40)\n      dup1\n      swap2\n      sub\n      swap1\n      return\n        /* \"tests/bank.sol\":480:718  function deposit(uint256 amount) public  payable {... */\n    tag_8:\n      tag_42\n      0x04\n      dup1\n      calldatasize\n      sub\n      dup2\n      add\n      swap1\n      tag_43\n      swap2\n      swap1\n      tag_29\n      jump\t// in\n    tag_43:\n      tag_44\n      jump\t// in\n    tag_42:\n      stop\n        /* \"tests/bank.sol\":1089:1661  function _updateTops(address depositor)... */\n    tag_14:\n        /* \"tests/bank.sol\":1160:1171  uint amount */\n      0x00\n        /* \"tests/bank.sol\":1175:1183  balances */\n      0x00\n        /* \"tests/bank.sol\":1175:1194  balances[depositor] */\n      0x00\n        /* \"tests/bank.sol\":1184:1193  depositor */\n      dup4\n        /* \"tests/bank.sol\":1175:1194  balances[depositor] */\n      0xffffffffffffffffffffffffffffffffffffffff\n      and\n      0xffffffffffffffffffffffffffffffffffffffff\n      and\n      dup2\n      mstore\n      0x20\n      add\n      swap1\n      dup2\n      mstore\n      0x20\n      add\n      0x00\n      keccak256\n      sload\n        /* \"tests/bank.sol\":1160:1194  uint amount =  balances[depositor] */\n      swap1\n      pop\n        /* \"tests/bank.sol\":1209:1215  uint i */\n      0x00\n        /* \"tests/bank.sol\":1218:1219  0 */\n      0x00\n        /* \"tests/bank.sol\":1209:1219  uint i = 0 */\n      swap1\n      pop\n        /* \"tests/bank.sol\":1205:1414  for(uint i = 0 ;i < 3 ; i++){... */\n    tag_46:\n        /* \"tests/bank.sol\":1225:1226  3 */\n      0x03\n        /* \"tests/bank.sol\":1221:1222  i */\n      dup2\n        /* \"tests/bank.sol\":1221:1226  i < 3 */\n      lt\n        /* \"tests/bank.sol\":1205:1414  for(uint i = 0 ;i < 3 ; i++){... */\n      iszero\n      tag_47\n      jumpi\n        /* \"tests/bank.sol\":1269:1278  depositor */\n      dup3\n        /* \"tests/bank.sol\":1252:1278  tops[i].addr ==  depositor */\n      0xffffffffffffffffffffffffffffffffffffffff\n      and\n        /* \"tests/bank.sol\":1252:1256  tops */\n      0x01\n        /* \"tests/bank.sol\":1257:1258  i */\n      dup3\n        /* \"tests/bank.sol\":1252:1259  tops[i] */\n      dup2\n      sload\n      dup2\n      lt\n      tag_49\n      jumpi\n      tag_50\n      tag_51\n      jump\t// in\n    tag_50:\n    tag_49:\n      swap1\n      0x00\n      mstore\n      keccak256(0x00, 0x20)\n      swap1\n      0x02\n      mul\n      add\n        /* \"tests/bank.sol\":1252:1264  tops[i].addr */\n      0x00\n      add\n      0x00\n      swap1\n      sload\n      swap1\n      0x0100\n      exp\n      swap1\n      div\n      0xffffffffffffffffffffffffffffffffffffffff\n      and\n        /* \"tests/bank.sol\":1252:1278  tops[i].addr ==  depositor */\n      0xffffffffffffffffffffffffffffffffffffffff\n      and\n      sub\n        /* \"tests/bank.sol\":1248:1403  if (tops[i].addr ==  depositor ){... */\n      tag_53\n      jumpi\n        /* \"tests/bank.sol\":1316:1322  amount */\n      dup2\n        /* \"tests/bank.sol\":1299:1303  tops */\n      0x01\n        /* \"tests/bank.sol\":1304:1305  i */\n      dup3\n        /* \"tests/bank.sol\":1299:1306  tops[i] */\n      dup2\n      sload\n      dup2\n      lt\n      tag_54\n      jumpi\n      tag_55\n      tag_51\n      jump\t// in\n    tag_55:\n    tag_54:\n      swap1\n      0x00\n      mstore\n      keccak256(0x00, 0x20)\n      swap1\n      0x02\n      mul\n      add\n        /* \"tests/bank.sol\":1299:1313  tops[i].amount */\n      0x01\n      add\n        /* \"tests/bank.sol\":1299:1322  tops[i].amount = amount */\n      dup2\n      swap1\n      sstore\n      pop\n        /* \"tests/bank.sol\":1341:1361  _sortTopDepositors() */\n      tag_57\n        /* \"tests/bank.sol\":1341:1359  _sortTopDepositors */\n      tag_58\n        /* \"tests/bank.sol\":1341:1361  _sortTopDepositors() */\n      jump\t// in\n    tag_57:\n        /* \"tests/bank.sol\":1380:1388  return ; */\n      pop\n      pop\n      jump(tag_45)\n        /* \"tests/bank.sol\":1248:1403  if (tops[i].addr ==  depositor ){... */\n    tag_53:\n        /* \"tests/bank.sol\":1229:1232  i++ */\n      dup1\n      dup1\n      0x01\n      add\n      swap2\n      pop\n      pop\n        /* \"tests/bank.sol\":1205:1414  for(uint i = 0 ;i < 3 ; i++){... */\n      jump(tag_46)\n    tag_47:\n      pop\n        /* \"tests/bank.sol\":1428:1434  uint i */\n      0x00\n        /* \"tests/bank.sol\":1437:1438  0 */\n      0x00\n        /* \"tests/bank.sol\":1428:1438  uint i = 0 */\n      swap1\n      pop\n        /* \"tests/bank.sol\":1424:1652  for(uint i = 0 ; i < 3 ; i++){... */\n    tag_59:\n        /* \"tests/bank.sol\":1445:1446  3 */\n      0x03\n        /* \"tests/bank.sol\":1441:1442  i */\n      dup2\n        /* \"tests/bank.sol\":1441:1446  i < 3 */\n      lt\n        /* \"tests/bank.sol\":1424:1652  for(uint i = 0 ; i < 3 ; i++){... */\n      iszero\n      tag_60\n      jumpi\n        /* \"tests/bank.sol\":1481:1485  tops */\n      0x01\n        /* \"tests/bank.sol\":1486:1487  i */\n      dup2\n        /* \"tests/bank.sol\":1481:1488  tops[i] */\n      dup2\n      sload\n      dup2\n      lt\n      tag_62\n      jumpi\n      tag_63\n      tag_51\n      jump\t// in\n    tag_63:\n    tag_62:\n      swap1\n      0x00\n      mstore\n      keccak256(0x00, 0x20)\n      swap1\n      0x02\n      mul\n      add\n        /* \"tests/bank.sol\":1481:1495  tops[i].amount */\n      0x01\n      add\n      sload\n        /* \"tests/bank.sol\":1472:1478  amount */\n      dup3\n        /* \"tests/bank.sol\":1472:1495  amount > tops[i].amount */\n      gt\n        /* \"tests/bank.sol\":1468:1639  if (amount > tops[i].amount){... */\n      iszero\n      tag_65\n      jumpi\n        /* \"tests/bank.sol\":1527:1558  TopDepositor(depositor, amount) */\n      mload(0x40)\n      dup1\n      0x40\n      add\n      0x40\n      mstore\n      dup1\n        /* \"tests/bank.sol\":1540:1549  depositor */\n      dup5\n        /* \"tests/bank.sol\":1527:1558  TopDepositor(depositor, amount) */\n      0xffffffffffffffffffffffffffffffffffffffff\n      and\n      dup2\n      mstore\n      0x20\n      add\n        /* \"tests/bank.sol\":1551:1557  amount */\n      dup4\n        /* \"tests/bank.sol\":1527:1558  TopDepositor(depositor, amount) */\n      dup2\n      mstore\n      pop\n        /* \"tests/bank.sol\":1517:1521  tops */\n      0x01\n        /* \"tests/bank.sol\":1522:1523  i */\n      dup3\n        /* \"tests/bank.sol\":1517:1524  tops[i] */\n      dup2\n      sload\n      dup2\n      lt\n      tag_66\n      jumpi\n      tag_67\n      tag_51\n      jump\t// in\n    tag_67:\n    tag_66:\n      swap1\n      0x00\n      mstore\n      keccak256(0x00, 0x20)\n      swap1\n      0x02\n      mul\n      add\n        /* \"tests/bank.sol\":1517:1558  tops[i] = TopDepositor(depositor, amount) */\n      0x00\n      dup3\n      add\n      mload\n      dup2\n      0x00\n      add\n      exp(0x0100, 0x00)\n      dup2\n      sload\n      dup2\n      0xffffffffffffffffffffffffffffffffffffffff\n      mul\n      not\n      and\n      swap1\n      dup4\n      0xffffffffffffffffffffffffffffffffffffffff\n      and\n      mul\n      or\n      swap1\n      sstore\n      pop\n      0x20\n      dup3\n      add\n      mload\n      dup2\n      0x01\n      add\n      sstore\n      swap1\n      pop\n      pop\n        /* \"tests/bank.sol\":1577:1597  _sortTopDepositors() */\n      tag_69\n        /* \"tests/bank.sol\":1577:1595  _sortTopDepositors */\n      tag_58\n        /* \"tests/bank.sol\":1577:1597  _sortTopDepositors() */\n      jump\t// in\n    tag_69:\n        /* \"tests/bank.sol\":1616:1624  return ; */\n      pop\n      pop\n      jump(tag_45)\n        /* \"tests/bank.sol\":1468:1639  if (amount > tops[i].amount){... */\n    tag_65:\n        /* \"tests/bank.sol\":1449:1452  i++ */\n      dup1\n      dup1\n      0x01\n      add\n      swap2\n      pop\n      pop\n        /* \"tests/bank.sol\":1424:1652  for(uint i = 0 ; i < 3 ; i++){... */\n      jump(tag_59)\n    tag_60:\n      pop\n        /* \"tests/bank.sol\":1149:1661  {... */\n      pop\n        /* \"tests/bank.sol\":1089:1661  function _updateTops(address depositor)... */\n    tag_45:\n      pop\n      jump\t// out\n        /* \"tests/bank.sol\":726:826  function getBalances() public view returns (uint256 ) {... */\n    tag_17:\n        /* \"tests/bank.sol\":770:777  uint256 */\n      0x00\n        /* \"tests/bank.sol\":798:806  balances */\n      0x00\n        /* \"tests/bank.sol\":798:818  balances[msg.sender] */\n      0x00\n        /* \"tests/bank.sol\":807:817  msg.sender */\n      caller\n        /* \"tests/bank.sol\":798:818  balances[msg.sender] */\n      0xffffffffffffffffffffffffffffffffffffffff\n      and\n      0xffffffffffffffffffffffffffffffffffffffff\n      and\n      dup2\n      mstore\n      0x20\n      add\n      swap1\n      dup2\n      mstore\n      0x20\n      add\n      0x00\n      keccak256\n      sload\n        /* \"tests/bank.sol\":791:818  return balances[msg.sender] */\n      swap1\n      pop\n        /* \"tests/bank.sol\":726:826  function getBalances() public view returns (uint256 ) {... */\n      swap1\n      jump\t// out\n        /* \"tests/bank.sol\":95:140  mapping (address => uint256 ) public balances */\n    tag_24:\n      mstore(0x20, 0x00)\n      dup1\n      0x00\n      mstore\n      keccak256(0x00, 0x40)\n      0x00\n      swap2\n      pop\n      swap1\n      pop\n      sload\n      dup2\n      jump\t// out\n        /* \"tests/bank.sol\":834:1041  function withdraw(uint256 money) public {... */\n    tag_30:\n        /* \"tests/bank.sol\":902:910  balances */\n      0x00\n        /* \"tests/bank.sol\":902:922  balances[msg.sender] */\n      0x00\n        /* \"tests/bank.sol\":911:921  msg.sender */\n      caller\n        /* \"tests/bank.sol\":902:922  balances[msg.sender] */\n      0xffffffffffffffffffffffffffffffffffffffff\n      and\n      0xffffffffffffffffffffffffffffffffffffffff\n      and\n      dup2\n      mstore\n      0x20\n      add\n      swap1\n      dup2\n      mstore\n      0x20\n      add\n      0x00\n      keccak256\n      sload\n        /* \"tests/bank.sol\":893:898  money */\n      dup2\n        /* \"tests/bank.sol\":893:922  money <= balances[msg.sender] */\n      gt\n      iszero\n        /* \"tests/bank.sol\":885:946  require(money <= balances[msg.sender],\"Insufficient balance\") */\n      tag_72\n      jumpi\n      mload(0x40)\n      0x08c379a000000000000000000000000000000000000000000000000000000000\n      dup2\n      mstore\n      0x04\n      add\n      tag_73\n      swap1\n      tag_74\n      jump\t// in\n    tag_73:\n      mload(0x40)\n      dup1\n      swap2\n      sub\n      swap1\n      revert\n    tag_72:\n        /* \"tests/bank.sol\":981:986  money */\n      dup1\n        /* \"tests/bank.sol\":957:965  balances */\n      0x00\n        /* \"tests/bank.sol\":957:977  balances[msg.sender] */\n      0x00\n        /* \"tests/bank.sol\":966:976  msg.sender */\n      caller\n        /* \"tests/bank.sol\":957:977  balances[msg.sender] */\n      0xffffffffffffffffffffffffffffffffffffffff\n      and\n      0xffffffffffffffffffffffffffffffffffffffff\n      and\n      dup2\n      mstore\n      0x20\n      add\n      swap1\n      dup2\n      mstore\n      0x20\n      add\n      0x00\n      keccak256\n      0x00\n        /* \"tests/bank.sol\":957:986  balances[msg.sender] -= money */\n      dup3\n      dup3\n      sload\n      tag_75\n      swap2\n      swap1\n      tag_76\n      jump\t// in\n    tag_75:\n      swap3\n      pop\n      pop\n      dup2\n      swap1\n      sstore\n      pop\n        /* \"tests/bank.sol\":1006:1016  msg.sender */\n      caller\n        /* \"tests/bank.sol\":997:1026  payable (msg.sender).transfer */\n      0xffffffffffffffffffffffffffffffffffffffff\n      and\n        /* \"tests/bank.sol\":997:1033  payable (msg.sender).transfer(money) */\n      0x08fc\n        /* \"tests/bank.sol\":1027:1032  money */\n      dup3\n        /* \"tests/bank.sol\":997:1033  payable (msg.sender).transfer(money) */\n      swap1\n      dup2\n      iszero\n      mul\n      swap1\n      mload(0x40)\n      0x00\n      mload(0x40)\n      dup1\n      dup4\n      sub\n      dup2\n      dup6\n      dup9\n      dup9\n      call\n      swap4\n      pop\n      pop\n      pop\n      pop\n      iszero\n      dup1\n      iszero\n      tag_78\n      jumpi\n      returndatacopy(0x00, 0x00, returndatasize)\n      revert(0x00, returndatasize)\n    tag_78:\n      pop\n        /* \"tests/bank.sol\":834:1041  function withdraw(uint256 money) public {... */\n      pop\n      jump\t// out\n        /* \"tests/bank.sol\":1669:1781  function getTopDepositors() ... */\n    tag_33:\n        /* \"tests/bank.sol\":1728:1749  TopDepositor[] memory */\n      0x60\n        /* \"tests/bank.sol\":1769:1773  tops */\n      0x01\n        /* \"tests/bank.sol\":1762:1773  return tops */\n      dup1\n      sload\n      dup1\n      0x20\n      mul\n      0x20\n      add\n      mload(0x40)\n      swap1\n      dup2\n      add\n      0x40\n      mstore\n      dup1\n      swap3\n      swap2\n      swap1\n      dup2\n      dup2\n      mstore\n      0x20\n      add\n      0x00\n      swap1\n    tag_80:\n      dup3\n      dup3\n      lt\n      iszero\n      tag_81\n      jumpi\n      dup4\n      dup3\n      swap1\n      0x00\n      mstore\n      keccak256(0x00, 0x20)\n      swap1\n      0x02\n      mul\n      add\n      mload(0x40)\n      dup1\n      0x40\n      add\n      0x40\n      mstore\n      swap1\n      dup2\n      0x00\n      dup3\n      add\n      0x00\n      swap1\n      sload\n      swap1\n      0x0100\n      exp\n      swap1\n      div\n      0xffffffffffffffffffffffffffffffffffffffff\n      and\n      0xffffffffffffffffffffffffffffffffffffffff\n      and\n      0xffffffffffffffffffffffffffffffffffffffff\n      and\n      dup2\n      mstore\n      0x20\n      add\n      0x01\n      dup3\n      add\n      sload\n      dup2\n      mstore\n      pop\n      pop\n      dup2\n      mstore\n      0x20\n      add\n      swap1\n      0x01\n      add\n      swap1\n      jump(tag_80)\n    tag_81:\n      pop\n      pop\n      pop\n      pop\n      swap1\n      pop\n        /* \"tests/bank.sol\":1669:1781  function getTopDepositors() ... */\n      swap1\n      jump\t// out\n        /* \"tests/bank.sol\":272:298  TopDepositor[] public tops */\n    tag_39:\n      0x01\n      dup2\n      dup2\n      sload\n      dup2\n      lt\n      tag_83\n      jumpi\n      0x00\n      dup1\n      revert\n    tag_83:\n      swap1\n      0x00\n      mstore\n      keccak256(0x00, 0x20)\n      swap1\n      0x02\n      mul\n      add\n      0x00\n      swap2\n      pop\n      swap1\n      pop\n      dup1\n      0x00\n      add\n      0x00\n      swap1\n      sload\n      swap1\n      0x0100\n      exp\n      swap1\n      div\n      0xffffffffffffffffffffffffffffffffffffffff\n      and\n      swap1\n      dup1\n      0x01\n      add\n      sload\n      swap1\n      pop\n      dup3\n      jump\t// out\n        /* \"tests/bank.sol\":480:718  function deposit(uint256 amount) public  payable {... */\n    tag_44:\n        /* \"tests/bank.sol\":561:567  amount */\n      dup1\n        /* \"tests/bank.sol\":548:557  msg.value */\n      callvalue\n        /* \"tests/bank.sol\":548:567  msg.value == amount */\n      eq\n        /* \"tests/bank.sol\":540:603  require(msg.value == amount, \"Amount mismatch with value sent\") */\n      tag_86\n      jumpi\n      mload(0x40)\n      0x08c379a000000000000000000000000000000000000000000000000000000000\n      dup2\n      mstore\n      0x04\n      add\n      tag_87\n      swap1\n      tag_88\n      jump\t// in\n    tag_87:\n      mload(0x40)\n      dup1\n      swap2\n      sub\n      swap1\n      revert\n    tag_86:\n        /* \"tests/bank.sol\":638:647  msg.value */\n      callvalue\n        /* \"tests/bank.sol\":614:622  balances */\n      0x00\n        /* \"tests/bank.sol\":614:634  balances[msg.sender] */\n      0x00\n        /* \"tests/bank.sol\":623:633  msg.sender */\n      caller\n        /* \"tests/bank.sol\":614:634  balances[msg.sender] */\n      0xffffffffffffffffffffffffffffffffffffffff\n      and\n      0xffffffffffffffffffffffffffffffffffffffff\n      and\n      dup2\n      mstore\n      0x20\n      add\n      swap1\n      dup2\n      mstore\n      0x20\n      add\n      0x00\n      keccak256\n      0x00\n        /* \"tests/bank.sol\":614:647  balances[msg.sender] += msg.value */\n      dup3\n      dup3\n      sload\n      tag_89\n      swap2\n      swap1\n      tag_12\n      jump\t// in\n    tag_89:\n      swap3\n      pop\n      pop\n      dup2\n      swap1\n      sstore\n      pop\n        /* \"tests/bank.sol\":685:708  _updateTops(msg.sender) */\n      tag_90\n        /* \"tests/bank.sol\":697:707  msg.sender */\n      caller\n        /* \"tests/bank.sol\":685:696  _updateTops */\n      tag_14\n        /* \"tests/bank.sol\":685:708  _updateTops(msg.sender) */\n      jump\t// in\n    tag_90:\n        /* \"tests/bank.sol\":480:718  function deposit(uint256 amount) public  payable {... */\n      pop\n      jump\t// out\n        /* \"tests/bank.sol\":1791:2161  function _sortTopDepositors() internal {... */\n    tag_58:\n        /* \"tests/bank.sol\":1846:1852  uint i */\n      0x00\n        /* \"tests/bank.sol\":1855:1856  0 */\n      0x00\n        /* \"tests/bank.sol\":1846:1856  uint i = 0 */\n      swap1\n      pop\n        /* \"tests/bank.sol\":1841:2154  for (uint i = 0; i < 2; i++) {... */\n    tag_92:\n        /* \"tests/bank.sol\":1862:1863  2 */\n      0x02\n        /* \"tests/bank.sol\":1858:1859  i */\n      dup2\n        /* \"tests/bank.sol\":1858:1863  i < 2 */\n      lt\n        /* \"tests/bank.sol\":1841:2154  for (uint i = 0; i < 2; i++) {... */\n      iszero\n      tag_93\n      jumpi\n        /* \"tests/bank.sol\":1890:1896  uint j */\n      0x00\n        /* \"tests/bank.sol\":1903:1904  1 */\n      0x01\n        /* \"tests/bank.sol\":1899:1900  i */\n      dup3\n        /* \"tests/bank.sol\":1899:1904  i + 1 */\n      tag_98\n      swap2\n      swap1\n      tag_12\n      jump\t// in\n    tag_98:\n        /* \"tests/bank.sol\":1890:1904  uint j = i + 1 */\n      swap1\n      pop\n        /* \"tests/bank.sol\":1885:2143  for (uint j = i + 1; j < 3; j++) {... */\n    tag_95:\n        /* \"tests/bank.sol\":1910:1911  3 */\n      0x03\n        /* \"tests/bank.sol\":1906:1907  j */\n      dup2\n        /* \"tests/bank.sol\":1906:1911  j < 3 */\n      lt\n        /* \"tests/bank.sol\":1885:2143  for (uint j = i + 1; j < 3; j++) {... */\n      iszero\n      tag_96\n      jumpi\n        /* \"tests/bank.sol\":1958:1962  tops */\n      0x01\n        /* \"tests/bank.sol\":1963:1964  i */\n      dup3\n        /* \"tests/bank.sol\":1958:1965  tops[i] */\n      dup2\n      sload\n      dup2\n      lt\n      tag_99\n      jumpi\n      tag_100\n      tag_51\n      jump\t// in\n    tag_100:\n    tag_99:\n      swap1\n      0x00\n      mstore\n      keccak256(0x00, 0x20)\n      swap1\n      0x02\n      mul\n      add\n        /* \"tests/bank.sol\":1958:1972  tops[i].amount */\n      0x01\n      add\n      sload\n        /* \"tests/bank.sol\":1941:1945  tops */\n      0x01\n        /* \"tests/bank.sol\":1946:1947  j */\n      dup3\n        /* \"tests/bank.sol\":1941:1948  tops[j] */\n      dup2\n      sload\n      dup2\n      lt\n      tag_102\n      jumpi\n      tag_103\n      tag_51\n      jump\t// in\n    tag_103:\n    tag_102:\n      swap1\n      0x00\n      mstore\n      keccak256(0x00, 0x20)\n      swap1\n      0x02\n      mul\n      add\n        /* \"tests/bank.sol\":1941:1955  tops[j].amount */\n      0x01\n      add\n      sload\n        /* \"tests/bank.sol\":1941:1972  tops[j].amount > tops[i].amount */\n      gt\n        /* \"tests/bank.sol\":1937:2128  if (tops[j].amount > tops[i].amount) {... */\n      iszero\n      tag_105\n      jumpi\n        /* \"tests/bank.sol\":1997:2021  TopDepositor memory temp */\n      0x00\n        /* \"tests/bank.sol\":2024:2028  tops */\n      0x01\n        /* \"tests/bank.sol\":2029:2030  i */\n      dup4\n        /* \"tests/bank.sol\":2024:2031  tops[i] */\n      dup2\n      sload\n      dup2\n      lt\n      tag_106\n      jumpi\n      tag_107\n      tag_51\n      jump\t// in\n    tag_107:\n    tag_106:\n      swap1\n      0x00\n      mstore\n      keccak256(0x00, 0x20)\n      swap1\n      0x02\n      mul\n      add\n        /* \"tests/bank.sol\":1997:2031  TopDepositor memory temp = tops[i] */\n      mload(0x40)\n      dup1\n      0x40\n      add\n      0x40\n      mstore\n      swap1\n      dup2\n      0x00\n      dup3\n      add\n      0x00\n      swap1\n      sload\n      swap1\n      0x0100\n      exp\n      swap1\n      div\n      0xffffffffffffffffffffffffffffffffffffffff\n      and\n      0xffffffffffffffffffffffffffffffffffffffff\n      and\n      0xffffffffffffffffffffffffffffffffffffffff\n      and\n      dup2\n      mstore\n      0x20\n      add\n      0x01\n      dup3\n      add\n      sload\n      dup2\n      mstore\n      pop\n      pop\n      swap1\n      pop\n        /* \"tests/bank.sol\":2064:2068  tops */\n      0x01\n        /* \"tests/bank.sol\":2069:2070  j */\n      dup3\n        /* \"tests/bank.sol\":2064:2071  tops[j] */\n      dup2\n      sload\n      dup2\n      lt\n      tag_109\n      jumpi\n      tag_110\n      tag_51\n      jump\t// in\n    tag_110:\n    tag_109:\n      swap1\n      0x00\n      mstore\n      keccak256(0x00, 0x20)\n      swap1\n      0x02\n      mul\n      add\n        /* \"tests/bank.sol\":2054:2058  tops */\n      0x01\n        /* \"tests/bank.sol\":2059:2060  i */\n      dup5\n        /* \"tests/bank.sol\":2054:2061  tops[i] */\n      dup2\n      sload\n      dup2\n      lt\n      tag_112\n      jumpi\n      tag_113\n      tag_51\n      jump\t// in\n    tag_113:\n    tag_112:\n      swap1\n      0x00\n      mstore\n      keccak256(0x00, 0x20)\n      swap1\n      0x02\n      mul\n      add\n        /* \"tests/bank.sol\":2054:2071  tops[i] = tops[j] */\n      0x00\n      dup3\n      add\n      0x00\n      swap1\n      sload\n      swap1\n      0x0100\n      exp\n      swap1\n      div\n      0xffffffffffffffffffffffffffffffffffffffff\n      and\n      dup2\n      0x00\n      add\n      exp(0x0100, 0x00)\n      dup2\n      sload\n      dup2\n      0xffffffffffffffffffffffffffffffffffffffff\n      mul\n      not\n      and\n      swap1\n      dup4\n      0xffffffffffffffffffffffffffffffffffffffff\n      and\n      mul\n      or\n      swap1\n      sstore\n      pop\n      0x01\n      dup3\n      add\n      sload\n      dup2\n      0x01\n      add\n      sstore\n      swap1\n      pop\n      pop\n        /* \"tests/bank.sol\":2104:2108  temp */\n      dup1\n        /* \"tests/bank.sol\":2094:2098  tops */\n      0x01\n        /* \"tests/bank.sol\":2099:2100  j */\n      dup4\n        /* \"tests/bank.sol\":2094:2101  tops[j] */\n      dup2\n      sload\n      dup2\n      lt\n      tag_115\n      jumpi\n      tag_116\n      tag_51\n      jump\t// in\n    tag_116:\n    tag_115:\n      swap1\n      0x00\n      mstore\n      keccak256(0x00, 0x20)\n      swap1\n      0x02\n      mul\n      add\n        /* \"tests/bank.sol\":2094:2108  tops[j] = temp */\n      0x00\n      dup3\n      add\n      mload\n      dup2\n      0x00\n      add\n      exp(0x0100, 0x00)\n      dup2\n      sload\n      dup2\n      0xffffffffffffffffffffffffffffffffffffffff\n      mul\n      not\n      and\n      swap1\n      dup4\n      0xffffffffffffffffffffffffffffffffffffffff\n      and\n      mul\n      or\n      swap1\n      sstore\n      pop\n      0x20\n      dup3\n      add\n      mload\n      dup2\n      0x01\n      add\n      sstore\n      swap1\n      pop\n      pop\n        /* \"tests/bank.sol\":1974:2128  {... */\n      pop\n        /* \"tests/bank.sol\":1937:2128  if (tops[j].amount > tops[i].amount) {... */\n    tag_105:\n        /* \"tests/bank.sol\":1913:1916  j++ */\n      dup1\n      dup1\n      0x01\n      add\n      swap2\n      pop\n      pop\n        /* \"tests/bank.sol\":1885:2143  for (uint j = i + 1; j < 3; j++) {... */\n      jump(tag_95)\n    tag_96:\n      pop\n        /* \"tests/bank.sol\":1865:1868  i++ */\n      dup1\n      dup1\n      0x01\n      add\n      swap2\n      pop\n      pop\n        /* \"tests/bank.sol\":1841:2154  for (uint i = 0; i < 2; i++) {... */\n      jump(tag_92)\n    tag_93:\n      pop\n        /* \"tests/bank.sol\":1791:2161  function _sortTopDepositors() internal {... */\n      jump\t// out\n        /* \"#utility.yul\":7:84   */\n    tag_118:\n        /* \"#utility.yul\":44:51   */\n      0x00\n        /* \"#utility.yul\":73:78   */\n      dup2\n        /* \"#utility.yul\":62:78   */\n      swap1\n      pop\n        /* \"#utility.yul\":7:84   */\n      swap2\n      swap1\n      pop\n      jump\t// out\n        /* \"#utility.yul\":90:270   */\n    tag_119:\n        /* \"#utility.yul\":138:215   */\n      0x4e487b7100000000000000000000000000000000000000000000000000000000\n        /* \"#utility.yul\":135:136   */\n      0x00\n        /* \"#utility.yul\":128:216   */\n      mstore\n        /* \"#utility.yul\":235:239   */\n      0x11\n        /* \"#utility.yul\":232:233   */\n      0x04\n        /* \"#utility.yul\":225:240   */\n      mstore\n        /* \"#utility.yul\":259:263   */\n      0x24\n        /* \"#utility.yul\":256:257   */\n      0x00\n        /* \"#utility.yul\":249:264   */\n      revert\n        /* \"#utility.yul\":276:467   */\n    tag_12:\n        /* \"#utility.yul\":316:319   */\n      0x00\n        /* \"#utility.yul\":335:355   */\n      tag_149\n        /* \"#utility.yul\":353:354   */\n      dup3\n        /* \"#utility.yul\":335:355   */\n      tag_118\n      jump\t// in\n    tag_149:\n        /* \"#utility.yul\":330:355   */\n      swap2\n      pop\n        /* \"#utility.yul\":369:389   */\n      tag_150\n        /* \"#utility.yul\":387:388   */\n      dup4\n        /* \"#utility.yul\":369:389   */\n      tag_118\n      jump\t// in\n    tag_150:\n        /* \"#utility.yul\":364:389   */\n      swap3\n      pop\n        /* \"#utility.yul\":412:413   */\n      dup3\n        /* \"#utility.yul\":409:410   */\n      dup3\n        /* \"#utility.yul\":405:414   */\n      add\n        /* \"#utility.yul\":398:414   */\n      swap1\n      pop\n        /* \"#utility.yul\":433:436   */\n      dup1\n        /* \"#utility.yul\":430:431   */\n      dup3\n        /* \"#utility.yul\":427:437   */\n      gt\n        /* \"#utility.yul\":424:460   */\n      iszero\n      tag_151\n      jumpi\n        /* \"#utility.yul\":440:458   */\n      tag_152\n      tag_119\n      jump\t// in\n    tag_152:\n        /* \"#utility.yul\":424:460   */\n    tag_151:\n        /* \"#utility.yul\":276:467   */\n      swap3\n      swap2\n      pop\n      pop\n      jump\t// out\n        /* \"#utility.yul\":473:591   */\n    tag_120:\n        /* \"#utility.yul\":560:584   */\n      tag_154\n        /* \"#utility.yul\":578:583   */\n      dup2\n        /* \"#utility.yul\":560:584   */\n      tag_118\n      jump\t// in\n    tag_154:\n        /* \"#utility.yul\":555:558   */\n      dup3\n        /* \"#utility.yul\":548:585   */\n      mstore\n        /* \"#utility.yul\":473:591   */\n      pop\n      pop\n      jump\t// out\n        /* \"#utility.yul\":597:819   */\n    tag_19:\n        /* \"#utility.yul\":690:694   */\n      0x00\n        /* \"#utility.yul\":728:730   */\n      0x20\n        /* \"#utility.yul\":717:726   */\n      dup3\n        /* \"#utility.yul\":713:731   */\n      add\n        /* \"#utility.yul\":705:731   */\n      swap1\n      pop\n        /* \"#utility.yul\":741:812   */\n      tag_156\n        /* \"#utility.yul\":809:810   */\n      0x00\n        /* \"#utility.yul\":798:807   */\n      dup4\n        /* \"#utility.yul\":794:811   */\n      add\n        /* \"#utility.yul\":785:791   */\n      dup5\n        /* \"#utility.yul\":741:812   */\n      tag_120\n      jump\t// in\n    tag_156:\n        /* \"#utility.yul\":597:819   */\n      swap3\n      swap2\n      pop\n      pop\n      jump\t// out\n        /* \"#utility.yul\":906:1023   */\n    tag_122:\n        /* \"#utility.yul\":1015:1016   */\n      0x00\n        /* \"#utility.yul\":1012:1013   */\n      0x00\n        /* \"#utility.yul\":1005:1017   */\n      revert\n        /* \"#utility.yul\":1152:1278   */\n    tag_124:\n        /* \"#utility.yul\":1189:1196   */\n      0x00\n        /* \"#utility.yul\":1229:1271   */\n      0xffffffffffffffffffffffffffffffffffffffff\n        /* \"#utility.yul\":1222:1227   */\n      dup3\n        /* \"#utility.yul\":1218:1272   */\n      and\n        /* \"#utility.yul\":1207:1272   */\n      swap1\n      pop\n        /* \"#utility.yul\":1152:1278   */\n      swap2\n      swap1\n      pop\n      jump\t// out\n        /* \"#utility.yul\":1284:1380   */\n    tag_125:\n        /* \"#utility.yul\":1321:1328   */\n      0x00\n        /* \"#utility.yul\":1350:1374   */\n      tag_162\n        /* \"#utility.yul\":1368:1373   */\n      dup3\n        /* \"#utility.yul\":1350:1374   */\n      tag_124\n      jump\t// in\n    tag_162:\n        /* \"#utility.yul\":1339:1374   */\n      swap1\n      pop\n        /* \"#utility.yul\":1284:1380   */\n      swap2\n      swap1\n      pop\n      jump\t// out\n        /* \"#utility.yul\":1386:1508   */\n    tag_126:\n        /* \"#utility.yul\":1459:1483   */\n      tag_164\n        /* \"#utility.yul\":1477:1482   */\n      dup2\n        /* \"#utility.yul\":1459:1483   */\n      tag_125\n      jump\t// in\n    tag_164:\n        /* \"#utility.yul\":1452:1457   */\n      dup2\n        /* \"#utility.yul\":1449:1484   */\n      eq\n        /* \"#utility.yul\":1439:1502   */\n      tag_165\n      jumpi\n        /* \"#utility.yul\":1498:1499   */\n      0x00\n        /* \"#utility.yul\":1495:1496   */\n      0x00\n        /* \"#utility.yul\":1488:1500   */\n      revert\n        /* \"#utility.yul\":1439:1502   */\n    tag_165:\n        /* \"#utility.yul\":1386:1508   */\n      pop\n      jump\t// out\n        /* \"#utility.yul\":1514:1653   */\n    tag_127:\n        /* \"#utility.yul\":1560:1565   */\n      0x00\n        /* \"#utility.yul\":1598:1604   */\n      dup2\n        /* \"#utility.yul\":1585:1605   */\n      calldataload\n        /* \"#utility.yul\":1576:1605   */\n      swap1\n      pop\n        /* \"#utility.yul\":1614:1647   */\n      tag_167\n        /* \"#utility.yul\":1641:1646   */\n      dup2\n        /* \"#utility.yul\":1614:1647   */\n      tag_126\n      jump\t// in\n    tag_167:\n        /* \"#utility.yul\":1514:1653   */\n      swap3\n      swap2\n      pop\n      pop\n      jump\t// out\n        /* \"#utility.yul\":1659:1988   */\n    tag_23:\n        /* \"#utility.yul\":1718:1724   */\n      0x00\n        /* \"#utility.yul\":1767:1769   */\n      0x20\n        /* \"#utility.yul\":1755:1764   */\n      dup3\n        /* \"#utility.yul\":1746:1753   */\n      dup5\n        /* \"#utility.yul\":1742:1765   */\n      sub\n        /* \"#utility.yul\":1738:1770   */\n      slt\n        /* \"#utility.yul\":1735:1854   */\n      iszero\n      tag_169\n      jumpi\n        /* \"#utility.yul\":1773:1852   */\n      tag_170\n      tag_122\n      jump\t// in\n    tag_170:\n        /* \"#utility.yul\":1735:1854   */\n    tag_169:\n        /* \"#utility.yul\":1893:1894   */\n      0x00\n        /* \"#utility.yul\":1918:1971   */\n      tag_171\n        /* \"#utility.yul\":1963:1970   */\n      dup5\n        /* \"#utility.yul\":1954:1960   */\n      dup3\n        /* \"#utility.yul\":1943:1952   */\n      dup6\n        /* \"#utility.yul\":1939:1961   */\n      add\n        /* \"#utility.yul\":1918:1971   */\n      tag_127\n      jump\t// in\n    tag_171:\n        /* \"#utility.yul\":1908:1971   */\n      swap2\n      pop\n        /* \"#utility.yul\":1864:1981   */\n      pop\n        /* \"#utility.yul\":1659:1988   */\n      swap3\n      swap2\n      pop\n      pop\n      jump\t// out\n        /* \"#utility.yul\":1994:2116   */\n    tag_128:\n        /* \"#utility.yul\":2067:2091   */\n      tag_173\n        /* \"#utility.yul\":2085:2090   */\n      dup2\n        /* \"#utility.yul\":2067:2091   */\n      tag_118\n      jump\t// in\n    tag_173:\n        /* \"#utility.yul\":2060:2065   */\n      dup2\n        /* \"#utility.yul\":2057:2092   */\n      eq\n        /* \"#utility.yul\":2047:2110   */\n      tag_174\n      jumpi\n        /* \"#utility.yul\":2106:2107   */\n      0x00\n        /* \"#utility.yul\":2103:2104   */\n      0x00\n        /* \"#utility.yul\":2096:2108   */\n      revert\n        /* \"#utility.yul\":2047:2110   */\n    tag_174:\n        /* \"#utility.yul\":1994:2116   */\n      pop\n      jump\t// out\n        /* \"#utility.yul\":2122:2261   */\n    tag_129:\n        /* \"#utility.yul\":2168:2173   */\n      0x00\n        /* \"#utility.yul\":2206:2212   */\n      dup2\n        /* \"#utility.yul\":2193:2213   */\n      calldataload\n        /* \"#utility.yul\":2184:2213   */\n      swap1\n      pop\n        /* \"#utility.yul\":2222:2255   */\n      tag_176\n        /* \"#utility.yul\":2249:2254   */\n      dup2\n        /* \"#utility.yul\":2222:2255   */\n      tag_128\n      jump\t// in\n    tag_176:\n        /* \"#utility.yul\":2122:2261   */\n      swap3\n      swap2\n      pop\n      pop\n      jump\t// out\n        /* \"#utility.yul\":2267:2596   */\n    tag_29:\n        /* \"#utility.yul\":2326:2332   */\n      0x00\n        /* \"#utility.yul\":2375:2377   */\n      0x20\n        /* \"#utility.yul\":2363:2372   */\n      dup3\n        /* \"#utility.yul\":2354:2361   */\n      dup5\n        /* \"#utility.yul\":2350:2373   */\n      sub\n        /* \"#utility.yul\":2346:2378   */\n      slt\n        /* \"#utility.yul\":2343:2462   */\n      iszero\n      tag_178\n      jumpi\n        /* \"#utility.yul\":2381:2460   */\n      tag_179\n      tag_122\n      jump\t// in\n    tag_179:\n        /* \"#utility.yul\":2343:2462   */\n    tag_178:\n        /* \"#utility.yul\":2501:2502   */\n      0x00\n        /* \"#utility.yul\":2526:2579   */\n      tag_180\n        /* \"#utility.yul\":2571:2578   */\n      dup5\n        /* \"#utility.yul\":2562:2568   */\n      dup3\n        /* \"#utility.yul\":2551:2560   */\n      dup6\n        /* \"#utility.yul\":2547:2569   */\n      add\n        /* \"#utility.yul\":2526:2579   */\n      tag_129\n      jump\t// in\n    tag_180:\n        /* \"#utility.yul\":2516:2579   */\n      swap2\n      pop\n        /* \"#utility.yul\":2472:2589   */\n      pop\n        /* \"#utility.yul\":2267:2596   */\n      swap3\n      swap2\n      pop\n      pop\n      jump\t// out\n        /* \"#utility.yul\":2602:2744   */\n    tag_130:\n        /* \"#utility.yul\":2697:2703   */\n      0x00\n        /* \"#utility.yul\":2731:2736   */\n      dup2\n        /* \"#utility.yul\":2725:2737   */\n      mload\n        /* \"#utility.yul\":2715:2737   */\n      swap1\n      pop\n        /* \"#utility.yul\":2602:2744   */\n      swap2\n      swap1\n      pop\n      jump\t// out\n        /* \"#utility.yul\":2750:2962   */\n    tag_131:\n        /* \"#utility.yul\":2877:2888   */\n      0x00\n        /* \"#utility.yul\":2911:2917   */\n      dup3\n        /* \"#utility.yul\":2906:2909   */\n      dup3\n        /* \"#utility.yul\":2899:2918   */\n      mstore\n        /* \"#utility.yul\":2951:2955   */\n      0x20\n        /* \"#utility.yul\":2946:2949   */\n      dup3\n        /* \"#utility.yul\":2942:2956   */\n      add\n        /* \"#utility.yul\":2927:2956   */\n      swap1\n      pop\n        /* \"#utility.yul\":2750:2962   */\n      swap3\n      swap2\n      pop\n      pop\n      jump\t// out\n        /* \"#utility.yul\":2968:3128   */\n    tag_132:\n        /* \"#utility.yul\":3063:3067   */\n      0x00\n        /* \"#utility.yul\":3086:3089   */\n      dup2\n        /* \"#utility.yul\":3078:3089   */\n      swap1\n      pop\n        /* \"#utility.yul\":3116:3120   */\n      0x20\n        /* \"#utility.yul\":3111:3114   */\n      dup3\n        /* \"#utility.yul\":3107:3121   */\n      add\n        /* \"#utility.yul\":3099:3121   */\n      swap1\n      pop\n        /* \"#utility.yul\":2968:3128   */\n      swap2\n      swap1\n      pop\n      jump\t// out\n        /* \"#utility.yul\":3134:3242   */\n    tag_133:\n        /* \"#utility.yul\":3211:3235   */\n      tag_185\n        /* \"#utility.yul\":3229:3234   */\n      dup2\n        /* \"#utility.yul\":3211:3235   */\n      tag_125\n      jump\t// in\n    tag_185:\n        /* \"#utility.yul\":3206:3209   */\n      dup3\n        /* \"#utility.yul\":3199:3236   */\n      mstore\n        /* \"#utility.yul\":3134:3242   */\n      pop\n      pop\n      jump\t// out\n        /* \"#utility.yul\":3248:3356   */\n    tag_134:\n        /* \"#utility.yul\":3325:3349   */\n      tag_187\n        /* \"#utility.yul\":3343:3348   */\n      dup2\n        /* \"#utility.yul\":3325:3349   */\n      tag_118\n      jump\t// in\n    tag_187:\n        /* \"#utility.yul\":3320:3323   */\n      dup3\n        /* \"#utility.yul\":3313:3350   */\n      mstore\n        /* \"#utility.yul\":3248:3356   */\n      pop\n      pop\n      jump\t// out\n        /* \"#utility.yul\":3422:3927   */\n    tag_135:\n        /* \"#utility.yul\":3565:3569   */\n      0x40\n        /* \"#utility.yul\":3560:3563   */\n      dup3\n        /* \"#utility.yul\":3556:3570   */\n      add\n        /* \"#utility.yul\":3652:3656   */\n      0x00\n        /* \"#utility.yul\":3645:3650   */\n      dup3\n        /* \"#utility.yul\":3641:3657   */\n      add\n        /* \"#utility.yul\":3635:3658   */\n      mload\n        /* \"#utility.yul\":3671:3734   */\n      tag_189\n        /* \"#utility.yul\":3728:3732   */\n      0x00\n        /* \"#utility.yul\":3723:3726   */\n      dup6\n        /* \"#utility.yul\":3719:3733   */\n      add\n        /* \"#utility.yul\":3705:3717   */\n      dup3\n        /* \"#utility.yul\":3671:3734   */\n      tag_133\n      jump\t// in\n    tag_189:\n        /* \"#utility.yul\":3580:3744   */\n      pop\n        /* \"#utility.yul\":3828:3832   */\n      0x20\n        /* \"#utility.yul\":3821:3826   */\n      dup3\n        /* \"#utility.yul\":3817:3833   */\n      add\n        /* \"#utility.yul\":3811:3834   */\n      mload\n        /* \"#utility.yul\":3847:3910   */\n      tag_190\n        /* \"#utility.yul\":3904:3908   */\n      0x20\n        /* \"#utility.yul\":3899:3902   */\n      dup6\n        /* \"#utility.yul\":3895:3909   */\n      add\n        /* \"#utility.yul\":3881:3893   */\n      dup3\n        /* \"#utility.yul\":3847:3910   */\n      tag_134\n      jump\t// in\n    tag_190:\n        /* \"#utility.yul\":3754:3920   */\n      pop\n        /* \"#utility.yul\":3534:3927   */\n      pop\n        /* \"#utility.yul\":3422:3927   */\n      pop\n      pop\n      jump\t// out\n        /* \"#utility.yul\":3933:4224   */\n    tag_136:\n        /* \"#utility.yul\":4058:4068   */\n      0x00\n        /* \"#utility.yul\":4079:4181   */\n      tag_192\n        /* \"#utility.yul\":4177:4180   */\n      dup4\n        /* \"#utility.yul\":4169:4175   */\n      dup4\n        /* \"#utility.yul\":4079:4181   */\n      tag_135\n      jump\t// in\n    tag_192:\n        /* \"#utility.yul\":4213:4217   */\n      0x40\n        /* \"#utility.yul\":4208:4211   */\n      dup4\n        /* \"#utility.yul\":4204:4218   */\n      add\n        /* \"#utility.yul\":4190:4218   */\n      swap1\n      pop\n        /* \"#utility.yul\":3933:4224   */\n      swap3\n      swap2\n      pop\n      pop\n      jump\t// out\n        /* \"#utility.yul\":4230:4371   */\n    tag_137:\n        /* \"#utility.yul\":4328:4332   */\n      0x00\n        /* \"#utility.yul\":4360:4364   */\n      0x20\n        /* \"#utility.yul\":4355:4358   */\n      dup3\n        /* \"#utility.yul\":4351:4365   */\n      add\n        /* \"#utility.yul\":4343:4365   */\n      swap1\n      pop\n        /* \"#utility.yul\":4230:4371   */\n      swap2\n      swap1\n      pop\n      jump\t// out\n        /* \"#utility.yul\":4441:5397   */\n    tag_138:\n        /* \"#utility.yul\":4616:4619   */\n      0x00\n        /* \"#utility.yul\":4645:4727   */\n      tag_195\n        /* \"#utility.yul\":4721:4726   */\n      dup3\n        /* \"#utility.yul\":4645:4727   */\n      tag_130\n      jump\t// in\n    tag_195:\n        /* \"#utility.yul\":4743:4857   */\n      tag_196\n        /* \"#utility.yul\":4850:4856   */\n      dup2\n        /* \"#utility.yul\":4845:4848   */\n      dup6\n        /* \"#utility.yul\":4743:4857   */\n      tag_131\n      jump\t// in\n    tag_196:\n        /* \"#utility.yul\":4736:4857   */\n      swap4\n      pop\n        /* \"#utility.yul\":4881:4965   */\n      tag_197\n        /* \"#utility.yul\":4959:4964   */\n      dup4\n        /* \"#utility.yul\":4881:4965   */\n      tag_132\n      jump\t// in\n    tag_197:\n        /* \"#utility.yul\":4988:4995   */\n      dup1\n        /* \"#utility.yul\":5019:5020   */\n      0x00\n        /* \"#utility.yul\":5004:5372   */\n    tag_198:\n        /* \"#utility.yul\":5029:5035   */\n      dup4\n        /* \"#utility.yul\":5026:5027   */\n      dup2\n        /* \"#utility.yul\":5023:5036   */\n      lt\n        /* \"#utility.yul\":5004:5372   */\n      iszero\n      tag_200\n      jumpi\n        /* \"#utility.yul\":5105:5111   */\n      dup2\n        /* \"#utility.yul\":5099:5112   */\n      mload\n        /* \"#utility.yul\":5132:5251   */\n      tag_201\n        /* \"#utility.yul\":5247:5250   */\n      dup9\n        /* \"#utility.yul\":5232:5245   */\n      dup3\n        /* \"#utility.yul\":5132:5251   */\n      tag_136\n      jump\t// in\n    tag_201:\n        /* \"#utility.yul\":5125:5251   */\n      swap8\n      pop\n        /* \"#utility.yul\":5274:5362   */\n      tag_202\n        /* \"#utility.yul\":5355:5361   */\n      dup4\n        /* \"#utility.yul\":5274:5362   */\n      tag_137\n      jump\t// in\n    tag_202:\n        /* \"#utility.yul\":5264:5362   */\n      swap3\n      pop\n        /* \"#utility.yul\":5064:5372   */\n      pop\n        /* \"#utility.yul\":5051:5052   */\n      0x01\n        /* \"#utility.yul\":5048:5049   */\n      dup2\n        /* \"#utility.yul\":5044:5053   */\n      add\n        /* \"#utility.yul\":5039:5053   */\n      swap1\n      pop\n        /* \"#utility.yul\":5004:5372   */\n      jump(tag_198)\n    tag_200:\n        /* \"#utility.yul\":5008:5022   */\n      pop\n        /* \"#utility.yul\":5388:5391   */\n      dup6\n        /* \"#utility.yul\":5381:5391   */\n      swap4\n      pop\n        /* \"#utility.yul\":4621:5397   */\n      pop\n      pop\n      pop\n        /* \"#utility.yul\":4441:5397   */\n      swap3\n      swap2\n      pop\n      pop\n      jump\t// out\n        /* \"#utility.yul\":5403:5888   */\n    tag_35:\n        /* \"#utility.yul\":5602:5606   */\n      0x00\n        /* \"#utility.yul\":5640:5642   */\n      0x20\n        /* \"#utility.yul\":5629:5638   */\n      dup3\n        /* \"#utility.yul\":5625:5643   */\n      add\n        /* \"#utility.yul\":5617:5643   */\n      swap1\n      pop\n        /* \"#utility.yul\":5689:5698   */\n      dup2\n        /* \"#utility.yul\":5683:5687   */\n      dup2\n        /* \"#utility.yul\":5679:5699   */\n      sub\n        /* \"#utility.yul\":5675:5676   */\n      0x00\n        /* \"#utility.yul\":5664:5673   */\n      dup4\n        /* \"#utility.yul\":5660:5677   */\n      add\n        /* \"#utility.yul\":5653:5700   */\n      mstore\n        /* \"#utility.yul\":5717:5881   */\n      tag_204\n        /* \"#utility.yul\":5876:5880   */\n      dup2\n        /* \"#utility.yul\":5867:5873   */\n      dup5\n        /* \"#utility.yul\":5717:5881   */\n      tag_138\n      jump\t// in\n    tag_204:\n        /* \"#utility.yul\":5709:5881   */\n      swap1\n      pop\n        /* \"#utility.yul\":5403:5888   */\n      swap3\n      swap2\n      pop\n      pop\n      jump\t// out\n        /* \"#utility.yul\":5894:6012   */\n    tag_139:\n        /* \"#utility.yul\":5981:6005   */\n      tag_206\n        /* \"#utility.yul\":5999:6004   */\n      dup2\n        /* \"#utility.yul\":5981:6005   */\n      tag_125\n      jump\t// in\n    tag_206:\n        /* \"#utility.yul\":5976:5979   */\n      dup3\n        /* \"#utility.yul\":5969:6006   */\n      mstore\n        /* \"#utility.yul\":5894:6012   */\n      pop\n      pop\n      jump\t// out\n        /* \"#utility.yul\":6018:6350   */\n    tag_41:\n        /* \"#utility.yul\":6139:6143   */\n      0x00\n        /* \"#utility.yul\":6177:6179   */\n      0x40\n        /* \"#utility.yul\":6166:6175   */\n      dup3\n        /* \"#utility.yul\":6162:6180   */\n      add\n        /* \"#utility.yul\":6154:6180   */\n      swap1\n      pop\n        /* \"#utility.yul\":6190:6261   */\n      tag_208\n        /* \"#utility.yul\":6258:6259   */\n      0x00\n        /* \"#utility.yul\":6247:6256   */\n      dup4\n        /* \"#utility.yul\":6243:6260   */\n      add\n        /* \"#utility.yul\":6234:6240   */\n      dup6\n        /* \"#utility.yul\":6190:6261   */\n      tag_139\n      jump\t// in\n    tag_208:\n        /* \"#utility.yul\":6271:6343   */\n      tag_209\n        /* \"#utility.yul\":6339:6341   */\n      0x20\n        /* \"#utility.yul\":6328:6337   */\n      dup4\n        /* \"#utility.yul\":6324:6342   */\n      add\n        /* \"#utility.yul\":6315:6321   */\n      dup5\n        /* \"#utility.yul\":6271:6343   */\n      tag_120\n      jump\t// in\n    tag_209:\n        /* \"#utility.yul\":6018:6350   */\n      swap4\n      swap3\n      pop\n      pop\n      pop\n      jump\t// out\n        /* \"#utility.yul\":6356:6536   */\n    tag_51:\n        /* \"#utility.yul\":6404:6481   */\n      0x4e487b7100000000000000000000000000000000000000000000000000000000\n        /* \"#utility.yul\":6401:6402   */\n      0x00\n        /* \"#utility.yul\":6394:6482   */\n      mstore\n        /* \"#utility.yul\":6501:6505   */\n      0x32\n        /* \"#utility.yul\":6498:6499   */\n      0x04\n        /* \"#utility.yul\":6491:6506   */\n      mstore\n        /* \"#utility.yul\":6525:6529   */\n      0x24\n        /* \"#utility.yul\":6522:6523   */\n      0x00\n        /* \"#utility.yul\":6515:6530   */\n      revert\n        /* \"#utility.yul\":6542:6711   */\n    tag_140:\n        /* \"#utility.yul\":6626:6637   */\n      0x00\n        /* \"#utility.yul\":6660:6666   */\n      dup3\n        /* \"#utility.yul\":6655:6658   */\n      dup3\n        /* \"#utility.yul\":6648:6667   */\n      mstore\n        /* \"#utility.yul\":6700:6704   */\n      0x20\n        /* \"#utility.yul\":6695:6698   */\n      dup3\n        /* \"#utility.yul\":6691:6705   */\n      add\n        /* \"#utility.yul\":6676:6705   */\n      swap1\n      pop\n        /* \"#utility.yul\":6542:6711   */\n      swap3\n      swap2\n      pop\n      pop\n      jump\t// out\n        /* \"#utility.yul\":6717:6887   */\n    tag_141:\n        /* \"#utility.yul\":6857:6879   */\n      0x496e73756666696369656e742062616c616e6365000000000000000000000000\n        /* \"#utility.yul\":6853:6854   */\n      0x00\n        /* \"#utility.yul\":6845:6851   */\n      dup3\n        /* \"#utility.yul\":6841:6855   */\n      add\n        /* \"#utility.yul\":6834:6880   */\n      mstore\n        /* \"#utility.yul\":6717:6887   */\n      pop\n      jump\t// out\n        /* \"#utility.yul\":6893:7259   */\n    tag_142:\n        /* \"#utility.yul\":7035:7038   */\n      0x00\n        /* \"#utility.yul\":7056:7123   */\n      tag_214\n        /* \"#utility.yul\":7120:7122   */\n      0x14\n        /* \"#utility.yul\":7115:7118   */\n      dup4\n        /* \"#utility.yul\":7056:7123   */\n      tag_140\n      jump\t// in\n    tag_214:\n        /* \"#utility.yul\":7049:7123   */\n      swap2\n      pop\n        /* \"#utility.yul\":7132:7225   */\n      tag_215\n        /* \"#utility.yul\":7221:7224   */\n      dup3\n        /* \"#utility.yul\":7132:7225   */\n      tag_141\n      jump\t// in\n    tag_215:\n        /* \"#utility.yul\":7250:7252   */\n      0x20\n        /* \"#utility.yul\":7245:7248   */\n      dup3\n        /* \"#utility.yul\":7241:7253   */\n      add\n        /* \"#utility.yul\":7234:7253   */\n      swap1\n      pop\n        /* \"#utility.yul\":6893:7259   */\n      swap2\n      swap1\n      pop\n      jump\t// out\n        /* \"#utility.yul\":7265:7684   */\n    tag_74:\n        /* \"#utility.yul\":7431:7435   */\n      0x00\n        /* \"#utility.yul\":7469:7471   */\n      0x20\n        /* \"#utility.yul\":7458:7467   */\n      dup3\n        /* \"#utility.yul\":7454:7472   */\n      add\n        /* \"#utility.yul\":7446:7472   */\n      swap1\n      pop\n        /* \"#utility.yul\":7518:7527   */\n      dup2\n        /* \"#utility.yul\":7512:7516   */\n      dup2\n        /* \"#utility.yul\":7508:7528   */\n      sub\n        /* \"#utility.yul\":7504:7505   */\n      0x00\n        /* \"#utility.yul\":7493:7502   */\n      dup4\n        /* \"#utility.yul\":7489:7506   */\n      add\n        /* \"#utility.yul\":7482:7529   */\n      mstore\n        /* \"#utility.yul\":7546:7677   */\n      tag_217\n        /* \"#utility.yul\":7672:7676   */\n      dup2\n        /* \"#utility.yul\":7546:7677   */\n      tag_142\n      jump\t// in\n    tag_217:\n        /* \"#utility.yul\":7538:7677   */\n      swap1\n      pop\n        /* \"#utility.yul\":7265:7684   */\n      swap2\n      swap1\n      pop\n      jump\t// out\n        /* \"#utility.yul\":7690:7884   */\n    tag_76:\n        /* \"#utility.yul\":7730:7734   */\n      0x00\n        /* \"#utility.yul\":7750:7770   */\n      tag_219\n        /* \"#utility.yul\":7768:7769   */\n      dup3\n        /* \"#utility.yul\":7750:7770   */\n      tag_118\n      jump\t// in\n    tag_219:\n        /* \"#utility.yul\":7745:7770   */\n      swap2\n      pop\n        /* \"#utility.yul\":7784:7804   */\n      tag_220\n        /* \"#utility.yul\":7802:7803   */\n      dup4\n        /* \"#utility.yul\":7784:7804   */\n      tag_118\n      jump\t// in\n    tag_220:\n        /* \"#utility.yul\":7779:7804   */\n      swap3\n      pop\n        /* \"#utility.yul\":7828:7829   */\n      dup3\n        /* \"#utility.yul\":7825:7826   */\n      dup3\n        /* \"#utility.yul\":7821:7830   */\n      sub\n        /* \"#utility.yul\":7813:7830   */\n      swap1\n      pop\n        /* \"#utility.yul\":7852:7853   */\n      dup2\n        /* \"#utility.yul\":7846:7850   */\n      dup2\n        /* \"#utility.yul\":7843:7854   */\n      gt\n        /* \"#utility.yul\":7840:7877   */\n      iszero\n      tag_221\n      jumpi\n        /* \"#utility.yul\":7857:7875   */\n      tag_222\n      tag_119\n      jump\t// in\n    tag_222:\n        /* \"#utility.yul\":7840:7877   */\n    tag_221:\n        /* \"#utility.yul\":7690:7884   */\n      swap3\n      swap2\n      pop\n      pop\n      jump\t// out\n        /* \"#utility.yul\":7890:8071   */\n    tag_143:\n        /* \"#utility.yul\":8030:8063   */\n      0x416d6f756e74206d69736d6174636820776974682076616c75652073656e7400\n        /* \"#utility.yul\":8026:8027   */\n      0x00\n        /* \"#utility.yul\":8018:8024   */\n      dup3\n        /* \"#utility.yul\":8014:8028   */\n      add\n        /* \"#utility.yul\":8007:8064   */\n      mstore\n        /* \"#utility.yul\":7890:8071   */\n      pop\n      jump\t// out\n        /* \"#utility.yul\":8077:8443   */\n    tag_144:\n        /* \"#utility.yul\":8219:8222   */\n      0x00\n        /* \"#utility.yul\":8240:8307   */\n      tag_225\n        /* \"#utility.yul\":8304:8306   */\n      0x1f\n        /* \"#utility.yul\":8299:8302   */\n      dup4\n        /* \"#utility.yul\":8240:8307   */\n      tag_140\n      jump\t// in\n    tag_225:\n        /* \"#utility.yul\":8233:8307   */\n      swap2\n      pop\n        /* \"#utility.yul\":8316:8409   */\n      tag_226\n        /* \"#utility.yul\":8405:8408   */\n      dup3\n        /* \"#utility.yul\":8316:8409   */\n      tag_143\n      jump\t// in\n    tag_226:\n        /* \"#utility.yul\":8434:8436   */\n      0x20\n        /* \"#utility.yul\":8429:8432   */\n      dup3\n        /* \"#utility.yul\":8425:8437   */\n      add\n        /* \"#utility.yul\":8418:8437   */\n      swap1\n      pop\n        /* \"#utility.yul\":8077:8443   */\n      swap2\n      swap1\n      pop\n      jump\t// out\n        /* \"#utility.yul\":8449:8868   */\n    tag_88:\n        /* \"#utility.yul\":8615:8619   */\n      0x00\n        /* \"#utility.yul\":8653:8655   */\n      0x20\n        /* \"#utility.yul\":8642:8651   */\n      dup3\n        /* \"#utility.yul\":8638:8656   */\n      add\n        /* \"#utility.yul\":8630:8656   */\n      swap1\n      pop\n        /* \"#utility.yul\":8702:8711   */\n      dup2\n        /* \"#utility.yul\":8696:8700   */\n      dup2\n        /* \"#utility.yul\":8692:8712   */\n      sub\n        /* \"#utility.yul\":8688:8689   */\n      0x00\n        /* \"#utility.yul\":8677:8686   */\n      dup4\n        /* \"#utility.yul\":8673:8690   */\n      add\n        /* \"#utility.yul\":8666:8713   */\n      mstore\n        /* \"#utility.yul\":8730:8861   */\n      tag_228\n        /* \"#utility.yul\":8856:8860   */\n      dup2\n        /* \"#utility.yul\":8730:8861   */\n      tag_144\n      jump\t// in\n    tag_228:\n        /* \"#utility.yul\":8722:8861   */\n      swap1\n      pop\n        /* \"#utility.yul\":8449:8868   */\n      swap2\n      swap1\n      pop\n      jump\t// out\n\n    auxdata: 0xa2646970667358221220dca9cf89ae5c4b3b53a116ba25d8464accc78b0df1544df4e84b6eed29c70e4364736f6c634300081e0033\n}\n",
				"bytecode": {
					"linkReferences": {},
					"object": "6080604052348015600e575f5ffd5b505f5f90505b600381101560cb57600160405180604001604052805f73ffffffffffffffffffffffffffffffffffffffff1681526020015f815250908060018154018082558091505060019003905f5260205f2090600202015f909190919091505f820151815f015f6101000a81548173ffffffffffffffffffffffffffffffffffffffff021916908373ffffffffffffffffffffffffffffffffffffffff16021790555060208201518160010155505080806001019150506014565b50610d55806100d95f395ff3fe608060405260043610610057575f3560e01c8062113e08146100bd57806327e235e3146100e75780632e1a7d4d1461012357806381454f711461014b578063a721166414610175578063b6b55f25146101b2576100b9565b366100b957345f5f3373ffffffffffffffffffffffffffffffffffffffff1673ffffffffffffffffffffffffffffffffffffffff1681526020019081526020015f205f8282546100a7919061095d565b925050819055506100b7336101ce565b005b5f5ffd5b3480156100c8575f5ffd5b506100d16103cc565b6040516100de919061099f565b60405180910390f35b3480156100f2575f5ffd5b5061010d60048036038101906101089190610a16565b61040f565b60405161011a919061099f565b60405180910390f35b34801561012e575f5ffd5b5061014960048036038101906101449190610a6b565b610423565b005b348015610156575f5ffd5b5061015f61053b565b60405161016c9190610b89565b60405180910390f35b348015610180575f5ffd5b5061019b60048036038101906101969190610a6b565b6105f5565b6040516101a9929190610bb8565b60405180910390f35b6101cc60048036038101906101c79190610a6b565b610643565b005b5f5f5f8373ffffffffffffffffffffffffffffffffffffffff1673ffffffffffffffffffffffffffffffffffffffff1681526020019081526020015f205490505f5f90505b60038110156102d4578273ffffffffffffffffffffffffffffffffffffffff166001828154811061024757610246610bdf565b5b905f5260205f2090600202015f015f9054906101000a900473ffffffffffffffffffffffffffffffffffffffff1673ffffffffffffffffffffffffffffffffffffffff16036102c75781600182815481106102a5576102a4610bdf565b5b905f5260205f209060020201600101819055506102c06106e3565b50506103c9565b8080600101915050610213565b505f5f90505b60038110156103c657600181815481106102f7576102f6610bdf565b5b905f5260205f209060020201600101548211156103b95760405180604001604052808473ffffffffffffffffffffffffffffffffffffffff168152602001838152506001828154811061034d5761034c610bdf565b5b905f5260205f2090600202015f820151815f015f6101000a81548173ffffffffffffffffffffffffffffffffffffffff021916908373ffffffffffffffffffffffffffffffffffffffff160217905550602082015181600101559050506103b26106e3565b50506103c9565b80806001019150506102da565b50505b50565b5f5f5f3373ffffffffffffffffffffffffffffffffffffffff1673ffffffffffffffffffffffffffffffffffffffff1681526020019081526020015f2054905090565b5f602052805f5260405f205f915090505481565b5f5f3373ffffffffffffffffffffffffffffffffffffffff1673ffffffffffffffffffffffffffffffffffffffff1681526020019081526020015f20548111156104a2576040517f08c379a000000000000000000000000000000000000000000000000000000000815260040161049990610c66565b60405180910390fd5b805f5f3373ffffffffffffffffffffffffffffffffffffffff1673ffffffffffffffffffffffffffffffffffffffff1681526020019081526020015f205f8282546104ed9190610c84565b925050819055503373ffffffffffffffffffffffffffffffffffffffff166108fc8290811502906040515f60405180830381858888f19350505050158015610537573d5f5f3e3d5ffd5b5050565b60606001805480602002602001604051908101604052809291908181526020015f905b828210156105ec578382905f5260205f2090600202016040518060400160405290815f82015f9054906101000a900473ffffffffffffffffffffffffffffffffffffffff1673ffffffffffffffffffffffffffffffffffffffff1673ffffffffffffffffffffffffffffffffffffffff1681526020016001820154815250508152602001906001019061055e565b50505050905090565b60018181548110610604575f80fd5b905f5260205f2090600202015f91509050805f015f9054906101000a900473ffffffffffffffffffffffffffffffffffffffff16908060010154905082565b803414610685576040517f08c379a000000000000000000000000000000000000000000000000000000000815260040161067c90610d01565b60405180910390fd5b345f5f3373ffffffffffffffffffffffffffffffffffffffff1673ffffffffffffffffffffffffffffffffffffffff1681526020019081526020015f205f8282546106d0919061095d565b925050819055506106e0336101ce565b50565b5f5f90505b6002811015610924575f6001826106ff919061095d565b90505b6003811015610916576001828154811061071f5761071e610bdf565b5b905f5260205f209060020201600101546001828154811061074357610742610bdf565b5b905f5260205f209060020201600101541115610909575f6001838154811061076e5761076d610bdf565b5b905f5260205f2090600202016040518060400160405290815f82015f9054906101000a900473ffffffffffffffffffffffffffffffffffffffff1673ffffffffffffffffffffffffffffffffffffffff1673ffffffffffffffffffffffffffffffffffffffff1681526020016001820154815250509050600182815481106107f9576107f8610bdf565b5b905f5260205f2090600202016001848154811061081957610818610bdf565b5b905f5260205f2090600202015f82015f9054906101000a900473ffffffffffffffffffffffffffffffffffffffff16815f015f6101000a81548173ffffffffffffffffffffffffffffffffffffffff021916908373ffffffffffffffffffffffffffffffffffffffff1602179055506001820154816001015590505080600183815481106108aa576108a9610bdf565b5b905f5260205f2090600202015f820151815f015f6101000a81548173ffffffffffffffffffffffffffffffffffffffff021916908373ffffffffffffffffffffffffffffffffffffffff16021790555060208201518160010155905050505b8080600101915050610702565b5080806001019150506106e8565b50565b5f819050919050565b7f4e487b71000000000000000000000000000000000000000000000000000000005f52601160045260245ffd5b5f61096782610927565b915061097283610927565b925082820190508082111561098a57610989610930565b5b92915050565b61099981610927565b82525050565b5f6020820190506109b25f830184610990565b92915050565b5f5ffd5b5f73ffffffffffffffffffffffffffffffffffffffff82169050919050565b5f6109e5826109bc565b9050919050565b6109f5816109db565b81146109ff575f5ffd5b50565b5f81359050610a10816109ec565b92915050565b5f60208284031215610a2b57610a2a6109b8565b5b5f610a3884828501610a02565b91505092915050565b610a4a81610927565b8114610a54575f5ffd5b50565b5f81359050610a6581610a41565b92915050565b5f60208284031215610a8057610a7f6109b8565b5b5f610a8d84828501610a57565b91505092915050565b5f81519050919050565b5f82825260208201905092915050565b5f819050602082019050919050565b610ac8816109db565b82525050565b610ad781610927565b82525050565b604082015f820151610af15f850182610abf565b506020820151610b046020850182610ace565b50505050565b5f610b158383610add565b60408301905092915050565b5f602082019050919050565b5f610b3782610a96565b610b418185610aa0565b9350610b4c83610ab0565b805f5b83811015610b7c578151610b638882610b0a565b9750610b6e83610b21565b925050600181019050610b4f565b5085935050505092915050565b5f6020820190508181035f830152610ba18184610b2d565b905092915050565b610bb2816109db565b82525050565b5f604082019050610bcb5f830185610ba9565b610bd86020830184610990565b9392505050565b7f4e487b71000000000000000000000000000000000000000000000000000000005f52603260045260245ffd5b5f82825260208201905092915050565b7f496e73756666696369656e742062616c616e63650000000000000000000000005f82015250565b5f610c50601483610c0c565b9150610c5b82610c1c565b602082019050919050565b5f6020820190508181035f830152610c7d81610c44565b9050919050565b5f610c8e82610927565b9150610c9983610927565b9250828203905081811115610cb157610cb0610930565b5b92915050565b7f416d6f756e74206d69736d6174636820776974682076616c75652073656e74005f82015250565b5f610ceb601f83610c0c565b9150610cf682610cb7565b602082019050919050565b5f6020820190508181035f830152610d1881610cdf565b905091905056fea2646970667358221220dca9cf89ae5c4b3b53a116ba25d8464accc78b0df1544df4e84b6eed29c70e4364736f6c634300081e0033",
					"opcodes": "PUSH1 0x80 PUSH1 0x40 MSTORE CALLVALUE DUP1 ISZERO PUSH1 0xE JUMPI PUSH0 PUSH0 REVERT JUMPDEST POP PUSH0 PUSH0 SWAP1 POP JUMPDEST PUSH1 0x3 DUP2 LT ISZERO PUSH1 0xCB JUMPI PUSH1 0x1 PUSH1 0x40 MLOAD DUP1 PUSH1 0x40 ADD PUSH1 0x40 MSTORE DUP1 PUSH0 PUSH20 0xFFFFFFFFFFFFFFFFFFFFFFFFFFFFFFFFFFFFFFFF AND DUP2 MSTORE PUSH1 0x20 ADD PUSH0 DUP2 MSTORE POP SWAP1 DUP1 PUSH1 0x1 DUP2 SLOAD ADD DUP1 DUP3 SSTORE DUP1 SWAP2 POP POP PUSH1 0x1 SWAP1 SUB SWAP1 PUSH0 MSTORE PUSH1 0x20 PUSH0 KECCAK256 SWAP1 PUSH1 0x2 MUL ADD PUSH0 SWAP1 SWAP2 SWAP1 SWAP2 SWAP1 SWAP2 POP PUSH0 DUP3 ADD MLOAD DUP2 PUSH0 ADD PUSH0 PUSH2 0x100 EXP DUP2 SLOAD DUP2 PUSH20 0xFFFFFFFFFFFFFFFFFFFFFFFFFFFFFFFFFFFFFFFF MUL NOT AND SWAP1 DUP4 PUSH20 0xFFFFFFFFFFFFFFFFFFFFFFFFFFFFFFFFFFFFFFFF AND MUL OR SWAP1 SSTORE POP PUSH1 0x20 DUP3 ADD MLOAD DUP2 PUSH1 0x1 ADD SSTORE POP POP DUP1 DUP1 PUSH1 0x1 ADD SWAP2 POP POP PUSH1 0x14 JUMP JUMPDEST POP PUSH2 0xD55 DUP1 PUSH2 0xD9 PUSH0 CODECOPY PUSH0 RETURN INVALID PUSH1 0x80 PUSH1 0x40 MSTORE PUSH1 0x4 CALLDATASIZE LT PUSH2 0x57 JUMPI PUSH0 CALLDATALOAD PUSH1 0xE0 SHR DUP1 PUSH3 0x113E08 EQ PUSH2 0xBD JUMPI DUP1 PUSH4 0x27E235E3 EQ PUSH2 0xE7 JUMPI DUP1 PUSH4 0x2E1A7D4D EQ PUSH2 0x123 JUMPI DUP1 PUSH4 0x81454F71 EQ PUSH2 0x14B JUMPI DUP1 PUSH4 0xA7211664 EQ PUSH2 0x175 JUMPI DUP1 PUSH4 0xB6B55F25 EQ PUSH2 0x1B2 JUMPI PUSH2 0xB9 JUMP JUMPDEST CALLDATASIZE PUSH2 0xB9 JUMPI CALLVALUE PUSH0 PUSH0 CALLER PUSH20 0xFFFFFFFFFFFFFFFFFFFFFFFFFFFFFFFFFFFFFFFF AND PUSH20 0xFFFFFFFFFFFFFFFFFFFFFFFFFFFFFFFFFFFFFFFF AND DUP2 MSTORE PUSH1 0x20 ADD SWAP1 DUP2 MSTORE PUSH1 0x20 ADD PUSH0 KECCAK256 PUSH0 DUP3 DUP3 SLOAD PUSH2 0xA7 SWAP2 SWAP1 PUSH2 0x95D JUMP JUMPDEST SWAP3 POP POP DUP2 SWAP1 SSTORE POP PUSH2 0xB7 CALLER PUSH2 0x1CE JUMP JUMPDEST STOP JUMPDEST PUSH0 PUSH0 REVERT JUMPDEST CALLVALUE DUP1 ISZERO PUSH2 0xC8 JUMPI PUSH0 PUSH0 REVERT JUMPDEST POP PUSH2 0xD1 PUSH2 0x3CC JUMP JUMPDEST PUSH1 0x40 MLOAD PUSH2 0xDE SWAP2 SWAP1 PUSH2 0x99F JUMP JUMPDEST PUSH1 0x40 MLOAD DUP1 SWAP2 SUB SWAP1 RETURN JUMPDEST CALLVALUE DUP1 ISZERO PUSH2 0xF2 JUMPI PUSH0 PUSH0 REVERT JUMPDEST POP PUSH2 0x10D PUSH1 0x4 DUP1 CALLDATASIZE SUB DUP2 ADD SWAP1 PUSH2 0x108 SWAP2 SWAP1 PUSH2 0xA16 JUMP JUMPDEST PUSH2 0x40F JUMP JUMPDEST PUSH1 0x40 MLOAD PUSH2 0x11A SWAP2 SWAP1 PUSH2 0x99F JUMP JUMPDEST PUSH1 0x40 MLOAD DUP1 SWAP2 SUB SWAP1 RETURN JUMPDEST CALLVALUE DUP1 ISZERO PUSH2 0x12E JUMPI PUSH0 PUSH0 REVERT JUMPDEST POP PUSH2 0x149 PUSH1 0x4 DUP1 CALLDATASIZE SUB DUP2 ADD SWAP1 PUSH2 0x144 SWAP2 SWAP1 PUSH2 0xA6B JUMP JUMPDEST PUSH2 0x423 JUMP JUMPDEST STOP JUMPDEST CALLVALUE DUP1 ISZERO PUSH2 0x156 JUMPI PUSH0 PUSH0 REVERT JUMPDEST POP PUSH2 0x15F PUSH2 0x53B JUMP JUMPDEST PUSH1 0x40 MLOAD PUSH2 0x16C SWAP2 SWAP1 PUSH2 0xB89 JUMP JUMPDEST PUSH1 0x40 MLOAD DUP1 SWAP2 SUB SWAP1 RETURN JUMPDEST CALLVALUE DUP1 ISZERO PUSH2 0x180 JUMPI PUSH0 PUSH0 REVERT JUMPDEST POP PUSH2 0x19B PUSH1 0x4 DUP1 CALLDATASIZE SUB DUP2 ADD SWAP1 PUSH2 0x196 SWAP2 SWAP1 PUSH2 0xA6B JUMP JUMPDEST PUSH2 0x5F5 JUMP JUMPDEST PUSH1 0x40 MLOAD PUSH2 0x1A9 SWAP3 SWAP2 SWAP1 PUSH2 0xBB8 JUMP JUMPDEST PUSH1 0x40 MLOAD DUP1 SWAP2 SUB SWAP1 RETURN JUMPDEST PUSH2 0x1CC PUSH1 0x4 DUP1 CALLDATASIZE SUB DUP2 ADD SWAP1 PUSH2 0x1C7 SWAP2 SWAP1 PUSH2 0xA6B JUMP JUMPDEST PUSH2 0x643 JUMP JUMPDEST STOP JUMPDEST PUSH0 PUSH0 PUSH0 DUP4 PUSH20 0xFFFFFFFFFFFFFFFFFFFFFFFFFFFFFFFFFFFFFFFF AND PUSH20 0xFFFFFFFFFFFFFFFFFFFFFFFFFFFFFFFFFFFFFFFF AND DUP2 MSTORE PUSH1 0x20 ADD SWAP1 DUP2 MSTORE PUSH1 0x20 ADD PUSH0 KECCAK256 SLOAD SWAP1 POP PUSH0 PUSH0 SWAP1 POP JUMPDEST PUSH1 0x3 DUP2 LT ISZERO PUSH2 0x2D4 JUMPI DUP3 PUSH20 0xFFFFFFFFFFFFFFFFFFFFFFFFFFFFFFFFFFFFFFFF AND PUSH1 0x1 DUP3 DUP2 SLOAD DUP2 LT PUSH2 0x247 JUMPI PUSH2 0x246 PUSH2 0xBDF JUMP JUMPDEST JUMPDEST SWAP1 PUSH0 MSTORE PUSH1 0x20 PUSH0 KECCAK256 SWAP1 PUSH1 0x2 MUL ADD PUSH0 ADD PUSH0 SWAP1 SLOAD SWAP1 PUSH2 0x100 EXP SWAP1 DIV PUSH20 0xFFFFFFFFFFFFFFFFFFFFFFFFFFFFFFFFFFFFFFFF AND PUSH20 0xFFFFFFFFFFFFFFFFFFFFFFFFFFFFFFFFFFFFFFFF AND SUB PUSH2 0x2C7 JUMPI DUP2 PUSH1 0x1 DUP3 DUP2 SLOAD DUP2 LT PUSH2 0x2A5 JUMPI PUSH2 0x2A4 PUSH2 0xBDF JUMP JUMPDEST JUMPDEST SWAP1 PUSH0 MSTORE PUSH1 0x20 PUSH0 KECCAK256 SWAP1 PUSH1 0x2 MUL ADD PUSH1 0x1 ADD DUP2 SWAP1 SSTORE POP PUSH2 0x2C0 PUSH2 0x6E3 JUMP JUMPDEST POP POP PUSH2 0x3C9 JUMP JUMPDEST DUP1 DUP1 PUSH1 0x1 ADD SWAP2 POP POP PUSH2 0x213 JUMP JUMPDEST POP PUSH0 PUSH0 SWAP1 POP JUMPDEST PUSH1 0x3 DUP2 LT ISZERO PUSH2 0x3C6 JUMPI PUSH1 0x1 DUP2 DUP2 SLOAD DUP2 LT PUSH2 0x2F7 JUMPI PUSH2 0x2F6 PUSH2 0xBDF JUMP JUMPDEST JUMPDEST SWAP1 PUSH0 MSTORE PUSH1 0x20 PUSH0 KECCAK256 SWAP1 PUSH1 0x2 MUL ADD PUSH1 0x1 ADD SLOAD DUP3 GT ISZERO PUSH2 0x3B9 JUMPI PUSH1 0x40 MLOAD DUP1 PUSH1 0x40 ADD PUSH1 0x40 MSTORE DUP1 DUP5 PUSH20 0xFFFFFFFFFFFFFFFFFFFFFFFFFFFFFFFFFFFFFFFF AND DUP2 MSTORE PUSH1 0x20 ADD DUP4 DUP2 MSTORE POP PUSH1 0x1 DUP3 DUP2 SLOAD DUP2 LT PUSH2 0x34D JUMPI PUSH2 0x34C PUSH2 0xBDF JUMP JUMPDEST JUMPDEST SWAP1 PUSH0 MSTORE PUSH1 0x20 PUSH0 KECCAK256 SWAP1 PUSH1 0x2 MUL ADD PUSH0 DUP3 ADD MLOAD DUP2 PUSH0 ADD PUSH0 PUSH2 0x100 EXP DUP2 SLOAD DUP2 PUSH20 0xFFFFFFFFFFFFFFFFFFFFFFFFFFFFFFFFFFFFFFFF MUL NOT AND SWAP1 DUP4 PUSH20 0xFFFFFFFFFFFFFFFFFFFFFFFFFFFFFFFFFFFFFFFF AND MUL OR SWAP1 SSTORE POP PUSH1 0x20 DUP3 ADD MLOAD DUP2 PUSH1 0x1 ADD SSTORE SWAP1 POP POP PUSH2 0x3B2 PUSH2 0x6E3 JUMP JUMPDEST POP POP PUSH2 0x3C9 JUMP JUMPDEST DUP1 DUP1 PUSH1 0x1 ADD SWAP2 POP POP PUSH2 0x2DA JUMP JUMPDEST POP POP JUMPDEST POP JUMP JUMPDEST PUSH0 PUSH0 PUSH0 CALLER PUSH20 0xFFFFFFFFFFFFFFFFFFFFFFFFFFFFFFFFFFFFFFFF AND PUSH20 0xFFFFFFFFFFFFFFFFFFFFFFFFFFFFFFFFFFFFFFFF AND DUP2 MSTORE PUSH1 0x20 ADD SWAP1 DUP2 MSTORE PUSH1 0x20 ADD PUSH0 KECCAK256 SLOAD SWAP1 POP SWAP1 JUMP JUMPDEST PUSH0 PUSH1 0x20 MSTORE DUP1 PUSH0 MSTORE PUSH1 0x40 PUSH0 KECCAK256 PUSH0 SWAP2 POP SWAP1 POP SLOAD DUP2 JUMP JUMPDEST PUSH0 PUSH0 CALLER PUSH20 0xFFFFFFFFFFFFFFFFFFFFFFFFFFFFFFFFFFFFFFFF AND PUSH20 0xFFFFFFFFFFFFFFFFFFFFFFFFFFFFFFFFFFFFFFFF AND DUP2 MSTORE PUSH1 0x20 ADD SWAP1 DUP2 MSTORE PUSH1 0x20 ADD PUSH0 KECCAK256 SLOAD DUP2 GT ISZERO PUSH2 0x4A2 JUMPI PUSH1 0x40 MLOAD PUSH32 0x8C379A000000000000000000000000000000000000000000000000000000000 DUP2 MSTORE PUSH1 0x4 ADD PUSH2 0x499 SWAP1 PUSH2 0xC66 JUMP JUMPDEST PUSH1 0x40 MLOAD DUP1 SWAP2 SUB SWAP1 REVERT JUMPDEST DUP1 PUSH0 PUSH0 CALLER PUSH20 0xFFFFFFFFFFFFFFFFFFFFFFFFFFFFFFFFFFFFFFFF AND PUSH20 0xFFFFFFFFFFFFFFFFFFFFFFFFFFFFFFFFFFFFFFFF AND DUP2 MSTORE PUSH1 0x20 ADD SWAP1 DUP2 MSTORE PUSH1 0x20 ADD PUSH0 KECCAK256 PUSH0 DUP3 DUP3 SLOAD PUSH2 0x4ED SWAP2 SWAP1 PUSH2 0xC84 JUMP JUMPDEST SWAP3 POP POP DUP2 SWAP1 SSTORE POP CALLER PUSH20 0xFFFFFFFFFFFFFFFFFFFFFFFFFFFFFFFFFFFFFFFF AND PUSH2 0x8FC DUP3 SWAP1 DUP2 ISZERO MUL SWAP1 PUSH1 0x40 MLOAD PUSH0 PUSH1 0x40 MLOAD DUP1 DUP4 SUB DUP2 DUP6 DUP9 DUP9 CALL SWAP4 POP POP POP POP ISZERO DUP1 ISZERO PUSH2 0x537 JUMPI RETURNDATASIZE PUSH0 PUSH0 RETURNDATACOPY RETURNDATASIZE PUSH0 REVERT JUMPDEST POP POP JUMP JUMPDEST PUSH1 0x60 PUSH1 0x1 DUP1 SLOAD DUP1 PUSH1 0x20 MUL PUSH1 0x20 ADD PUSH1 0x40 MLOAD SWAP1 DUP2 ADD PUSH1 0x40 MSTORE DUP1 SWAP3 SWAP2 SWAP1 DUP2 DUP2 MSTORE PUSH1 0x20 ADD PUSH0 SWAP1 JUMPDEST DUP3 DUP3 LT ISZERO PUSH2 0x5EC JUMPI DUP4 DUP3 SWAP1 PUSH0 MSTORE PUSH1 0x20 PUSH0 KECCAK256 SWAP1 PUSH1 0x2 MUL ADD PUSH1 0x40 MLOAD DUP1 PUSH1 0x40 ADD PUSH1 0x40 MSTORE SWAP1 DUP2 PUSH0 DUP3 ADD PUSH0 SWAP1 SLOAD SWAP1 PUSH2 0x100 EXP SWAP1 DIV PUSH20 0xFFFFFFFFFFFFFFFFFFFFFFFFFFFFFFFFFFFFFFFF AND PUSH20 0xFFFFFFFFFFFFFFFFFFFFFFFFFFFFFFFFFFFFFFFF AND PUSH20 0xFFFFFFFFFFFFFFFFFFFFFFFFFFFFFFFFFFFFFFFF AND DUP2 MSTORE PUSH1 0x20 ADD PUSH1 0x1 DUP3 ADD SLOAD DUP2 MSTORE POP POP DUP2 MSTORE PUSH1 0x20 ADD SWAP1 PUSH1 0x1 ADD SWAP1 PUSH2 0x55E JUMP JUMPDEST POP POP POP POP SWAP1 POP SWAP1 JUMP JUMPDEST PUSH1 0x1 DUP2 DUP2 SLOAD DUP2 LT PUSH2 0x604 JUMPI PUSH0 DUP1 REVERT JUMPDEST SWAP1 PUSH0 MSTORE PUSH1 0x20 PUSH0 KECCAK256 SWAP1 PUSH1 0x2 MUL ADD PUSH0 SWAP2 POP SWAP1 POP DUP1 PUSH0 ADD PUSH0 SWAP1 SLOAD SWAP1 PUSH2 0x100 EXP SWAP1 DIV PUSH20 0xFFFFFFFFFFFFFFFFFFFFFFFFFFFFFFFFFFFFFFFF AND SWAP1 DUP1 PUSH1 0x1 ADD SLOAD SWAP1 POP DUP3 JUMP JUMPDEST DUP1 CALLVALUE EQ PUSH2 0x685 JUMPI PUSH1 0x40 MLOAD PUSH32 0x8C379A000000000000000000000000000000000000000000000000000000000 DUP2 MSTORE PUSH1 0x4 ADD PUSH2 0x67C SWAP1 PUSH2 0xD01 JUMP JUMPDEST PUSH1 0x40 MLOAD DUP1 SWAP2 SUB SWAP1 REVERT JUMPDEST CALLVALUE PUSH0 PUSH0 CALLER PUSH20 0xFFFFFFFFFFFFFFFFFFFFFFFFFFFFFFFFFFFFFFFF AND PUSH20 0xFFFFFFFFFFFFFFFFFFFFFFFFFFFFFFFFFFFFFFFF AND DUP2 MSTORE PUSH1 0x20 ADD SWAP1 DUP2 MSTORE PUSH1 0x20 ADD PUSH0 KECCAK256 PUSH0 DUP3 DUP3 SLOAD PUSH2 0x6D0 SWAP2 SWAP1 PUSH2 0x95D JUMP JUMPDEST SWAP3 POP POP DUP2 SWAP1 SSTORE POP PUSH2 0x6E0 CALLER PUSH2 0x1CE JUMP JUMPDEST POP JUMP JUMPDEST PUSH0 PUSH0 SWAP1 POP JUMPDEST PUSH1 0x2 DUP2 LT ISZERO PUSH2 0x924 JUMPI PUSH0 PUSH1 0x1 DUP3 PUSH2 0x6FF SWAP2 SWAP1 PUSH2 0x95D JUMP JUMPDEST SWAP1 POP JUMPDEST PUSH1 0x3 DUP2 LT ISZERO PUSH2 0x916 JUMPI PUSH1 0x1 DUP3 DUP2 SLOAD DUP2 LT PUSH2 0x71F JUMPI PUSH2 0x71E PUSH2 0xBDF JUMP JUMPDEST JUMPDEST SWAP1 PUSH0 MSTORE PUSH1 0x20 PUSH0 KECCAK256 SWAP1 PUSH1 0x2 MUL ADD PUSH1 0x1 ADD SLOAD PUSH1 0x1 DUP3 DUP2 SLOAD DUP2 LT PUSH2 0x743 JUMPI PUSH2 0x742 PUSH2 0xBDF JUMP JUMPDEST JUMPDEST SWAP1 PUSH0 MSTORE PUSH1 0x20 PUSH0 KECCAK256 SWAP1 PUSH1 0x2 MUL ADD PUSH1 0x1 ADD SLOAD GT ISZERO PUSH2 0x909 JUMPI PUSH0 PUSH1 0x1 DUP4 DUP2 SLOAD DUP2 LT PUSH2 0x76E JUMPI PUSH2 0x76D PUSH2 0xBDF JUMP JUMPDEST JUMPDEST SWAP1 PUSH0 MSTORE PUSH1 0x20 PUSH0 KECCAK256 SWAP1 PUSH1 0x2 MUL ADD PUSH1 0x40 MLOAD DUP1 PUSH1 0x40 ADD PUSH1 0x40 MSTORE SWAP1 DUP2 PUSH0 DUP3 ADD PUSH0 SWAP1 SLOAD SWAP1 PUSH2 0x100 EXP SWAP1 DIV PUSH20 0xFFFFFFFFFFFFFFFFFFFFFFFFFFFFFFFFFFFFFFFF AND PUSH20 0xFFFFFFFFFFFFFFFFFFFFFFFFFFFFFFFFFFFFFFFF AND PUSH20 0xFFFFFFFFFFFFFFFFFFFFFFFFFFFFFFFFFFFFFFFF AND DUP2 MSTORE PUSH1 0x20 ADD PUSH1 0x1 DUP3 ADD SLOAD DUP2 MSTORE POP POP SWAP1 POP PUSH1 0x1 DUP3 DUP2 SLOAD DUP2 LT PUSH2 0x7F9 JUMPI PUSH2 0x7F8 PUSH2 0xBDF JUMP JUMPDEST JUMPDEST SWAP1 PUSH0 MSTORE PUSH1 0x20 PUSH0 KECCAK256 SWAP1 PUSH1 0x2 MUL ADD PUSH1 0x1 DUP5 DUP2 SLOAD DUP2 LT PUSH2 0x819 JUMPI PUSH2 0x818 PUSH2 0xBDF JUMP JUMPDEST JUMPDEST SWAP1 PUSH0 MSTORE PUSH1 0x20 PUSH0 KECCAK256 SWAP1 PUSH1 0x2 MUL ADD PUSH0 DUP3 ADD PUSH0 SWAP1 SLOAD SWAP1 PUSH2 0x100 EXP SWAP1 DIV PUSH20 0xFFFFFFFFFFFFFFFFFFFFFFFFFFFFFFFFFFFFFFFF AND DUP2 PUSH0 ADD PUSH0 PUSH2 0x100 EXP DUP2 SLOAD DUP2 PUSH20 0xFFFFFFFFFFFFFFFFFFFFFFFFFFFFFFFFFFFFFFFF MUL NOT AND SWAP1 DUP4 PUSH20 0xFFFFFFFFFFFFFFFFFFFFFFFFFFFFFFFFFFFFFFFF AND MUL OR SWAP1 SSTORE POP PUSH1 0x1 DUP3 ADD SLOAD DUP2 PUSH1 0x1 ADD SSTORE SWAP1 POP POP DUP1 PUSH1 0x1 DUP4 DUP2 SLOAD DUP2 LT PUSH2 0x8AA JUMPI PUSH2 0x8A9 PUSH2 0xBDF JUMP JUMPDEST JUMPDEST SWAP1 PUSH0 MSTORE PUSH1 0x20 PUSH0 KECCAK256 SWAP1 PUSH1 0x2 MUL ADD PUSH0 DUP3 ADD MLOAD DUP2 PUSH0 ADD PUSH0 PUSH2 0x100 EXP DUP2 SLOAD DUP2 PUSH20 0xFFFFFFFFFFFFFFFFFFFFFFFFFFFFFFFFFFFFFFFF MUL NOT AND SWAP1 DUP4 PUSH20 0xFFFFFFFFFFFFFFFFFFFFFFFFFFFFFFFFFFFFFFFF AND MUL OR SWAP1 SSTORE POP PUSH1 0x20 DUP3 ADD MLOAD DUP2 PUSH1 0x1 ADD SSTORE SWAP1 POP POP POP JUMPDEST DUP1 DUP1 PUSH1 0x1 ADD SWAP2 POP POP PUSH2 0x702 JUMP JUMPDEST POP DUP1 DUP1 PUSH1 0x1 ADD SWAP2 POP POP PUSH2 0x6E8 JUMP JUMPDEST POP JUMP JUMPDEST PUSH0 DUP2 SWAP1 POP SWAP2 SWAP1 POP JUMP JUMPDEST PUSH32 0x4E487B7100000000000000000000000000000000000000000000000000000000 PUSH0 MSTORE PUSH1 0x11 PUSH1 0x4 MSTORE PUSH1 0x24 PUSH0 REVERT JUMPDEST PUSH0 PUSH2 0x967 DUP3 PUSH2 0x927 JUMP JUMPDEST SWAP2 POP PUSH2 0x972 DUP4 PUSH2 0x927 JUMP JUMPDEST SWAP3 POP DUP3 DUP3 ADD SWAP1 POP DUP1 DUP3 GT ISZERO PUSH2 0x98A JUMPI PUSH2 0x989 PUSH2 0x930 JUMP JUMPDEST JUMPDEST SWAP3 SWAP2 POP POP JUMP JUMPDEST PUSH2 0x999 DUP2 PUSH2 0x927 JUMP JUMPDEST DUP3 MSTORE POP POP JUMP JUMPDEST PUSH0 PUSH1 0x20 DUP3 ADD SWAP1 POP PUSH2 0x9B2 PUSH0 DUP4 ADD DUP5 PUSH2 0x990 JUMP JUMPDEST SWAP3 SWAP2 POP POP JUMP JUMPDEST PUSH0 PUSH0 REVERT JUMPDEST PUSH0 PUSH20 0xFFFFFFFFFFFFFFFFFFFFFFFFFFFFFFFFFFFFFFFF DUP3 AND SWAP1 POP SWAP2 SWAP1 POP JUMP JUMPDEST PUSH0 PUSH2 0x9E5 DUP3 PUSH2 0x9BC JUMP JUMPDEST SWAP1 POP SWAP2 SWAP1 POP JUMP JUMPDEST PUSH2 0x9F5 DUP2 PUSH2 0x9DB JUMP JUMPDEST DUP2 EQ PUSH2 0x9FF JUMPI PUSH0 PUSH0 REVERT JUMPDEST POP JUMP JUMPDEST PUSH0 DUP2 CALLDATALOAD SWAP1 POP PUSH2 0xA10 DUP2 PUSH2 0x9EC JUMP JUMPDEST SWAP3 SWAP2 POP POP JUMP JUMPDEST PUSH0 PUSH1 0x20 DUP3 DUP5 SUB SLT ISZERO PUSH2 0xA2B JUMPI PUSH2 0xA2A PUSH2 0x9B8 JUMP JUMPDEST JUMPDEST PUSH0 PUSH2 0xA38 DUP5 DUP3 DUP6 ADD PUSH2 0xA02 JUMP JUMPDEST SWAP2 POP POP SWAP3 SWAP2 POP POP JUMP JUMPDEST PUSH2 0xA4A DUP2 PUSH2 0x927 JUMP JUMPDEST DUP2 EQ PUSH2 0xA54 JUMPI PUSH0 PUSH0 REVERT JUMPDEST POP JUMP JUMPDEST PUSH0 DUP2 CALLDATALOAD SWAP1 POP PUSH2 0xA65 DUP2 PUSH2 0xA41 JUMP JUMPDEST SWAP3 SWAP2 POP POP JUMP JUMPDEST PUSH0 PUSH1 0x20 DUP3 DUP5 SUB SLT ISZERO PUSH2 0xA80 JUMPI PUSH2 0xA7F PUSH2 0x9B8 JUMP JUMPDEST JUMPDEST PUSH0 PUSH2 0xA8D DUP5 DUP3 DUP6 ADD PUSH2 0xA57 JUMP JUMPDEST SWAP2 POP POP SWAP3 SWAP2 POP POP JUMP JUMPDEST PUSH0 DUP2 MLOAD SWAP1 POP SWAP2 SWAP1 POP JUMP JUMPDEST PUSH0 DUP3 DUP3 MSTORE PUSH1 0x20 DUP3 ADD SWAP1 POP SWAP3 SWAP2 POP POP JUMP JUMPDEST PUSH0 DUP2 SWAP1 POP PUSH1 0x20 DUP3 ADD SWAP1 POP SWAP2 SWAP1 POP JUMP JUMPDEST PUSH2 0xAC8 DUP2 PUSH2 0x9DB JUMP JUMPDEST DUP3 MSTORE POP POP JUMP JUMPDEST PUSH2 0xAD7 DUP2 PUSH2 0x927 JUMP JUMPDEST DUP3 MSTORE POP POP JUMP JUMPDEST PUSH1 0x40 DUP3 ADD PUSH0 DUP3 ADD MLOAD PUSH2 0xAF1 PUSH0 DUP6 ADD DUP3 PUSH2 0xABF JUMP JUMPDEST POP PUSH1 0x20 DUP3 ADD MLOAD PUSH2 0xB04 PUSH1 0x20 DUP6 ADD DUP3 PUSH2 0xACE JUMP JUMPDEST POP POP POP POP JUMP JUMPDEST PUSH0 PUSH2 0xB15 DUP4 DUP4 PUSH2 0xADD JUMP JUMPDEST PUSH1 0x40 DUP4 ADD SWAP1 POP SWAP3 SWAP2 POP POP JUMP JUMPDEST PUSH0 PUSH1 0x20 DUP3 ADD SWAP1 POP SWAP2 SWAP1 POP JUMP JUMPDEST PUSH0 PUSH2 0xB37 DUP3 PUSH2 0xA96 JUMP JUMPDEST PUSH2 0xB41 DUP2 DUP6 PUSH2 0xAA0 JUMP JUMPDEST SWAP4 POP PUSH2 0xB4C DUP4 PUSH2 0xAB0 JUMP JUMPDEST DUP1 PUSH0 JUMPDEST DUP4 DUP2 LT ISZERO PUSH2 0xB7C JUMPI DUP2 MLOAD PUSH2 0xB63 DUP9 DUP3 PUSH2 0xB0A JUMP JUMPDEST SWAP8 POP PUSH2 0xB6E DUP4 PUSH2 0xB21 JUMP JUMPDEST SWAP3 POP POP PUSH1 0x1 DUP2 ADD SWAP1 POP PUSH2 0xB4F JUMP JUMPDEST POP DUP6 SWAP4 POP POP POP POP SWAP3 SWAP2 POP POP JUMP JUMPDEST PUSH0 PUSH1 0x20 DUP3 ADD SWAP1 POP DUP2 DUP2 SUB PUSH0 DUP4 ADD MSTORE PUSH2 0xBA1 DUP2 DUP5 PUSH2 0xB2D JUMP JUMPDEST SWAP1 POP SWAP3 SWAP2 POP POP JUMP JUMPDEST PUSH2 0xBB2 DUP2 PUSH2 0x9DB JUMP JUMPDEST DUP3 MSTORE POP POP JUMP JUMPDEST PUSH0 PUSH1 0x40 DUP3 ADD SWAP1 POP PUSH2 0xBCB PUSH0 DUP4 ADD DUP6 PUSH2 0xBA9 JUMP JUMPDEST PUSH2 0xBD8 PUSH1 0x20 DUP4 ADD DUP5 PUSH2 0x990 JUMP JUMPDEST SWAP4 SWAP3 POP POP POP JUMP JUMPDEST PUSH32 0x4E487B7100000000000000000000000000000000000000000000000000000000 PUSH0 MSTORE PUSH1 0x32 PUSH1 0x4 MSTORE PUSH1 0x24 PUSH0 REVERT JUMPDEST PUSH0 DUP3 DUP3 MSTORE PUSH1 0x20 DUP3 ADD SWAP1 POP SWAP3 SWAP2 POP POP JUMP JUMPDEST PUSH32 0x496E73756666696369656E742062616C616E6365000000000000000000000000 PUSH0 DUP3 ADD MSTORE POP JUMP JUMPDEST PUSH0 PUSH2 0xC50 PUSH1 0x14 DUP4 PUSH2 0xC0C JUMP JUMPDEST SWAP2 POP PUSH2 0xC5B DUP3 PUSH2 0xC1C JUMP JUMPDEST PUSH1 0x20 DUP3 ADD SWAP1 POP SWAP2 SWAP1 POP JUMP JUMPDEST PUSH0 PUSH1 0x20 DUP3 ADD SWAP1 POP DUP2 DUP2 SUB PUSH0 DUP4 ADD MSTORE PUSH2 0xC7D DUP2 PUSH2 0xC44 JUMP JUMPDEST SWAP1 POP SWAP2 SWAP1 POP JUMP JUMPDEST PUSH0 PUSH2 0xC8E DUP3 PUSH2 0x927 JUMP JUMPDEST SWAP2 POP PUSH2 0xC99 DUP4 PUSH2 0x927 JUMP JUMPDEST SWAP3 POP DUP3 DUP3 SUB SWAP1 POP DUP2 DUP2 GT ISZERO PUSH2 0xCB1 JUMPI PUSH2 0xCB0 PUSH2 0x930 JUMP JUMPDEST JUMPDEST SWAP3 SWAP2 POP POP JUMP JUMPDEST PUSH32 0x416D6F756E74206D69736D6174636820776974682076616C75652073656E7400 PUSH0 DUP3 ADD MSTORE POP JUMP JUMPDEST PUSH0 PUSH2 0xCEB PUSH1 0x1F DUP4 PUSH2 0xC0C JUMP JUMPDEST SWAP2 POP PUSH2 0xCF6 DUP3 PUSH2 0xCB7 JUMP JUMPDEST PUSH1 0x20 DUP3 ADD SWAP1 POP SWAP2 SWAP1 POP JUMP JUMPDEST PUSH0 PUSH1 0x20 DUP3 ADD SWAP1 POP DUP2 DUP2 SUB PUSH0 DUP4 ADD MSTORE PUSH2 0xD18 DUP2 PUSH2 0xCDF JUMP JUMPDEST SWAP1 POP SWAP2 SWAP1 POP JUMP INVALID LOG2 PUSH5 0x6970667358 0x22 SLT KECCAK256 0xDC 0xA9 0xCF DUP10 0xAE TLOAD 0x4B EXTCODESIZE MSTORE8 LOG1 AND 0xBA 0x25 0xD8 CHAINID BLOBBASEFEE 0xCC 0xC7 DUP12 0xD CALL SLOAD 0x4D DELEGATECALL 0xE8 0x4B PUSH15 0xED29C70E4364736F6C634300081E00 CALLER "
				},
				"gasEstimates": {
					"creation": {
						"codeDepositCost": "682600",
						"executionCost": "infinite",
						"totalCost": "infinite"
					},
					"external": {
						"balances(address)": "2801",
						"deposit(uint256)": "infinite",
						"getBalances()": "2496",
						"getTopDepositors()": "infinite",
						"tops(uint256)": "infinite",
						"withdraw(uint256)": "infinite"
					},
					"internal": {
						"_sortTopDepositors()": "infinite",
						"_updateTops(address)": "infinite"
					}
				},
				"methodIdentifiers": {
					"balances(address)": "27e235e3",
					"deposit(uint256)": "b6b55f25",
					"getBalances()": "00113e08",
					"getTopDepositors()": "81454f71",
					"tops(uint256)": "a7211664",
					"withdraw(uint256)": "2e1a7d4d"
				}
			},
			"storageLayout": {
				"storage": [
					{
						"astId": 5,
						"contract": "tests/bank.sol:Bank",
						"label": "balances",
						"offset": 0,
						"slot": "0",
						"type": "t_mapping(t_address,t_uint256)"
					},
					{
						"astId": 14,
						"contract": "tests/bank.sol:Bank",
						"label": "tops",
						"offset": 0,
						"slot": "1",
						"type": "t_array(t_struct(TopDepositor)10_storage)dyn_storage"
					}
				],
				"types": {
					"t_address": {
						"encoding": "inplace",
						"label": "address",
						"numberOfBytes": "20"
					},
					"t_array(t_struct(TopDepositor)10_storage)dyn_storage": {
						"base": "t_struct(TopDepositor)10_storage",
						"encoding": "dynamic_array",
						"label": "struct Bank.TopDepositor[]",
						"numberOfBytes": "32"
					},
					"t_mapping(t_address,t_uint256)": {
						"encoding": "mapping",
						"key": "t_address",
						"label": "mapping(address => uint256)",
						"numberOfBytes": "32",
						"value": "t_uint256"
					},
					"t_struct(TopDepositor)10_storage": {
						"encoding": "inplace",
						"label": "struct Bank.TopDepositor",
						"members": [
							{
								"astId": 7,
								"contract": "tests/bank.sol:Bank",
								"label": "addr",
								"offset": 0,
								"slot": "0",
								"type": "t_address"
							},
							{
								"astId": 9,
								"contract": "tests/bank.sol:Bank",
								"label": "amount",
								"offset": 0,
								"slot": "1",
								"type": "t_uint256"
							}
						],
						"numberOfBytes": "64"
					},
					"t_uint256": {
						"encoding": "inplace",
						"label": "uint256",
						"numberOfBytes": "32"
					}
				}
			},
			"userdoc": {
				"kind": "user",
				"methods": {},
				"version": 1
			}
		}
	}
}